:020000040000FA
:1000000000800020250400003704000039040000AF
:100010003B0400003D0400003F040000000000001D
:10002000000000000000000000000000410400008B
:1000300043040000000000004504000047040000E5
:10004000490400002115000041150000550400007E
:10005000590400005D040000610400006504000014
:10006000690400006D0400007104000075040000C4
:10007000790400007D040000810400008504000074
:1000800089040000F1040000F1040000F104000004
:10009000F1040000F1040000F1040000F10400008C
:1000A0008D040000910400009504000099040000F4
:1000B000F1040000F1040000F10400009D040000C0
:1000C000A1040000A5040000B5210000AD0400005B
:1000D000B1040000F1040000F1040000F10400008C
:1000E000F1040000F1040000F1040000F10400003C
:1000F000F1040000F1040000F1040000F10400002C
:100100002D1C0000F1040000F1040000F1040000C7
:10011000F1040000F1040000F1040000F10400000B
:10012000F1040000F10400006D200000F104000063
:10013000F1040000F1040000F1040000F1040000EB
:10014000F1040000F1040000F1040000F1040000DB
:10015000F1040000B5040000F1040000F104000007
:10016000F1040000F1040000F1040000F1040000BB
:10017000F1040000F1040000B9040000BD04000017
:10018000C1040000C5040000C9040000CD04000043
:10019000D1040000D5040000D9040000DD040000F3
:1001A000E1040000E5040000E9040000ED040000A3
:1001B000F1040000F1040000F1040000F10400006B
:1001C000F1040000F1040000F1040000F10400005B
:1001D000F1040000F1040000F1040000F10400004B
:1001E000F1040000F1040000F1040000F10400003B
:1003F000F1040000F1040000F1040000FFFFFFFF22
:020000040000FA
:10040000FFFFFFFFFFFFFFFFFFFFFFFFFE3DFFFFBF
:020000040000FA
:10041000DFF80CD000F06EFB00480047ED3900001B
:100420000080002072B6334833490160334880476A
:1004300062B633480047FEE7FEE7FEE7FEE7FEE769
:10044000FEE7FEE7FEE7FEE72E4800472E4800479E
:100450002E4800472E4800472E4800472E480047A8
:100460002E4800472E4800472E4800472E48004798
:100470002E4800472E4800472E4800472E48004788
:100480002E4800472E4800472E4800472E48004778
:100490002E4800472E4800472E4800472E48004768
:1004A0002E4800472E4800472E4800472E48004758
:1004B0002E4800472E4800472E4800472D48004749
:1004C0002C4800472B4800472A4800472948004746
:1004D0002848004728480047274800472648004743
:1004E0002548004724480047234800472248004742
:1004F000FEE7000008ED00E000000000192F0000FA
:1005000011040000F1040000F1040000F1040000F7
:10051000F1040000F1040000F1040000F104000007
:10052000F1040000F1040000F1040000F1040000F7
:10053000F1040000F1040000F1040000F1040000E7
:10054000F1040000F1040000F1040000F1040000D7
:10055000F1040000F1040000F1040000F1040000C7
:10056000F1040000F1040000F1040000F1040000B7
:10057000F1040000F1040000F1040000000000009C
:10058000000000000000000000000000000000006B
:10059000000000000000000000000000000000005B
:1005A000000000000000000000000000D2B201E0E6
:1005B00000F8012B491EFBD270470022F6E710B568
:1005C00013460A4604461946FFF7F0FF204610BDC1
:1005D000421C10F8011B0029FBD1801A70472DE93D
:1005E000FE4F81EA030404F0004421F0004100942E
:1005F0004FF0000B23F0004350EA01045ED052EAB2
:1006000003045BD0C3F30A54C1F30A552C44A4F28B
:10061000F3340194A0FB0254C1F3130141F480119F
:10062000C3F3130343F4801301FB024400FB034EA6
:10063000840A970A44EA815447EA8357A4FB07686F
:1006400002958D0A05FB07854FEA932C04FB0C5499
:100650002705029D4FEA065847EA1637B5EB08050D
:100660006EEB070C870E920E47EA811742EA83125F
:10067000A7FB0201B6EB0B0164EB00042B0D43EA70
:100680000C335E1844EB1C50DA465146E7FB02017E
:10069000C5F313044FEA0B3343EA14534FEA043211
:1006A000019C43EA0603A4F10C040294009CCDE9EA
:1006B00000B400F0BBF803B0BDE8F08F00200146A5
:1006C000F9E70EB5C10F80EAE0700844CA070021BF
:1006D00040F233438DE80E000A460B4600F0A6F8C0
:1006E00003B000BD00F0004230F000400AD0C10D60
:1006F00001F56071C0F3160042EA0151C2084007DB
:1007000011437047002001467047000030B5041EB9
:1007100071F1000404DB4FF00044404264EB01013E
:10072000141E73F1000405DB1C464FF000435242D7
:1007300063EB0403994208BF904230BD01F00043CF
:1007400030B421F0004150EA010206D00A0DA2F5B2
:100750006072C1F31301002A02DC30BC0020704734
:10076000440F44EAC104C100E01830BC00EBC250A1
:1007700000F016B830B50B460146002020220124B7
:1007800009E021FA02F59D4205D303FA02F5491B5F
:1007900004FA02F52844151EA2F10102F1DC30BD75
:1007A0000029A8BF7047401C490008BF20F0010085
:1007B000704710B4B0FA80FC00FA0CF050EA010463
:1007C00004BF10BC704749B1CCF1200421FA04F4F5
:1007D00011FA0CF118BF012121430843A3EB0C01CE
:1007E000CB1D4FEA00614FEA102042BF002010BC31
:1007F000704700EBC35010440029A4BF10BC7047E1
:10080000401C490008BF20F0010010BC704710B523
:10081000141E73F1000408DA401C41F10001921823
:100820005B411A4301D120F0010010BD2DE9F04DCC
:1008300092469B4611B1B1FA81F202E0B0FA80F221
:100840002032904600F068F904460F4640EA0A005C
:1008500041EA0B0153465A46084313D0114653EA66
:10086000010019D0C8F14002504600F064F9054675
:100870000E4650465946424600F04EF9084305D010
:10088000012004E020463946BDE8F08D00200543F4
:1008900046EAE0762C4337430A986305E40AA0EB66
:1008A00008000022FD0A44EA47540A3002D500201D
:1008B0000146E9E7010510196941DDE9084500191C
:1008C0006941BDE8F04DA2E72DE9FE4F804681EA7F
:1008D0000300C00F0C46009021F0004123F00045BA
:1008E000B8EB0200A94105D24046214690461C467D
:1008F0000B46024623F00040104347D0270DC7F3B4
:100900000A00C3F30A510290401A019040286BDAA2
:10091000C3F3130040F4801B0098924620B10023DB
:10092000D2EB030A63EB0B0B01985946C0F140026E
:10093000504600F0F1F806460D4650465946019AD9
:1009400000F009F910EB08006141002487EA115218
:1009500084EAE7731A4340D0009A62B3019A012AED
:100960004FEA075215DC001B61EB02014FF0004219
:1009700002EA0752CDE90042001C41F580113246DF
:100980002B46FFF753FF03B0BDE8F08F40462146EA
:10099000F9E7001B61EB0201001C41F58013001810
:1009A0005B412018A2F5001747EB030140EAD57020
:1009B000B6196D4111E06D084FEA360645EAC0757B
:1009C0004FEA0752001B61EB0201001C41F5801148
:1009D00049084FEA30000019514132462B4603B016
:1009E000BDE8F04FFFF713BF00980122400000233D
:1009F000D0EB020263EBE073009821464FEAE0740B
:100A0000B8EB000061EB0401E9E783F000435BE72A
:100A100081F0004158E72DE9F04D81EA030404F02C
:100A2000004B21F0004514464FF0000A23F000412E
:100A300050EA050220D054EA01021DD0C5F30A573E
:100A40000246C5F31303C1F31300C1F30A5640F481
:100A5000801543F48013A7EB0608101BD64608F256
:100A6000FD3873EB050002D308F1010801E092188C
:100A70005B41B8F1000F03DA00200146BDE8F08DBC
:100A800000204FF48011064684460EE0171B73EBDE
:100A9000050705D3121B63EB050306434CEA010C63
:100AA00049084FEA300092185B4150EA0107EDD146
:100AB00052EA030012D082EA040083EA05010843E7
:100AC00005D0101BAB4106D20122002306E0002214
:100AD0004FF0004302E06FF0010253101AEB0600E2
:100AE0004CEB085110EB0A0041EB0B01BDE8F04D57
:100AF000FFF78DBE064C074D06E0E06840F00103AD
:100B000094E8070098471034AC42F6D3FFF784FC12
:100B1000F03D0000103E0000202A04DB203A00FADD
:100B200002F1002070479140C2F1200320FA03F344
:100B3000194390407047202A04DB203A21FA02F042
:100B40000021704721FA02F3D040C2F12002914007
:100B5000084319467047202A06DBCB17203A41FA92
:100B600002F043EAE07306E041FA02F3D040C2F13A
:100B70002002914008431946704710B54A7802F0A8
:100B800003028B78602404EA43131A43CB780C24C5
:100B900004EA83031A4302640A79521ED2B2426401
:100BA0000B78D0F8902063F30102C0F8902010BDBC
:100BB00000B5034600209433186258629862D862E8
:100BC000186358639863186840F0800043F89409EC
:100BD00000BF186800F080008028FAD10021184674
:100BE00000F010F800BD31B1D0F8942042F00802B6
:100BF000C0F8942005E0D0F8942022F00802C0F854
:100C000094207047024602F1480050F821007047D6
:100C100010B5137803F01F0314790CB1402400E0E1
:100C20000024234340F8213010BD012906D1D0F81B
:100C3000902042F04002C0F8902006E0D0F89020CA
:100C400022F04002C0F8902000BF00BF7047042986
:100C500006D1D0F8942022F00702C0F8942007E0D3
:100C6000D0F8942001F003031B1D1A43C0F8942010
:100C7000704700001FB500F0B1F900208DF80800A2
:100C80008DF8090003208DF80A0001208DF80B0073
:100C90003F20039002A90E48FFF76FFF00210C4888
:100CA000FFF7C3FF03210A48FFF7D1FF0848FFF70A
:100CB0007FFF01210648FFF796FF082000900020E3
:100CC0008DF804006A4600210148FFF7A1FF1FBD0F
:100CD00000B0034010B500210F48FFF793FF044612
:100CE0000E48846040F6E4406043040BB4F5946F12
:100CF00001D201240DE040F63740844201D3642440
:100D000007E0A4F29F40642148434FF4F361B0FB35
:100D1000F1F4204610BD000000B00340C080FF1F6A
:100D200010B501200349087001220321024800F098
:100D30001DFE10BD4480FF1FC0F00F4010B500F035
:100D400099F900F079F901F073FD012001F02AFD15
:100D500010BD000010B501F0B3FB08A002F0DEF9F1
:100D600002E00CA002F0DAF901F0BEFB0028F8D096
:100D70000FA002F0D3F901F0E7FB10BD4D5055393B
:100D80003235305F496E6974282920446F6E652EB4
:100D90000D0A00004D5055393235305F50726F6288
:100DA000652829204661696C65642E0D0A000000E3
:100DB0004D5055393235305F50726F6265282920A9
:100DC000446F6E652E0D0A0000B52DED028B83B0C9
:100DD000002001900290734801F028FB7148B0F99F
:100DE00002004042704908606E48B0F90400486053
:100DF0006C48B0F90600404200EE100AB8EEC00A96
:100E0000084680ED020A694900F0CAFDB0EE408A4A
:100E1000BDEEC80A10EE100A4FF47A7148436449D7
:100E20000861614890ED020AF0EE400AB0EE480A0F
:100E300001F080FC5F4880ED000A01A801F0D2FCBF
:100E40005B4901980860029848605B4801785B48FC
:100E500090ED000A01A801F081FE594880ED000ADA
:100E60005048B0F90A0000EE100AB8EEC00AF0EEE1
:100E7000400A544890ED000A01F03AFF524880EDD4
:100E8000000A4849B1F9040001A9B0EE480A00F08F
:100E900079FA10B101204D49087001A9B0EE480A55
:100EA0004548007800F0E0FA10B10020474908708A
:100EB000FFF710FF4649086044480178444800683D
:100EC000B0EE480A01F0D8FE3B49087008460078A9
:100ED00050B93D4890ED001A3948D0ED000A354828
:100EE00090ED000A01F03EFD364890ED000AB5EEA7
:100EF000C00AF1EE10FA1AD1304890ED000AB5EEB2
:100F0000C00AF1EE10FA08DD6FF07F4002F040F801
:100F10006FF07F4002F08EF805E0002002F038F814
:100F2000002002F087F800202A49086036E02548B2
:100F300090ED000AB5EEC00AF1EE10FA17D225487E
:100F40000068401C2349086008460068322803D125
:100F5000214802F01DF821E01E48006864281DD1D8
:100F6000002002F015F800201A49086016E0194820
:100F70000068401C1749086008460068322803D101
:100F8000154802F057F809E012480068642805D1B6
:100F9000002002F04FF800200E49086003B0BDECBD
:100FA000028B00BDE080FF1FF480FF1FD480FF1F75
:100FB000C080FF1F0C80FF1F1880FF1F0080FF1FD5
:100FC0000880FF1F0480FF1F1080FF1F1980FF1F74
:100FD0001C80FF1F1480FF1F00FFFF000020064938
:100FE00008604FF086400449EC39C1F8EC0000205D
:100FF0000249086070470000EC50064000B0044011
:101000004FF08C4003490860481503498861C86166
:1010100070470000AC51064000B004404FF08C40D7
:10102000034908604815034908604860704700009C
:10103000A851064000A004404FF0804009490860D4
:101040000949C1F82801074950390860091D08609D
:101050004FF4407005494861086108150449C860AB
:1010600088607047345106400050064000D004406C
:1010700000A004404FF080400E4908600E49C1F8BE
:1010800034010C49083108600A4948390860801564
:101090000A49086248624000094908644010094949
:1010A000486108614FF410700549C86388154861AC
:1010B00070470000285106400050064000D0044010
:1010C00000C0044000A0044010B50446FFF7A6FF8E
:1010D000084801F03BF922460749064801F042F969
:1010E0000121044801F01FF90121024801F010F923
:1010F00010BD000000A0064000BD01051FB521483D
:10110000006840F080402049C1F824010846D0F82A
:10111000280140F08040C1F828010846D0F82C0191
:1011200040F08040C1F82C010846D0F8300140F072
:101130008040C1F830010846D0F8340140F08040CA
:10114000C1F834010846006A40F080400862084651
:10115000D0F8840040F08040C1F8840000F08CF8A2
:1011600000208DF8000003200190029001208DF8EE
:101170000E008DF80D00684600F0D0F801F044FE36
:101180001FBD000024510640005006404FF0804033
:1011900003490860801503498860C86070470000F3
:1011A0002C51064000B0044010B5044608480078B1
:1011B000A04200D110BD074801F00DFE28B921461C
:1011C000044801F015FE0248047000BFF2E7000079
:1011D0008480FF1FA881FF1F10B5054801F0F2FDB4
:1011E00008B1002010BD024801F0DAFDFAE7000066
:1011F000A881FF1F10B5FFF703FF114A11491248DC
:1012000000F0EAFF0020114908701422104911482B
:1012100001F0D2FD012251050F4801F070F82220A3
:1012200000F01F02012191404209920002F1E022E8
:10123000C2F8001100BF0121074801F069F810BD94
:101240007C80FF1F6C80FF1F6480FF1F8480FF1F56
:101250009281FF1FA881FF1F00B0064070B50446B1
:101260000D46164633462A462146024800F0D3FF73
:1012700070BD00006480FF1FA020224988606020AC
:10128000C86000BF1F4840698028FBD11E48006825
:1012900020F001001D49C1F8000140F201201A4967
:1012A000091D08603C20091D08601948164908609E
:1012B00000BF1548006800F08070B0F1807FF8D161
:1012C0004FF440201349086040F20320091F0860D2
:1012D0000F48001F091F086000BF0E48083800684B
:1012E00000F08070B0F1807FF7D10B480749C861EA
:1012F00000BF08480838006800F00070B0F1007FB7
:10130000F7D1704700E0074000410640004006402A
:1013100007000004084606401700000618B900211F
:10132000164A116028E0017801F00301134A0832DF
:101330001160017901F007014FF4E063826803EA6C
:10134000022211430D4A121D1160417B09B11106A1
:1013500000E000210A4A1143827B0AB1042200E026
:1013600000221143054A116000BF0449096801F0D9
:101370008071B1F1807FF8D17047000000430640D2
:101380000100000410B5024635480078E0B9D1E903
:1013900000341819002801DB034600E04342142BF7
:1013A00005D230480078401C2E4B187002E0002017
:1013B0002C4B18702B4800780A2805D90120284B9F
:1013C00018700020274B187025480078012823D179
:1013D00024480078401CC0B2224B1870C82803DD96
:1013E000002018701E4B187045F6C050824213DD65
:1013F000FBEE040AB4EEE00AF1EE10FA0CDDF3EEB7
:10140000040AB4EEE00AF1EE10FA05D20220144B01
:1014100018700020134B18701148007802281CD156
:1014200010480078401CC0B20E4B1870642803DDD1
:10143000002018700A4B1870D1E9003418190028E0
:1014400001DB034600E043425A2B06DD0020044B3B
:101450001870044B1870012010BD0020FCE700003C
:10146000B080FF1FB180FF1F70B504460CB900208B
:1014700070BD29480078A0B9FAEE040AB4EEE00A7B
:10148000F1EE10FA0DDDF2EE040AB4EEE00AF1EE30
:1014900010FA06D2086820B9486810B901201E4A1F
:1014A00010701D480078012833D11C480078401C7A
:1014B000C0B21A4A1070322804DD0020164A10709B
:1014C000164A10700D68002D01DB2E4600E06E42BA
:1014D000032E1EDD4B68002B01DB1E4600E05E4242
:1014E000032E16DD0A68002A01DB164600E056428C
:1014F000142E0EDA4868002801DB064600E046425A
:10150000142E06DA0020044A1070044A10700120DC
:10151000AEE70020ACE70000B280FF1FB380FF1FE2
:1015200010B501220321044800F020FA03480068A6
:1015300000F070FC10BD0000C0F00F402080FF1FC5
:1015400010B5024800F0AAFE10BD00006480FF1F25
:1015500019B90022074BC2540BE0402903D1FF22E6
:10156000044BC25405E001F03F0242F08002014BFF
:10157000C25470470010024010B54FF0804004493B
:10158000086203498431086000F0D2F810BD000001
:101590000050064000F00F01014AD177704700006B
:1015A0000080004000F00F01014A117770470000F1
:1015B0000080004030B50246886970B9C86960B9DA
:1015C0004048006800F0800008B1002030BD3E4C6B
:1015D00004EB42148868A0602BE03A48006800F0F1
:1015E000800008B90020F1E7886938B1C86928B1DE
:1015F000D1E90604A04201D00020E7E70023886972
:1016000030B1324C886904EA802040F00040034346
:10161000C86930B12D4CC86904EA802040F0804090
:1016200003430889C0F309001843274C04EB421414
:10163000A060088CC0F30E04234800EB4210C48362
:10164000088CC0F30E04204800EB4210C4821E48F0
:1016500000EB42104C6AC4601B4800EB42108C6ADD
:101660008461194800EB42100C680460164800EBD6
:1016700042104C680461088A84B2134800EB42109F
:101680008480888A84B2104800EB42108482887B70
:101690004FF4784404EAC0200C7B4FF4E06505EA7F
:1016A00004242043CC7BF82505EAC40420434C7B6A
:1016B00004F007040443044800EB4210C4800120F6
:1016C00084E70000008000400090004000FCFF3FE5
:1016D00021B100F00F02044BDA7603E000F00F02B4
:1016E000014B9A76704700000080004051B10B4AD0
:1016F00002EB4012928B42F00203084A02EB4012C6
:10170000938309E0054A02EB4012928B22F0020318
:10171000024A02EB401293837047000000900040A1
:101720000022024901EB40118A837047009000407B
:10173000002004490860C8604861FF204862C86210
:10174000704700000080004051B10B4A02EB40128C
:10175000928B42F00803084A02EB4012938309E09F
:10176000054A02EB4012928B22F00803024A02EB78
:1017700040129383704700000090004000214160B8
:10178000704710B50246012019B90023C2F8803015
:1017900010BD0B7833B140F080000C79936F64F387
:1017A000030393670B7A33B140F040000C7B936FD7
:1017B00064F3071393670B7C0BB140F020004B7C64
:1017C0000BB140F010008B7C012B01D140F00800E0
:1017D000CB7C0BB940F004000B7D012B01D140F014
:1017E0000200C2F8800000BFD2E770B504460D4683
:1017F000204600F017F8204600F0A7F8206820F0F7
:101800002706287B012801D146F02006287800F021
:10181000070006432660A88880B2A060288980B2AD
:10182000E06470BD416D41F001014165704710B544
:101830002AB10368CCB243EA0443036004E00368BE
:10184000CCB223EA0443036010BD014648687047E8
:1018500010B5082A6BD2DFE802F004111C293643C8
:10186000505D00F10C0353F8313023F0040343F0D2
:10187000280400F10C0343F8314059E000F10C0357
:1018800053F8313043F0240400F10C0343F83140A5
:101890004EE000F10C0353F8313023F0380343F0ED
:1018A000040400F10C0343F8314041E000F10C0363
:1018B00053F8313023F0340343F0080400F10C03F3
:1018C00043F8314034E000F10C0353F8313023F099
:1018D000300343F00C0400F10C0343F8314027E0DF
:1018E00000F10C0353F8313023F0280343F01404C3
:1018F00000F10C0343F831401AE000F10C0353F8F7
:10190000313023F0240343F0180400F10C0343F8B2
:1019100031400DE000F10C0353F8313023F0100397
:1019200043F02C0400F10C0343F8314000E000BF09
:1019300000BF10BD00F10C0303EBC1035A607047F8
:10194000026861F3C40202607047416D41F0040116
:101950004165704770B505460C461646012000FAF1
:1019600004F13246284600F00DF870BD30B504464B
:101970000B461546012000FA03F12A46204600F0E6
:101980000AF830BD1AB143690B43436102E0436971
:101990008B43436170470AB1416000E0816070474A
:1019A00070B52DED108B84B004460D469FED930A63
:1019B0008DED030A9FED920A8DED020A9FED910ACB
:1019C0008DED010AB6EE000A8DED000A0126616870
:1019D0006A68881AFEF775FE41EC1F0B21682A68B9
:1019E000881AFEF76EFE41EC1B0BB0EE4F1AF0EEBC
:1019F0006F1AB0EE4B0AF0EE6B0A01F039FDB0EE53
:101A000040CAF0EE60CA51EC1C0BFEF797FE09EEDF
:101A1000900A19EE900AFEF765FE41EC1C0B9FED53
:101A20007A0B53EC102BFEF7DAFD41EC1B0BFEF7A3
:101A300085FE09EE900A94ED020AD5ED020A30EE19
:101A4000600A10EE101A0846FEF74CFE41EC1C0B23
:101A50009FED6F0B53EC102BFEF7C1FD41EC1B0B00
:101A6000FEF76CFE0AEE100A6B4890ED000ADFEDFF
:101A7000630A0AEE200A80ED000A684890ED000A29
:101A80007AEE400A664890ED000A9FED5C1A00EE7F
:101A9000810A80ED000A634890ED010ADFED580AE3
:101AA00030EEC00AD0ED020A30EE600A5E4880EDEA
:101AB000000A5C4890ED030AB1EE400A5A4880EDF6
:101AC000010A584890ED030AB1EE400A564880EDED
:101AD000020A9FED4C0A80ED030A524890ED000A7D
:101AE0005148D0ED000A9FED451A00EE810A4D489D
:101AF00080ED000A90ED010A4B48D0ED010A9FED00
:101B00003F1A00EE810A474880ED010A90ED020A73
:101B10004548D0ED020A9FED391A00EE810A41488E
:101B200080ED020A90ED030A3F48D0ED030A9FEDD5
:101B3000331A00EE810A3B4880ED030A384890EDE5
:101B4000000A39EEC00AF0EE40AA364890ED000ACD
:101B5000F7EE000A20EE200AB0EE408A90ED020A6D
:101B6000F7EE000A20EE200AF0EE40EAB6EE000A98
:101B7000F7EE000A00EE880AB0EE40DA88EE0D0AB1
:101B8000F0EE408A8EEE8D0AB0EE409AF0EE48DA22
:101B900090ED010AF7EE000A20EE200AB0EE40EACE
:101BA00090ED000A08EEED0A80ED000A90ED010AC2
:101BB00008EECE0A80ED010A90ED020A09EE6D0AE8
:101BC00080ED020A90ED030A09EE4E0A80ED030A49
:101BD000134890ED000A08EEAA0A80ED000A0F48AB
:101BE00090ED000A09EE2A0A80ED000A0C4890EDFB
:101BF000000A04B0BDEC108B70BD00000AD7233C76
:101C00006F12833AA69B443BDD767D81DBA54C4079
:101C1000000000000040AF3F5880FF1F6080FF1FA2
:101C20005C80FF1F4880FF1F5081FF1F10B50021FF
:101C3000054800F054F830B10021034800F00BFAD9
:101C4000024800F05FFD10BD00700340C90D0000A8
:101C500030B50346002014784FF0706505EA04643F
:101C600020435478012C01D140F4000094780CB149
:101C700040F48020D4780CB140F4003014790CB1D9
:101C800040F4803054790C2505EA8404204394798B
:101C90000CB140F0020003F1200404EB0114A06039
:101CA00030BD11B10D22826001E0002282607047D8
:101CB00010B52AB1036901248C402343036104E079
:101CC000036901248C40A343036110BD002101700E
:101CD00041708170C170017141718171704702461C
:101CE00001208840D368184008B1012070470020C7
:101CF000FCE7816841F002018160816821F0020106
:101D00008160704701228A40426170471CB54FF0E4
:101D10008C400F49086001210E48FFF7C2FF0D48B3
:101D2000FFF7E7FF6846FFF7D1FF6A460021094841
:101D3000FFF78EFF084A0021064800F090F90122C3
:101D400000210448FFF7B4FF302001F009F81CBD62
:101D5000DC5006400070034040D10C0010B500215B
:101D60000148FFF7CFFF10BD0070034010B54FF0E2
:101D70008C401049086008070E49B439C1F8300199
:101D80004FF440700C490860486088608815C8604E
:101D9000012203210948FFF7E9FD01220321074839
:101DA000FFF7D8FD064800F019F90121044800F0BA
:101DB000F4F810BDB450064000C00440C0F00F401D
:101DC00000D0024070B505460C4616462C602068CF
:101DD00000F004F90121206800F0DFF831462068A6
:101DE00000F0C6F80121206800F0EDF8012120681C
:101DF00000F0DEF800216068FFF7AAFB6068FFF7DB
:101E00008FFC0021E068FFF7A3FBE068FFF788FC88
:101E100070BD000070B505462C680021E068FFF732
:101E200065FC94F9110000F01F0201219140104A55
:101E3000430942F8231000BFE068FFF7B3FBE068F6
:101E4000FFF7A8FB00216068FFF782FB6068FFF7DF
:101E5000A9FB6068FFF79EFB0021E068FFF778FBB5
:101E6000A86818B1A86880470020A86070BD00006D
:101E700080E100E02DE9F0438FB005460E4617469D
:101E80009846DDF858902C682C2104A8FEF795FBA5
:101E9000364B0FCB8DE80F00C5F808900021E068A5
:101EA000FFF756FBE068FFF73BFC1FB105970120E9
:101EB000099003E0681D059000200990002008901B
:101EC000206874300490CDF830800120069004A979
:101ED000E068FFF76FFB0121E068FFF707FC0021D6
:101EE0006068FFF735FB6068FFF71AFC1EB10496C7
:101EF0000120089005E0FF202871281D0490002093
:101F000008900020099020686430059004A960685A
:101F1000FFF750FB94F9110000F01F0201219140DE
:101F20004209920002F1E022C2F8001100BF6946A6
:101F3000206800F059F80121E068FFF7C9FB012192
:101F4000E068FFF701FC217CE068FFF701FB01215D
:101F50006068FFF7BDFB01216068FFF7F5FB217AA0
:101F60006068FFF7F5FA0FB0BDE8F0833C3D000074
:101F700010B500220023036201220B780BB142F45A
:101F8000706242620B894FF47F0404EA03430C79C8
:101F9000234383650023036410BD21B1026942F02D
:101FA0000102026103E0026922F00102026170474E
:101FB00021B1C26942F00202C26103E0C26922F0AB
:101FC0000202C261704721B1C26942F00102C261DE
:101FD00003E0C26922F00102C261704740F202319F
:101FE000016108210161704710B5024600200B789D
:101FF00033B1012B05D0022B06D0032B0AD106E00A
:1020000009E040F0804006E040F0004003E040F08E
:10201000404000E000BF00BF4B784FF0605404EA3E
:10202000C36318430B794FF0407404EA0363184309
:102030000B7A0BB140F400004B7A0BB140F48000F6
:102040008B7A0BB140F400108B895B1EC3F30B033A
:102050001843106610BD01228A40C260704700F12B
:10206000200303EB01131A60704700001CB500F059
:102070002BF8FEF72FFE0E49C860084600694FF4A2
:102080007A7190FBF1F40A48C068CDE90004084871
:10209000436808A102680B4801F050F80948FEF7B0
:1020A00097FA0446002221460648FFF7D7F81CBDE0
:1020B000C080FF1F7B4125643A25643A25643A2598
:1020C000647D24000081FF1F0348006840F0800009
:1020D000014908607047000000000440014609B94A
:1020E0000020704780200A4B1860087800F0030237
:1020F0004878102802D142F0040204E0487878239E
:1021000003EAC0000243024842600120E9E7000000
:1021100000000440002005494860802008604FF618
:10212000FF7088600020024908607047000004408A
:10213000B480FF1F30B10749096841F04001054AEA
:10214000116005E00349096821F04001014A11606E
:10215000704700000000044081B2014A916070475E
:10216000000004400348006840F001000149086095
:10217000704700000000044008B54FF08C400C4947
:102180000860FFF7C7FF00208DF800000F208DF8D2
:1021900001006846FFF7A2FF4FF42070FFF7DCFF55
:1021A0003A2000F0DDFD0120FFF7C4FF08BD00006C
:1021B0000051064010B5074800F0C4F800F40010C4
:1021C000B0F5001F05D1034800F0B8F80446FEF74B
:1021D000EBFF10BD00B0064070B506460C46154634
:1021E0003460207938B1206800F0B0F8D5E90012E9
:1021F000206800F0B7F80021A068FFF7A9F9A068EF
:10220000FFF78EFA0121206800F08DF80121206887
:1022100000F06AF870BD2DE9F0418CB005460E461D
:10222000174698462C682C2101A8FEF7C6F9C5F878
:1022300004800021A068FFF78BF9A068FFF770FA0F
:1022400001960120059020681C300290099701201A
:10225000039001A9A068FFF7ADF994F90D0000F013
:102260001F02012191404209920002F1E022C2F8CE
:10227000001100BF0121A068FFF738FA0121A06812
:10228000FFF726FA0121A068FFF75EFA217BA0681C
:10229000FFF75EF90CB0BDE8F081000070B50446B0
:1022A00025680021A868FFF721FA95F90D0000F0D4
:1022B0001F02012191400B4A430942F8231000BF3D
:1022C000A868FFF76FF9A868FFF764F90021A8680C
:1022D000FFF73EF9606818B16068804700206060D1
:1022E00070BD000080E100E021B1026942F400020B
:1022F000026103E0026922F40002026170471AB130
:1023000083690B43836102E083698B438361704778
:1023100021B1826942F48022826103E0826922F461
:1023200080228261704721B1826942F40022826179
:1023300003E0826922F40022826170470146C86985
:10234000C0B2704701464869704700000349016107
:102350000349416100218161016270470400000F5F
:1023600000C01FC02DE9F04F0D46D0F81890D0F8EE
:1023700018B02BF4402BC0F818B090460026B24697
:10238000042129E002FB01FBB5FBFBFB1FFA8BF4E8
:1023900004B9012401FB04FBB5FBFBFCACEB020719
:1023A00004F1010B01FB0BFBB5FBFBFBA2EB0B0BE1
:1023B000BB450BD204F1010B01FB0BFBB5FBFBFB97
:1023C000A2EB0B0704F1010B1FFA8BF4474502D86F
:1023D000B8460E46A246491C2029D3D94FF0640BBB
:1023E000B2FBFBFB0BEB4B0BC34518D90369032E68
:1023F00003D9082E01D243F4003323F0F853A6F199
:10240000010B4FF0F85E0EEA0B6B4BEA03036FF320
:102410000C03CAF30C0B4BEA030BC0F810B0C0F866
:102420001890BDE8F08FC1617047000023494978DA
:10243000018022498978027841EA022109B20180AB
:102440001E49C97841801D490979827841EA0221F3
:1024500009B24180194949798180184989790279FD
:1024600041EA022109B281801449C97941821349A4
:10247000097A827C41EA022109B241820F49497AF4
:10248000C1800E49897A827941EA022109B2C1806C
:102490000A49C97A01810949097B027A41EA022184
:1024A00009B201810549497B41810449897B827ACE
:1024B00041EA022109B24181704700004081FF1FBB
:1024C00010B5FFF753FCFFF757F8044A04490548D5
:1024D0000068FFF777FC012010BD00003880FF1F67
:1024E0002480FF1F2080FF1F0EB512A000680290FD
:1024F000002203211048FFF739FA00200F49087025
:102500000F48022301AA02A900900E480068FFF7B5
:10251000B1FC00BF094800780028FBD09DF80500F9
:10252000712803D09DF80500702801D101200EBD4F
:102530000120FCE7F5FF0000C0F00F404480FF1FC2
:10254000210D00002080FF1F1CB5002203216348DD
:10255000FFF70CFA0020624908706248022300224B
:102560006149009061480068FFF784FC00BF5C4847
:1025700000780028FBD00020019003E000BF019804
:10258000401C019042F2107101988842F6D300225B
:1025900003215248FFF7EAF90020514908705148D9
:1025A000022300225249009050480068FFF762FC65
:1025B00000BF4B4800780028FBD00020019003E0CA
:1025C00000BF0198401C01900198B0F57A7FF7D3C5
:1025D000002203214148FFF7C9F900204049087053
:1025E0004048022300224349009040480068FFF71A
:1025F00041FC00BF3A4800780028FBD00020019041
:1026000003E000BF0198401C01900198B0F57A7F6B
:10261000F7D3002203213148FFF7A8F90020304901
:102620000870304802230022334900902F48006888
:10263000FFF720FC00BF2A4800780028FBD00020CC
:10264000019003E000BF0198401C01900198B0F593
:102650007A7FF7D3002203212048FFF787F9002073
:102660001F4908701F4802230022244900901F4878
:102670000068FFF7FFFB00BF194800780028FBD077
:102680000020019003E000BF0198401C01900198D8
:10269000B0F57A7FF7D3002203211048FFF766F9DF
:1026A00000200F4908700F480323002214490090AE
:1026B0000E480068FFF7DEFB00BF094800780028DD
:1026C000FBD00020019003E000BF0198401C019066
:1026D0000198B0F57A7FF7D31CBD0000C0F00F4021
:1026E0004480FF1F210D0000203D00002080FF1FBF
:1026F000223D0000243D0000263D0000283D000052
:102700002A3D000038B50446002203210548FFF7A2
:102710002DF90F23044A0549054800940068FFF786
:10272000A9FB38BDC0F00F404081FF1F2D3D0000C8
:102730002080FF1FB0EE401A9FED0B0A31EE400AD9
:102740000A4880ED000A90ED000ADFED091A20EE3C
:10275000210ADFED081A01EEA00A074880ED000A01
:1027600090ED000A70470000000000009C80FF1FF1
:10277000000048439A99193FA080FF1F10B50446F6
:1027800004F0010010B10548FEF7F8FF04F0020064
:1027900010B10348FEF7F2FF10BD000000A0034097
:1027A0000090034010B50446224605210148FFF77A
:1027B000DDF810BDC0F00F4070B504460025012CB7
:1027C00004D10648FFF741F8054605E0022C03D185
:1027D0000348FFF73AF80546284670BD00A00340BD
:1027E0000090034010B504460120FFF7E5FF41F6D5
:1027F0004C51081A20600220FFF7DEFF41F64C51D1
:10280000081A60600320FFF7B9FF40F6A661206850
:10281000884203D32068A0EB4100206040F6A66107
:102820006068884203D36068A0EB4100606010BD1F
:1028300000B58BB0002205214648FFF797F801222A
:1028400005214448FFF786F800220821414840301E
:10285000FFF78CF8012208213E484030FFF77AF854
:10286000002209213B484030FFF780F8012209216E
:1028700038484030FFF76EF8002204213548803890
:10288000FFF774F80122042132488038FFF762F81C
:10289000002205212F488038FFF768F80122052122
:1028A0002C488038FFF756F801208DF81C0041F6BF
:1028B0004C500890002009908DF8280007A9264860
:1028C000FEF793FF002201212348FEF7C1FF0022FB
:1028D00011462148FEF7BCFF012203211E48FEF7E6
:1028E000A6FF01208DF81C0041F64C5008900020F6
:1028F00009908DF8280007A91848FEF776FF07A968
:102900001748FEF772FF0F200290049001208DF807
:1029100004008DF80C0000208DF814008DF81500CF
:102920008DF8160001208DF817008DF8180001A908
:102930000A48FEF726FF01A90948FEF722FF0121F8
:102940000648FEF7FDFF01210548FEF7F9FF0BB031
:1029500000BD0000C0F00F400080034000A0034015
:102960000090034010B52DED048BB0EE408AF0EEE0
:10297000608AB0EE419AB1EE480A30EE280A30EE95
:10298000090ABDEEC00A344880ED000AB1EE480ADB
:1029900030EE280A30EE490ABDEEC00A2F4880ED1D
:1029A000000A2D4800682E49884202DA08462A4962
:1029B00008602948006841F64C51884202DD08460B
:1029C00025490860254800682549884202DA0846FA
:1029D000224908602148006841F64C51884202DDD6
:1029E00008461E4908601C48006800280BDB0021CF
:1029F000012000F055F81848016801F59B7101208D
:102A000000F030F80AE00121084600F049F81248C9
:102A10000068C0F59B71012000F024F80F480068A1
:102A200000280BDB0021022000F03AF80B48016877
:102A300001F59B71022000F015F80AE00121022047
:102A400000F02EF805480068C0F59B71022000F0E8
:102A500009F8BDEC048B10BDA880FF1FAC80FF1FE0
:102A6000B4E2FFFF70B504460D4600210B48FEF7A7
:102A700067FF04F0010020B12A4601210748FEF754
:102A800059FF04F0020020B12A4600210348FEF756
:102A900051FF01210148FEF753FF70BD0080034044
:102AA00070B505460C4605F0010028B314B1012CA1
:102AB00016D10AE0002208212748FEF757FF01221D
:102AC00009212548FEF752FF15E00022092122487E
:102AD000FEF74CFF012208211F48FEF747FF0AE0DE
:102AE000002208211C48FEF741FF002209211A4854
:102AF000FEF73CFF00BF00BF05F0020058B314B161
:102B0000012C1AD10CE0002204211348C038FEF732
:102B10002DFF012205211048C038FEF727FF19E0DC
:102B2000002205210C48C038FEF720FF01220421B5
:102B30000948C038FEF71AFF0CE0002204210648BD
:102B4000C038FEF713FF002205210348C038FEF706
:102B50000DFF00BF00BF70BD00F10F40F0EE400A56
:102B6000D0E900231A4400EE102AB8EEC00A364A13
:102B700082ED000A354A92ED000A9FED351A20EEEB
:102B8000010A82ED000A92ED000A2F4A92ED001A26
:102B9000DFED301A01EE210A2C4A82ED000A2E4A9E
:102BA00092ED000A294A92ED001A30EE010A2A4AF3
:102BB00082ED000A92ED000A30EE600A82ED000A12
:102BC00092ED000A9FED251AB4EEC10AF1EE10FA5B
:102BD00003DD9FED220A82ED000A1F4A92ED000AF2
:102BE0009FED1F1AB4EEC10AF1EE10FA03D29FED69
:102BF0001C0A82ED000A154A92ED000A9FED191A8F
:102C000020EE010A184A82ED000A134A92ED000AEA
:102C10009FED141A20EE010A9FED141AC0EE011A5E
:102C2000114A92ED000A31EE800A114A82ED000A43
:102C3000012904D19FED0F0A074A82ED000A0C4AD0
:102C400092ED000A704700008880FF1F8C80FF1FF4
:102C50003333333F9A99993E9480FF1F00606A4650
:102C600000606AC6000002439080FF1F00004843D6
:102C70009880FF1F0000000070B52DED068BB0EEB0
:102C8000408A04460D4618EE100AFDF72BFD41EC74
:102C90001A0BB0EE4A0AF0EE6A0A00F0E1FCB0EE60
:102CA000409AF0EE609A9FED100B53EC102B51EC14
:102CB000190BFDF72BFD03D31E2C01D3012D0ED1D3
:102CC0000020FFF76FFD00210120FFF7CBFE002160
:102CD0000120FFF7C7FE0120BDEC068B70BD01206F
:102CE000FFF760FD0020F7E70000000000004E4005
:102CF000B0EE401A9FED040A21EE000A034880ED71
:102D0000000A90ED000A70470000C842A480FF1F2F
:102D100010B505200246104B19684FF6FF03194005
:102D20000E4B0B4343EA02210B4B196000BF0621F7
:102D3000302000F021F80A213A2000F01DF80E2181
:102D4000002000F019F80E21012000F015F80E21E6
:102D5000022000F011F810BD0CED00E00000FA05B3
:102D600000F01F02012191404209920002F1E0228D
:102D7000C2F800117047000010B5002807DA0A07F2
:102D8000140E054A00F00F031B1FD45403E00A077A
:102D9000130E024A135410BD18ED00E000E400E0E9
:102DA00070B50446D4E90101455C2168A06800F0D3
:102DB000ADF9A060284670BD4160026000238360C9
:102DC000C36070470146D1E90202904201D101205F
:102DD00070470020FCE710B504462168E06800F069
:102DE00095F9A168884201D1012010BD0020FCE7BF
:102DF00070B504460D46E168606845542168E06896
:102E000000F084F9E06070BD70B5394D2D69C5F3EF
:102E100003456C1C364D2D69C5F30365012D06D0A5
:102E2000022D0AD0032D17D0062D4ED125E03148B2
:102E3000314D2D6805F0070148E0304D2D6805F053
:102E400001050DB12E4D00E02E4D28462B4D2D1FB6
:102E50002D6805F0070139E02B4D2D6805F00305BD
:102E600043F6095615FB06F5284E06EB0520204DC6
:102E7000D5F8045305F0070128E0254D2D6805F02D
:102E800001055DB1204D2D6805F0030543F6095697
:102E900015FB06F51D4E06EB052000E015481C4D00
:102EA0002D1F2D6805F00701194D2D68C5F302256A
:102EB0006A1C174D2D68C5F3044505F1100300FB8E
:102EC00003F55600B5FBF6F000E070BD00BF49B158
:102ED0004D1E012606FA05F56543B0FBF5F50D4ECE
:102EE000356002E000250B4E356000BFEDE70000C5
:102EF0000040064000B4C4040441064008420640B5
:102F000000127A0080841E0008430640006CDC0238
:102F100008460640B880FF1F1948006840F470005A
:102F2000174908601748184948604FF6FF708860D5
:102F30000846006820F0800040F020000860134838
:102F4000006840F0A060114908600846006840F041
:102F50000040086000BF0D48006800F000400028F5
:102F6000F9D10A48006840F003000849086000BF32
:102F700000BF00BFBFF36F8F00BF00BF00BF70472F
:102F800088ED00E020C528D900200540002008E099
:102F900070B50546002648E0002443E0C4F117015F
:102FA000012088402840F0B9012202212048FEF784
:102FB000DDFC012202211E48FEF7D8FC002202217E
:102FC0001B48FEF7D3FC002202211948FEF7CEFC75
:102FD000002202211648FEF7C9FC002202211448F3
:102FE000FEF7C4FC1DE0012202211148FEF7BEFCE1
:102FF000012202210E48FEF7B9FC012202210C48F1
:10300000FEF7B4FC012202210948FEF7AFFC0022C2
:1030100002210748FEF7AAFC002202210448FEF71D
:10302000A5FC641C182CB9D3761C032EB4D370BD38
:1030300080F00F4070B50546002648E0002443E0CC
:10304000C4F11701012088402840F0B90122032172
:103050002048FEF78BFC012203211E48FEF786FC68
:10306000002203211B48FEF781FC0022032119489E
:10307000FEF77CFC002203211648FEF777FC0022B5
:1030800003211448FEF772FC1DE0012203211148C0
:10309000FEF76CFC012203210E48FEF767FC0122BB
:1030A00003210C48FEF762FC012203210948FEF7C8
:1030B0005DFC002203210748FEF758FC0022032193
:1030C0000448FEF753FC641C182CB9D3761C032E5D
:1030D000B4D370BD80F00F4010B5FEF757F8002252
:1030E00003210948FEF742FC002202210648FEF7B0
:1030F0003DFC012203210448FEF72CFC01220221A1
:103100000148FEF727FC10BD80F00F400246501C1E
:10311000884201D100207047501CFCE70FB4054BDA
:1031200010B503A9044A029800F056FB10BC5DF8E4
:1031300014FB0000C5390000BC80FF1F0FB4084B12
:1031400010B504A902AA039800F046FB044602A9A0
:10315000002000F01DFC204610BC5DF814FB0000B0
:103160009139000003B401984100009850EAC12051
:1031700018BF04204A0D18BF40F0010040F2FF7252
:10318000B2EB515F08BF40F00200012808BF0520E4
:1031900002B070470000000070B59B482DED020B97
:1031A0002DED068B079D25F00044A04218DC9748C2
:1031B000844202DC0AD1069840B19DED060BBDECBD
:1031C000068B02B0BDE8704000F0D0BA002DCCBF35
:1031D0009FED8F0B9FED900BBDEC068B02B070BD89
:1031E0008F48A04215DD8F48A042D8BF4FF0FF3472
:1031F00058DD9DED060B51EC100BFFF7B3FF0428D3
:1032000008BF00F0C9FA9DED060BBDEC068B02B0BD
:1032100070BD9DED060B51EC100B00F0C6FBCDE927
:10322000060181489FED828BA0423CDD8248A0428E
:103230001FDD00249FED82AB9DED060B53EC1A2B96
:1032400051EC100BFDF740FB9DED060B41EC190B0B
:1032500053EC1A2B51EC100BFDF7C1F953EC182B62
:10326000FDF7D3FB53EC192BFDF7D5FBCDE9060198
:1032700049E09DED060B012453EC182B51EC100B8B
:10328000FDF722FB9DED060B41EC190B53EC182BBF
:1032900051EC100BFDF7B9FB53EC192BFDF7BBFB01
:1032A000CDE906012FE06848A0421FDD02249FED12
:1032B000689B9DED060B53EC192B51EC100BFDF7A1
:1032C0008EF953EC182BFDF7FFFA9DED060B41EC40
:1032D000180B53EC192B51EC100BFDF796FB53EC2C
:1032E000182BFDF798FBCDE906010CE09DED060BD0
:1032F000032453EC102B9FED580B51EC100BFDF7F2
:103300008AFBCDE906019DED060B53EC102B51EC29
:10331000100BFDF764F941EC180B53EC182BFDF77B
:103320005EF941EC190B4E480621B0EE490AF0EE69
:10333000690A784400F09EF953EC182B51EC100BFD
:10334000FDF74DF941EC180B4648B0EE490AF0EE96
:10335000690A0521784400F08DF953EC192B51ECE2
:10336000100BFDF73CF941EC100B51EC180B53EC32
:10337000102B002C0EDAFDF7A7FA9DED061B53EC7F
:10338000112BFDF72CF99DED061B53EC112BFDF7CE
:103390003FFB35E0FDF798FA9DED061B53EC112B32
:1033A000FDF71DF941EC100B2F48784400EBC400E9
:1033B00090ED001B51EC100B53EC112BFDF725FB8E
:1033C0009DED061B53EC112BFDF71FFB41EC100B81
:1033D0002648784400EBC40090ED001B51EC100B24
:1033E00053EC112BFDF714FB41EC100B002DA2BF89
:1033F000BDEC068B02B070BD51EC100B81F00041AA
:1034000041EC100B01E70000000010440000F07FC9
:10341000182D4454FB21F93F182D4454FB21F9BFCA
:103420000000DC3F0000203E0000F33F00000000F1
:10343000000000000000F03F0000E63F0000000038
:103440000000000000000040008003400000000079
:10345000000000000000F83F000000000000F0BF86
:10346000820A0000380A0000C20900007A09000040
:1034700070B56B4E2DED040B2DED028B82B0DDF897
:103480001CC0DDE905235C422CF000411C4341EAED
:10349000D474049D22F00040B44205D86C422C4301
:1034A00040EAD474B4420BD99DED061B9DED040B8C
:1034B00002B0BDEC028B04B0BDE8704000F060B912
:1034C000ACF14054A4F17F641C430BD0022404EA05
:1034D000AC7444EAD27405439FED538B9FED542B9B
:1034E00007D015E09DED040B51EC100B00F055FAE0
:1034F00042E0002C11BF012C9DED040B02B0BDEC8D
:10350000028B04BF04B070BD022C38D0032C3BD01A
:103510000B439FED491B9FED4A0B0AD0B14218D1D6
:10352000B04209D121F0804120F080400791059000
:103530000FE0002A15DA10E0434B7B44002C08BF53
:1035400093ED000B0DD0012C10D0022C17D0032CC2
:103550001AD0B0421DD1002A03DAB0EE410AF0EED3
:10356000610A02B0BDEC028B04B070BD93ED000B9C
:1035700051EC100B81F0004141EC100BF1E7B0EE83
:10358000480AF0EE680AECE7B0EE420AF0EE620A92
:10359000E7E7401A00153C28C8BF8DED000B19DC89
:1035A000BCF1000FBEBF10F13C0F9FED290B8DED5C
:1035B000000B0FDB9DED060B53EC102B9DED040B68
:1035C00051EC100BFDF727FA00F0EFF900F0E5F9E8
:1035D000CDE90001002C08BF9DED000BC1D0012CEE
:1035E00010D0022C9FED1C0B53EC102B9DED000B0B
:1035F00051EC100B0DD0FDF708FA53EC182BFDF72A
:1036000004FAB9E7019880F0004001909DED000BAD
:10361000A7E7FDF7FAF953EC182BFDF7F9F9ABE73B
:103620000000F07F00000000182D4454FB210940E9
:10363000182D4454FB2109C0182D4454FB21F9BF17
:10364000182D4454FB21F93FAA0800000000000097
:103650000000000000000000075C143326A6A13C17
:103660002DED020B019820F0004001909DED000B24
:1036700002B0704770B504462DED028B4D1E00EB75
:10368000C500B0EE408AF0EE608A90ED000B35F098
:10369000060017D053EC182B51EC100BFCF79FFFD2
:1036A00041EC100B6D1E04EBC50090ED001B51ECBE
:1036B000100B53EC112BFDF707F941EC100B35F013
:1036C0000600E7D1022D36D0042D1CD0062D1CBFDC
:1036D000BDEC028B70BD53EC182B51EC100BFCF7BA
:1036E0007EFF94ED0A1B53EC112BFDF7EDF853EC24
:1036F000182BFCF774FF94ED081B53EC112BFDF70E
:10370000E3F841EC100B53EC182B51EC100BFCF7C9
:1037100066FF94ED061B53EC112BFDF7D5F853EC27
:10372000182BFCF75CFF94ED040B53EC102BFDF70A
:10373000CBF841EC100B53EC182B51EC100BFCF7B1
:103740004EFF94ED021B53EC112BFDF7BDF853EC2B
:10375000182BFCF744FF94ED001B53EC112BFDF7E5
:10376000B3F8BDEC028B41EC100B70BD10B553ECFF
:10377000102B51EC100BFDF7A7F841EC100B10BD0E
:1037800010B553EC112B51EC100BFDF79DF841ECEB
:10379000100B10BD000000009FED050B10B553ECA1
:1037A000102B51EC100BFCF71AFF41EC100B10BD65
:1037B000000000000000001002E008C8121F08C14D
:1037C000002AFAD170477047002001E001C1121FA2
:1037D000002AFBD1704700002DE9FF4F8BB09A46BD
:1037E0000F460546002606E025280BD052460D99C7
:1037F00090476D1C761C28780028F5D10FB0304614
:10380000BDE8F08F0024A0460122604900E0044397
:1038100015F8013F203B02FA03F00842F7D128785F
:103820002E2817D115F8010F44F004042A280ED0D1
:103830006FF02F022878A0F1300109290AD808EB8F
:10384000880102EB410100EB01086D1CF2E757F81B
:10385000048B6D1C287869283ED006DC0028CDD06A
:1038600063280BD0642804D136E0732810D0752863
:103870004BD052460D999047761C85E017F8040B03
:103880008DF8000000208DF80100E946012003E0DA
:1038900057F8049B4FF0FF3061074FF0000401D44C
:1038A0000AE0641C44450DDA8442FADB19F804107E
:1038B0000029F6D106E0641C8442FCDB19F80410F0
:1038C0000029F8D1264404E019F8010B52460D995D
:1038D0009047641EF8D257E001CF4FF00A0B002842
:1038E00002DA40422D2102E0210504D52B218DF87A
:1038F0002410012103E0E10705D02021F7E70DF1B5
:10390000200908910CE00021F9E701CF4FF00A0BE4
:10391000F9E75946FCF72EFF01F1300209F8012DB5
:103920000028F6D1ADEB090000F1200B600701D4AF
:103930004FF00108D84502DDA8EB0B0000E00020A5
:103940008046002406E009A85246005D0D99904784
:10395000641C761C08988442F5DB04E03020524653
:103960000D999047761CB8F10001A8F10108F5DC2B
:1039700005E019F8010B52460D999047761CBBF1F2
:103980000001ABF1010BF4DC6D1C34E709280100E8
:103990000A68531C0B601070704710B541EC100B97
:1039A000FFF7FAFB51EC100B10BD82B0CDE900011E
:1039B00021F0004001909DED000B02B051EC100B86
:1039C0007047000070B504460D4600BF0648FEF77C
:1039D000B9FC00F40000B0F5000FF7D1E1B20248E5
:1039E000FEF721FD204670BD00A00640FDF786FBD6
:1039F0004FF4E130FDF768FBFFF78AF969A0FFF7A4
:103A00008DFB6DA26FA172A0FFF788FB76A0FFF778
:103A100085FBFDF79FF979A0FFF780FBFEF776F9AC
:103A20007EA0FFF77BFBFDF725F984A0FFF776FB6F
:103A3000FEF7A2FB89A0FFF771FBFFF74DFB00200B
:103A4000FFF7F8FA0020FFF7A3FA8CA0FFF766FB58
:103A5000FDF7D0FB8FA0FFF761FBFDF76FF993A097
:103A6000FFF75CFB99A0FFF759FBFEF777F9FEF72C
:103A700079FB96E0FDF7B0FB46285ED008DCA0F1AC
:103A80004100052872D2DFE800F010212A3B4700F0
:103A900058286CD004DC472853D048287FD161E0F7
:103AA00059287BD05A287AD162E08CA0FFF736FBE8
:103AB0004FF47F00FFF76CFA4FF47F00FFF7BAFA7C
:103AC000BBEE0E0A864880ED000A69E085A0FFF78C
:103AD00025FB8548816885A0FFF720FB60E087A073
:103AE000FFF71CFB4FF47F00FFF752FA4FF47F40C3
:103AF000FFF7A0FABAEE040A814880ED000A4FE011
:103B00006FF07F40FFF744FA6FF07F40FFF792FAC3
:103B10007CA0FFF703FB43E07BA0FFF7FFFA4FF425
:103B20007F40FFF735FA4FF47F40FFF783FAB3EE9B
:103B30000E0A6B4880ED000A32E074A0FFF7EEFA3F
:103B40002EE073A0FFF7EAFA4FF47F40FFF720FA68
:103B50004FF47F00FFF76EFAB2EE040A684880ED7A
:103B6000000A1DE06BA0FFF7D9FA19E017E014E096
:103B700069A0FFF7D3FA0020FFF70AFA0020FFF749
:103B800059FA9FED660A564880ED000A9FED630AD8
:103B90005B4880ED000A03E000E001E000E000BFC8
:103BA00000BF67E70D0A0D0A416C6C496E4F6E65E8
:103BB0005F76312E0D0A000031363A30333A333712
:103BC000000000004D617920323120323031370061
:103BD000436F6D70696C6564206F6E2025732C20B7
:103BE00025730D0A0D0A0000496E697469616C69DC
:103BF0007A696E672E2E2E0D0A0000004170705FEC
:103C0000496E69744D70753932353053656E736F16
:103C100072282920446F6E652E0D0A004C504954BD
:103C2000785F436F6E66696775726174696F6E283D
:103C30002920446F6E652E0D0A0000004144437830
:103C40005F436F6E66696775726174696F6E28296C
:103C500020446F6E652E0D0A000000004C50544D3C
:103C600052785F436F6E66696775726174696F6ED3
:103C7000282920446F6E652E0D0A000057533238F4
:103C80003132425F496E6974282920446F6E652E77
:103C90000D0A0000426C65586665725F496E697472
:103CA000282920446F6E652E0D0A00004170705F58
:103CB000496E69744D6F746F72436F6E74726F6C7E
:103CC000282920446F6E652E0D0A0000416C6C207F
:103CD00052656164792E0D0A000000004100000069
:103CE0000080FF1F42000000C080FF1F4164635638
:103CF000616C75653A2025640D0A000043000000E0
:103D00000480FF1F44000000450000004600000042
:103D100047000000480000005A00000000000000BA
:103D20006B806B036C0019191B181C0000BBFFFF94
:103D3000FFFFFFFFFFFFFFFFFFFFFFFF0006000089
:103D4000000000000000000008000000000000006B
:103D50004FBB610567ACDD3F182D4454FB21E93FA3
:103D60009BF681D20B73EF3F182D4454FB21F93F92
:103D7000E2652F227F2B7A3C075C143326A6813C18
:103D8000BDCBF07A8807703C075C143326A6913CC3
:103D9000C4EB98999999C9BF711623FEC671BCBF2F
:103DA0006D9A74AFF2B0B3BF9AFDDE522DDEADBF97
:103DB0002F6C6A2C44B4A2BF0D5555555555D53FAF
:103DC000FF8300922449C23F6E204CC5CD45B73FCA
:103DD000513DD0A0660DB13FEB0D76244B7BA93F42
:103DE00011DA22E33AAD903F00000000000000002D
:103DF000103E00000080FF1FC0000000B837000028
:103E0000D03E0000C080FF1FF8000000C83700004F
:103E100000000000000000000000000000000000A2
:103E20000000000000000000000000000000000092
:103E30003481FF1F00D0024000000000110000008C
:103E4000010000001001000000000000010000005F
:103E500000000000000000000000803F00000000A3
:103E6000000000000000803F000000000000000093
:103E700000000000000000000000000000B006404C
:103E800001000000020000000502000000BD010565
:103E900000C201000000000000000000000000005F
:103EA0000000000000000000000000000000000012
:103EB0000000000000000000000000000000000002
:103EC0000000000000000000006CDC0200000000A8
:0400000500000411E2
:00000001FF
