:10000000008001204DC7020003930000EB98000020
:1000100000000000000000000000000000000000E0
:10002000000000000000000000000000CBB0000055
:100030000000000000000000F7B00000CFEF00005B
:1000400051CB020059CB020061CB020069CB020008
:1000500091CB020091CB020091CB020091CB020028
:1000600071CB020079CB020081CB020091CB020060
:100070003B8B010091CB020091CB020091CB02009F
:1000800091CB020091CB020091CB020091CB0200F8
:1000900091CB020091CB020091CB020091CB0200E8
:1000A00091CB020091CB020091CB020091CB0200D8
:1000B00091CB020089CB020091CB020091CB0200D0
:10040000FFFFFFFFFFFFFFFFFFFFFFFFFEFFFFFFFD
:10041000F8B504000D0017008126F600002D03D169
:1004200000230222BE2156E000202856012806D0D3
:1004300004D303285BD049D304287CD085E0285618
:1004400000F0B0F9012808D0022817D0042824D0E1
:10045000052826D006282ED033E0002C04D1002316
:100460000222FF21903173E02C20205C002801D073
:10047000B948F2BD009B3A00290034E0002C04D1B9
:1004800000230222FF21A83163E0009B3A002900EB
:10049000200000F065F9B14944E0009B3A002900D2
:1004A0002DE0002C03D100230222E62113E0009B63
:1004B0003A00290045E0009A3900280000F068F869
:1004C000F2BD00230122EF21490041E0002C04D1BC
:1004D00000230222F62149003AE02C20205C00286B
:1004E00001D0AC48F2BD200000F03AF9F2BD022084
:1004F0002856401E052806D9801F01280AD820004A
:1005000004F06EF8F2BD002C08D1002302228321F2
:1005100089001DE0002301229F4919E0200000F01E
:100520001FF99E49884217D1009B3A0029002000FC
:1005300004F09AF9F2BD002C03D10023022298495D
:1005400006E0200000F09FF8F2BD00230222B4492B
:10055000022004F06DFA3000F2BD000080B500F01A
:1005600021F9062810D801A1095C8F440612121641
:100570001612160000230122AA49022004F058FA9C
:10058000012002BD002002BD00230222A649F4E79B
:1005900070B594B08126F60000214156012968D13A
:1005A000A24C210008310123C056122808D013287C
:1005B00009D017280BD0182821D019284DD054E085
:1005C000106808604FE010782F2160544BE0102233
:1005D00021000F31684604F043FA6D4610222100D5
:1005E0001F312800103004F03BFA062200212800B9
:1005F000203004F05FFA6B462622172129E00025FF
:1006000069460D71210070312000303004F0F1FC9A
:10061000002835D10022102120000F3004F0BBFD4E
:10062000002803D500230222814926E001A800907A
:1006300023000F33220030322100303120001F30E0
:1006400004F032FF01001CD16846058102AB022292
:100650001821002005F081FA13E010780871507815
:1006600048719078887100200BE000230222C3219A
:1006700002E000230222C5218900022004F0D8F9FB
:10068000300014B070BDF0B591B0060034002634CF
:100690008127FF000125002000228A56012A02D06E
:1006A000042A31D04EE08956102913D1A071207050
:1006B000607005F0F2FBFF2801D0E0711EE0FF231F
:1006C0000122A649022004F0B3F9A571FF20E071D0
:1006D000A3483EE0112913D120706070E079FF2813
:1006E00009D005F015FC002802D0E07905F0ACFC3B
:1006F000E07905F0F3FB300000F070FB002028E00B
:1007000000230222974920E02178002921D020707F
:10071000A571E079FF2806D005F0FAFB002802D089
:10072000E07905F091FC0C48694608806B4602228E
:100730000121300005F011FA0400300000F04EFBFA
:10074000200006E000230222B549022004F070F9DF
:10075000380011B0F0BD00000E04000003040000DA
:1007600070B504002620255C1E2D0AD22000B14E53
:10077000AD007559A8470500200000F02FFB2800A8
:1007800070BD00230222AC49022004F051F98120FF
:10079000C00070BD1B0400002F0200001404000004
:1007A0003D020000401E052812D9801F022811D9E1
:1007B000C01E052810D9801F01280FD9801E0128CE
:1007C0000ED9801E022803D9C01E022808D909E0CC
:1007D00001207047022070470420704705207047B1
:1007E000062070470020704703000120012903D133
:1007F00004215956002911D0012A10D11956002977
:1008000003D104215956002904D008492F228956C2
:10081000002904D100215956032900D10020704736
:1008200049020000660200008A020000F0920020E7
:10083000E6020000F0B504000D00002001210226B0
:100840009657012E03D102269E57012E00D0002676
:10085000AE709E799779BE4200D93E00AE710526F2
:100860009657012E03D105269E57012E00D0002653
:100870006E71B44E0427D757012F26D10427DF57B6
:10088000012F22D129715756012F02D05F56012F17
:1008900001D10B2221E0687003269657002E05D166
:1008A00003269E57002E01D1062126E000269257EE
:1008B000052A35DA9E57052E32DAB44BB700BE1939
:1008C0009B199A562270062A27E028715756012F45
:1008D0000AD1DF57012F07D10522227069702F221C
:1008E000B256012A1DD119E0687003269657002ED2
:1008F00005D103269E57002E01D1217011E000265C
:100900009257052A0CDA9E57052E09DAB54BB70027
:10091000BE199B199A562270012A02D0012000E0CC
:100920002070E870F0BD80B500220421684604F014
:1009300032FCAD48009901400091814201D1AB48A1
:1009400009E008460021AA4A002305F0BFFDA64A97
:10095000002305F0D4FD0090009802BD5A0300006A
:10096000190400007F03000010B5037801220C7801
:10097000144202D018241C4301E0E7241C400470F8
:1009800003780C786408144202D006241C4301E06A
:10099000F9241C400470037809788908114202D0B8
:1009A0001A43027002E0FE21194001700178C90665
:1009B000C90E017010BD80B5002808D100230222A5
:1009C0008C49022004F034F88120C00002BD0B786D
:1009D000062B07D021D3082B0FD006D30A2B18D013
:1009E0000FD31AE005F030FF02BD13000A0001002A
:1009F0003231303005F046FF02BD103005F068FF9F
:100A000002BD13000A0001003A31403005F07AFFC0
:100A100002BD203005F0A8FF02BD774802BD0000EE
:100A2000AD0300000B2802D27449085C7047002017
:100A300070470000D0B10200E903000010B582B099
:100A40000C0001D0152C01DB002016BD0322010093
:100A5000684604F005F80098611EC840C107C90F38
:100A60008020084316BD02781F230800104018405C
:100A700006D0481E08438243134001D1012070472D
:100A80000020704770B512780078C407E40FD507CE
:100A9000ED0FAC422BD38407E50F9407E60FB54268
:100AA00025D34407E50F5407E60FB5421FD30007CF
:100AB000C40F1007C20F944219D318780978CA07D7
:100AC000D20FC307DB0F9A4211D38A07D30F8207D5
:100AD000D40FA3420BD34A07D30F4207D40FA3422C
:100AE00005D30907CA0F0007C10F8A4201D20020AF
:100AF00070BD012070BDF4B506000D001F0010464A
:100B000005F016FE040005D1009A0221300005F020
:100B100034F80400002F08D10023022238490220B3
:100B200003F086FF8120C000F2BD3D703B00012232
:100B30000A21300005F011F8010002D1200000D197
:100B40000020F2BDF092002038B50C0008212A4D9B
:100B5000AC4201D1072106E06D1CAC4202D06D1CF5
:100B6000AC4200D10A21FFF7C6FF32BD10B5040028
:100B7000080021780C0005D00F2903DA0821FFF7BF
:100B8000BAFF10BD1C49FFF7DFFF10BD64B20200C1
:100B9000F8B517001D000A000100280005F0D4FD7B
:100BA000040001D10B2612E00A200A268221C90086
:100BB0008C4202D0491C8C4201D1287007E00820E9
:100BC0002870002302220F49022003F031FF2B007E
:100BD00001223100380004F0C0FF010000D12000E4
:100BE000F2BD000048B20200FFFFFF003F420F00CD
:100BF00040420F003B0600000F04000080B20200DC
:100C000046070000F3070000F8B504000D001700C8
:100C10003820205C01260109314210D0EF2101402B
:100C2000382021542900380005F002FE010066D169
:100C30003A001121200004F0A0FF01005FD138200C
:100C4000205CC108314213D0F721014038202154E3
:100C50002A00323229003031380005F000FE010050
:100C60004DD13A000B21200004F087FF010046D14E
:100C70003820205C8108314211D0FB21014038200E
:100C8000215429001031380005F019FE010036D139
:100C90003A001121200004F070FF01002FD138200C
:100CA000205C4108314213D0FD21014038202154FD
:100CB0002A003A3229004031380005F013FE0100C5
:100CC0001DD13A000821200004F057FF010016D181
:100CD0003820205C304211D0FE21014038202154C0
:100CE00029002031380005F034FE010007D13A0018
:100CF0001121200004F041FF010000D10020F2BDCD
:100D000038B505000C0030300179217001214156C1
:100D1000002900D00121617000214156002900D036
:100D20000121A17002214056012807D1E070102254
:100D300029008D31201D03F093FE01E00020E070BA
:100D4000230014220921280004F007FF32BDF8B562
:100D5000060015002F0030373420305CF874087816
:100D6000B8740124204210D0102231003A312800FA
:100D700003F076FE30003430C08E38800822310017
:100D80006C312800323003F06BFEB87C4008204202
:100D900012D0102231004A312800103003F060FEDA
:100DA000300034304621405C387406223100743102
:100DB00028003A3003F054FEB87C8008204206D068
:100DC000102231005A312800203003F049FE2B0058
:100DD00044220821300004F0C0FEF2BD10B504002A
:100DE00026342078002809D1E079FF2806D005F0C4
:100DF0008FF8002802D0E07905F026F910BD000038
:100E0000F8B5ACB00500B74F8124E40000260020FF
:100E10000856012805D003D3032800D14CE16DD337
:100E200056E10856012802D0022849D064E0290082
:100E300026314E703A7B797B2C98FFF7D5FC002841
:100E400001D1A9484BE12C988079B97B884201D225
:100E5000A64844E128002E302C99092205F002FE14
:100E600001222C991BA805F099FB0400F1D107225F
:100E70001BA928007F3003F0F3FD1BAA07212800DF
:100E800004F07BFE040032D107202621685400952F
:100E9000974B984A012128002630C07905F048F880
:100EA000070024D026202E5402AB1BAA08212800BC
:100EB000FFF721FE040020D1BBB201228E4979E068
:100EC00019461BA805F05BFC040016D11BAA0221E1
:100ED000280004F052FE04000AD101202900263126
:100EE0004870280028302C99042205F0BBFDF5E05D
:100EF000280026304670F1E08048F0E0187801289C
:100F000002D00B2862D0CFE0194602A805F08BFB77
:100F1000040060D107222C9928007F3003F0A0FD47
:100F200028002E3002A9092205F09CFD2800263059
:100F30004078012816D12800263004214056012887
:100F400001D1012100E00021280026300322805633
:100F5000012801D1012200E0002202A8FFF744FC91
:100F6000012804D13A7B797B02A8FFF73DFC0128D8
:100F700008D102A98979BA7B914203D202AB1BAA9C
:100F800006213CE0012837D10095594B594A0121EF
:100F900028002630C07904F0CBFF07000FD002AB49
:100FA0001BAA08212800FFF7A6FD040006D1BBB24A
:100FB00001225349022003F03BFD52488FE00120FB
:100FC0002621685402AB0922032157E0194602A8E2
:100FD00005F005FC040060D102A80221405600285B
:100FE00002D1787B012807D002A8012140560028B1
:100FF00009D1387B012806D102AB1BAA03212800A6
:10100000FFF779FD6BE001A8C01C009001AB5B1CF1
:1010100001AA01A9891C280004F0C4FD04005ED1C6
:1010200068468079012826D168460079002804D1D5
:1010300002A80221405601281DD0684640790028A8
:1010400004D102A801214056012814D013A8831C02
:1010500002000A3201000C31280004F0D3FD040024
:101060003DD1288813A9088013A806F093F804003E
:1010700008D17D6032E002AB04220221280004F096
:101080006CFD2CE026202E5402AB1BAA0521280063
:10109000FFF731FD010021D021E002AB1BAA0100C6
:1010A0002800FFF751FD1AE0010003D00F2801DAF4
:1010B000154814E0154812E002200856401E052885
:1010C00001D813480BE000230222B521090102E0F8
:1010D000002302220F49022003F0AAFC20002DB0B9
:1010E000F0BD00BFF09200201D0400001E040000AF
:1010F0002F5B000030750000A90900000304000008
:101100004C0A000019040000120400000F04000043
:10111000140400005A0B0000F1B5A8B010001D0027
:10112000289E2636002400228A56012A06D004D39F
:10113000032A00D13CE100D229E144E10120085614
:10114000032802D0042816D01FE1002028560228C8
:1011500009D0032807D0052805D0062803D0082881
:1011600001D0092805D1347005AB16AA00202956F4
:101170004BE09748C9E0A8799649897B884201D21B
:101180009548C2E00833EA1D289936312898353051
:10119000FFF778FC002801D19048B6E02B00289A90
:1011A0002E3202A928983730FFF744FB02A8042109
:1011B00041567278012A0FD10A0003D10422B25697
:1011C000012A07D003228256002A05D10322B256F3
:1011D000012A01D1824898E0002903D17D49497B49
:1011E000012907D003214156002905D17949097BFE
:1011F000012901D17B4888E08179764A927B91422E
:1012000007D2347005AB16AA06212898FFF773FCA5
:101210007BE07470E979289A3523D154297A289A89
:101220003623D154E979C908C90703D5297AC908F1
:10123000C90706D4F721F27B0A40F273327C1140D1
:10124000317409217156012901D1012200E00022E7
:101250002899FF233E33C9180A700122AA56012A91
:1012600000D000224A70417871728178B172C178E1
:10127000F17201793173417971738079B07302220F
:10128000290016A805F08AF901003ED10C2030563D
:1012900001280DD1FE2016A94A7902404A718A79A7
:1012A00002408A71F17B0140F173317C0840307457
:1012B000072216A92898863003F0D2FB16AA072128
:1012C000289804F05AFC01001FD128988D30019015
:1012D000289D7C35022711203056401E0BD0401E21
:1012E00035D0401E13D0401E31D0401E39D0401E94
:1012F00005283ED940E010220021019803F0DAFBD6
:101300006C700120A8703770002029B0F0BD314802
:1013100080683549884201D3FFF705FB009004221D
:101320006946019803F09CFB0C220021289891301B
:1013300003F0C0FB6C700120A87037700098059016
:1013400005AB04220521289804F007FCDDE72C708A
:101350006C70AC7037706846047505AB01220621CD
:10136000F1E7012028706C70AC7037706946087521
:10137000F3E70E203070C7E700230222A3490220C2
:1013800003F056FB8120C000BFE7A148BDE72978E4
:101390000529347005AB05D1289A01002800FFF714
:1013A000F7FBB2E716AA28992800FFF7DFFBACE7A6
:1013B00002200856401E052801D89648A5E70023BC
:1013C00002229549DBE700230222D0210901D6E75A
:1013D0000C040000F09200201E0400000A0400002B
:1013E0001F0400001D04000040420F00F6B5ABB022
:1013F000060018003400183437007D37012100251D
:101400002B9A0023D256012A05D003D3032A00D1F8
:10141000E6E06CD3EFE02B9A5256032A04D0052A5B
:101420002AD0142A48D060E000214156012906D173
:1014300064216156002902D17978002911D0002158
:101440004156022906D16422A256012A02D17A7895
:10145000002A06D0062902D17A78002A01D008296C
:1014600008D1A57309AB1AAA002141563000FFF735
:1014700042FBC9E06948C7E07A78002A35D1825634
:101480006423E3569A4201D0AF48BDE07970102240
:10149000411C30008D3003F0E3FA387801283DD14B
:1014A000002210213000AD3003F075FE002842D537
:1014B00000230222A549A0E07978002915D11B213B
:1014C0006156012911D11F216156022901D0042939
:1014D0000BD101001AA805F09AFA010004D11AAA4A
:1014E0000221300004F049FB8EE049488CE002788C
:1014F000032A04D0052A4DD00E2A53D069E03A7849
:10150000002A66D139702CA90A88010030009D306C
:1015100005F0D0F8010036D17878012873D1002287
:1015200010213000AD3003F036FE002803D5002333
:101530000222874961E0300020300490E079039076
:1015400030001930029020780190300086300090F1
:1015500033007F333200AD3231008D3105A803F006
:10156000A7FE010050D105A91AA805F09AF80100BC
:101570004AD11AAA1121300004F0FFFA010043D128
:101580000321A17340E0A57309AB1AAA3000FFF74D
:10159000DBFA39E0A57309AB32002CA90988FFF703
:1015A000F7FA31E03978002913D11B21615601295E
:1015B0000FD11F216156032901D0042909D1407898
:1015C00009A9087009AB01221421300004F0C5FA02
:1015D0001AE0A57309AB1AAA3100FFF7C7FA13E0A6
:1015E0002B9802214056401E052801D809480BE0DF
:1015F0000222584901E002225749022003F018FA5A
:101600008120C00000E000202DB0F0BDBA0C000029
:101610000304000014040000F60C00000C04000099
:10162000F0B5ABB0060017001800340018340025E0
:1016300000228A56012A04D07BD3032A6ED011D30C
:1016400077E0895603290BD100214156082905D19D
:10165000A57309AB1AAA0021415646E03F4870E045
:101660003F486EE00178042902D0052948D04EE0B9
:101670003A0001003000BD3005F044F8010038D1D7
:10168000300020300490E07903903000193002904F
:101690002078019030008630009033007F33320094
:1016A000BD3231008D3105A803F002FE010048D1A2
:1016B000102231009D3105A803F0EAF9012810D16C
:1016C0003100AD311AA805F006F8010039D11AAA87
:1016D0001121300004F051FA010032D10421A1732C
:1016E0002FE0A57309AB1AAA04213000FFF703FA13
:1016F00027E0A57309AB1AAA3000FFF725FA20E00E
:10170000A57309AB32003900FFF742FA19E0A5735F
:1017100009AB1AAA3100FFF729FA12E00220085695
:10172000401E052801D8B2480BE000230222B1492F
:1017300002E000230222B049022003F079F981205F
:10174000C0002BB0F0BD00000B0400006A0D0000CB
:10175000DE0D00005F0E0000690E00000C040000AA
:1017600003040000F0B5ABB0060014001800370009
:101770002637002500228A56012A04D002D3032AE4
:1017800028D018D327E1895603290ED100214156CC
:10179000082908D13D7001AB1AAA0021415630003A
:1017A000FFF7A9F921E195481FE1C91F022900D8D7
:1017B0000CE1934819E1017805293D7001AB04D192
:1017C00032002100FFF7E4F90FE11AAA3100FFF718
:1017D000CDF90AE102228B565B1E052B00D9F7E0FA
:1017E00001A4E45C6400A744E869690243E8417B22
:1017F000827B1206120C114303D142185279002A3F
:1018000001D07B4C2AE0491C0829F6D30C2038561D
:1018100000280BD13300BD333200AD3231008D31A1
:1018200030008D3003F09BFD0400D2D1B87B10282E
:1018300006DA10210A1A002130188D3003F03AF927
:1018400012A831880180102231008D31801C03F0F4
:1018500007F912A805F069FC04000CD03D7001AB3B
:101860001AAA08213000FFF746F901004CD192E096
:101870000621445E200000D1B6E03D7068468480B9
:1018800001A885700C203856012802D101A8C27029
:1018900002E0012001A9C87001AB04220D21300033
:1018A00004F05BF901002FD101AB1AAA0821300026
:1018B000FFF721F9010027D1832093E00C23FB5689
:1018C000012B02D101ACE27002E0012301ACE37014
:1018D0008956022924D141886B469980019909B221
:1018E00000292AD10621405601000ED1012001A96C
:1018F00088708324E400009401AB04220D213000A1
:1019000004F02BF901001ED06FE0012801A88270BD
:1019100002D100240095EFE7834804000090EBE734
:1019200003290DD1408869468880019800B20028BB
:1019300003D1032001A98870EBE701A98D70D8E7D6
:1019400000237A494AE0009800282CD10720397CEE
:10195000014215D005203870B87B01A948703620A7
:10196000305C6946087168460079F7210140684695
:10197000017101AB02220721300004F0EEF819E0FA
:10198000F97B014209D00620387031003531300032
:101990003830FEF7E9FF200027E03D7001A9300054
:1019A000FFF7AEF906E03D7001AB1AAA082130003E
:1019B000FFF7A1F80100EED017E03D7001AB1AAAC5
:1019C00008213000FFF797F804000ED1A1480CE081
:1019D0000023A14902E000230222A049022003F0D3
:1019E00027F88120C00000E000202BB0F0BD0000EF
:1019F000140400002E0F0000380F00000C0400003B
:101A000003040000F8B5A2B00500080011002F0083
:101A100026378126F600002400228256012A04D0AF
:101A200078D3032A62D051D374E0012140560328B1
:101A300002D006280CD047E000215856082805D1CE
:101A40003C706B4611AA2298415639E0844868E000
:101A500007264221585C3040397C3140884201D011
:101A600080485EE02900363128003830FEF77CFFE0
:101A700011AA22992800FFF7C7F8010012D1F87BBC
:101A8000304209D00620387029003531280038301E
:101A9000FEF76AFF002044E03C7069462800FFF72B
:101AA0002FF93EE0694608806B460222012128009A
:101AB00004F053F8010034D13C706B4611AA0821A0
:101AC0002800FFF718F82CE067482AE01878052866
:101AD0003C706B4604D12A002298FFF759F820E0A9
:101AE00011AA29002298FFF741F81AE00221405676
:101AF000401E05280AD83C706B4611AA0821280010
:101B0000FEF7F9FF01000CD158480AE00023022239
:101B1000574902E0002302225649022002F088FFC2
:101B2000300023B0F0BD0000160400008E1000004D
:101B3000F4B5A4B005001F002E00263600240020B6
:101B40000856012804D07AD3032864D014D376E051
:101B5000085603280ED100203856082808D13470C2
:101B600001AB12AA002039562800FEF7C4FF6EE030
:101B70003B486CE03C486AE03878411F3AD0491E47
:101B8000042940D840B2FEF74DFF69460870684608
:101B90000078002837D06846017828003830FEF7F2
:101BA00062FF00282FD024A80288390028003A308C
:101BB000FEF701FF010016D1B07C69460978884321
:101BC000B074C0060DD101AA290035312800FFF7F5
:101BD000BEF801003BD1347001A92800FFF790F84E
:101BE00035E0002033E0347001AB12AA2800FEF784
:101BF000ABFF2CE0347001AB2A0024A80188380028
:101C0000FEF7C6FF23E0347001AB12AA29003800AA
:101C1000FEF7ACFF1BE002200856401E05280AD83C
:101C2000347001AB12AA08212800FEF764FF0100FE
:101C30000DD10E480BE0002302220F4902E00023E1
:101C400002220E49022002F0F3FE8120C00025B0DE
:101C5000F0BD000017040000F810000003110000A0
:101C60000C0400000D040000030400001404000034
:101C7000CC110000D6110000A2120000AC1200002E
:101C8000F8B5B0B006000800110034001834002583
:101C900000228256012A05D003D3032A00D160E135
:101CA00012D369E10121405603280BD10021585677
:101CB000082805D1A57306AB1EAA3098415655E0F9
:101CC000B24861E1B2485FE11878022806D00528E1
:101CD00000D135E10B2800D139E13AE10A0019467B
:101CE00006A804F0A0FC010000D022E106A8030031
:101CF0000833C21D3100363130003530FEF7C2FEE8
:101D000000282FD006AB32002E321BA9300037300E
:101D1000FEF790FD1BA8042141569E4F0A0002D1F8
:101D20007A7B012A06D003228256002A07D13A7B09
:101D3000012A04D1A57306AB1EAA032116E08279FD
:101D4000BB7B9A4204D2A57306AB1EAA06210DE006
:101D500001290FD106A9C979C90703D406A9097AAF
:101D6000C90707D5A57306AB1EAA0A213000FEF7E6
:101D7000C2FE09E106A9C9793522B15406A9097A3A
:101D80003622B15406A9C979C908C90704D506A9DC
:101D9000097AC908C90706D4F721627F0A40627729
:101DA000A27F1140A17706A901228956012900D0FE
:101DB0000022FF213E3171180A701722A256012A13
:101DC00000D000224A704178E17581782176C1788F
:101DD00061760179A1764179E176807920770722D1
:101DE00030993000863002F03BFE06AB0922042118
:101DF000300003F0B2FE0100BBD109201F21615663
:101E0000491E0AD0491E19D0491E012966D9891ECA
:101E10006AD0491E052975D987E0102230008D301F
:101E200002F048FE002210213000AD3003F0B3F97B
:101E300000282CD5002302229E49A0E0B8689E49C4
:101E4000884201D3FEF76FFD05900598069006AB1A
:101E500004220521300003F080FE01002ED104226F
:101E600005A930008D3002F0FBFD0C22002130006E
:101E7000913002F01FFE002210213000AD3003F03F
:101E80008AF9002803D5002302228C4977E030002C
:101E90001930049020780390300020300290E079CF
:101EA000019030008630009033007F333200AD3235
:101EB00031008D3117A803F0FBF9010064D117A997
:101EC0001EA804F0EEFB01005ED11EAA1121300015
:101ED00003F053FE010057D1082124E07C22B554C1
:101EE000A0736846057606E001217C22B154A073F8
:101EF00001206946087606AB01220621300003F076
:101F00002CFE41E03A005032390030311EA804F076
:101F100035FD010038D11EAA4121300003F02DFE0D
:101F2000010031D11421A1732EE000230222644963
:101F300025E0A57306AB1EAA3000FEF705FE23E0E0
:101F4000A57306AB32003098FEF722FE1CE000209D
:101F50001AE0A57306AB1EAA31003098FEF706FE04
:101F600012E002214056401E052801D855480BE0DA
:101F700000230222544902E0002302225349022096
:101F800002F056FD8120C00031B0F0BD0C0400000D
:101F900003040000F0920020F0B5A3B00500170084
:101FA00018002E002636002400228A56012A04D06A
:101FB00076D3032A69D01AD372E08956032914D143
:101FC00000214156022905D0032903D0062901D05A
:101FD000082908D134706B4611AA00214156280007
:101FE000FEF789FD64E0A34862E0A34860E0017861
:101FF000032906D0052924D00B2929D00E2929D060
:102000003CE03A00010028009D3004F053FB010041
:1020100010D12900AD3111A804F05DFB010047D1BA
:1020200011AA1121280003F0A8FD010040D10A21C6
:1020300031703DE034706B4611AA2800FEF784FD34
:1020400036E034706B462A003900FEF7A1FD2FE020
:1020500000202DE00D21715601290FD1112171565B
:10206000022901D0042909D14078694608706B46DD
:1020700001221421280003F070FD19E034706B4632
:1020800011AA2900FEF772FD12E002200856401E38
:10209000052801D80B480BE000230222774902E013
:1020A000002302227649022002F0C2FC8120C000F7
:1020B00023B0F0BDBB13000040420F000B14000022
:1020C0006E14000014040000B2140000BC140000E0
:1020D000F0B5ABB00500170018002C0018348126AD
:1020E000F60000220023CB56012B05D003D3032B8F
:1020F00000D1AAE07DD3B3E0C956032904D0052955
:102100001DD014295DD072E000214156012903D170
:102110006423E356002B07D0022905D0032903D0FE
:10212000062901D0082908D1A27309AB1AAA0021F7
:1021300041562800FEF7DFFC99E04E4897E0002169
:1021400041566422A256914201D0F01C8FE0102229
:10215000411C28008D3002F083FC2F00AD37002297
:102160001021380003F017F8002803D500230222BD
:10217000A84978E0280019300490207803902800BE
:1021800020300290E07901902800863000902B00EA
:102190007F333A0029008D3105A803F089F801004A
:1021A00065D105A91AA804F07CFA01005FD11AAA2A
:1021B0001121280003F0E1FC010058D10821A1738E
:1021C00055E01B216156012911D11F2161560329B8
:1021D00001D004290BD101001AA804F018FC010059
:1021E00045D11AAA0221280003F0C7FC3FE022488B
:1021F0003DE00178052904D00B2909D00E2909D02A
:102200001CE0A27309AB2A003900FEF7C1FC2EE0E6
:1022100000202CE01B21615601290FD11F2161569E
:10222000022901D0042909D1407809A9087009AB15
:1022300001221421280003F090FC18E0A27309ABDE
:102240001AAA2900FEF792FC11E002200856401E4F
:10225000052801D870480AE0002302226F4902E0F5
:10226000002302226E49022002F0E2FB30002BB074
:10227000F0BD00000C040000030400008315000002
:102280008D150000F0B5B3B00500160018002F0042
:102290002637002400228A56012A05D003D3032AB8
:1022A00000D1A1E011D3AAE0895603290BD1002166
:1022B0004156082905D13C7011AB22AA0021415694
:1022C00076E05848A3E05848A1E00178042904D0FA
:1022D000052979D00B295BD07FE03200010028006E
:1022E000BD3004F00FFA060066D1280019300490C2
:1022F000287E0390280020300290E87F019028007B
:10230000863000902B007F332A00BD3229008D31AA
:1023100005A802F0CDFF060079D1102229009D31D9
:1023200005A802F0B5FB01283ED10C203856002844
:102330000BD12B00AD332A00BD3229008D3128008E
:102340008D3003F00CF8060061D1B87B102806DA56
:1023500010210A1A002128188D3002F0ABFB09AEBB
:102360002888308008220021B01C02F0A3FB748171
:10237000102229008D3130000C3002F071FB09A8C9
:1023800004F008FF060004D1A74845600B20387010
:1023900021E03C7011AB22AA08212800FEF7ABFB1C
:1023A000010034D1300032E03C7011AB22AA04218C
:1023B0002800FEF7A0FB2AE03C7011AB22AA010026
:1023C0002800FEF7C1FB22E03C7011AB2A0031006F
:1023D000FEF7DEFB1BE0002019E03C7011AB22AAE7
:1023E0002900FEF7C3FB12E002200856401E052814
:1023F00001D809480BE0002302228C4902E00023A7
:1024000002228B49022002F013FB8120C00033B06E
:10241000F0BD0000EA15000014040000871600005B
:10242000911600000C04000003040000F3B5A3B0F3
:1024300011001800239F26370025249A0023D25626
:10244000012A04D002D3032A2DD019D3E2E0249923
:10245000895603290ED100214156082908D13D7023
:1024600001AB12AA002141562398FEF744FBD8E0A5
:102470007048D6E0C91F022900D8C6E06E48D0E0F7
:102480000278052A02D00B2A20D005E03D7001AB6E
:10249000239AFEF77DFBC4E03D7001AB12AA23999D
:1024A000FEF764FBBDE06049022201AE249B9B560F
:1024B0005B1E07D05B1E012B27D99B1E022B00D869
:1024C0009AE0A4E0845E20004D6001D10020A8E0E5
:1024D0003D703480B5700C203856012801D1F2705F
:1024E00001E00120F07001AB04220D21239803F0DC
:1024F00034FB0400EBD101AB12AA08212398FEF7AC
:10250000FAFA0400E3D183208AE00C23FB56012B66
:1025100001D1F27001E00123F370249B9B56022B42
:1025200032D1438833800023F35E002B37D106235A
:10253000C05603001ED10120B0708324E400009433
:102540004D6001AB04220D21239803F006FB01002E
:1025500067D10098002845D10720397C014223D05B
:102560000C2038702399363123983830FEF7FCF967
:10257000200056E00128B27002D100240095DFE768
:10258000854804000090DBE7032B0AD140883080A7
:102590000020305E002802D10320B070EDE7B57056
:1025A000CBE700237D4937E0F97B014214D00D20B1
:1025B0003870B87B707023983521405C694608718B
:1025C000F7210140317001AB02220721239803F06B
:1025D000C4FA010025D1CBE73D7001A92398FEF78D
:1025E0008FFBF6E73D7001AB12AA08212398FEF796
:1025F00082FA0100BCD014E03D7001AB12AA0821A0
:102600002398FEF778FA04000BD1AB4809E00023C9
:10261000AA4901E00222AA49022002F009FA812017
:10262000C00025B0F0BD0000F09200208D17000022
:10263000971700000C04000003040000F4B5A4B0D8
:1026400006001F003500263500240020085601280A
:1026500005D003D3032800D181E014D398E00856B5
:1026600003280ED100203856082808D12C7001AB61
:1026700012AA002039563000FEF73DFA4DE091488D
:102680004BE0914849E03878411F5FD0491E04294A
:1026900002D9491F40D051E040B2FEF7C3F9694664
:1026A000087068460078002848D0684601783000F5
:1026B0003830FEF7D8F9002840D024A80288390025
:1026C00030003A30FEF777F9010030D1A87C694636
:1026D00009788843A874C0061ED101AA310036319A
:1026E0003000FEF734FB010017D1E87B400716D01D
:1026F0000D20287001A8A97B41703521715C6A46C4
:102700001171F7220A40027001AB0222072130004A
:1027100003F023FA010000D1002025B0F0BD2C7099
:1027200001A93000FEF7ECFA0100F5D0F5E72C70B6
:1027300001AB12AA3000FEF707FAEEE72C7001ABEE
:1027400012AA31003800FEF711FAE6E72C7001AB4F
:10275000320024A801883800FEF71AFADDE70220CB
:102760000856401E05280AD82C7001AB12AA082171
:102770003000FEF7C0F90100CFD15448CDE7002367
:1027800002225349022002F053F98120C000C4E71D
:10279000002302224F49F5E716040000A6180000A6
:1027A000F0B5A3B0050010001E002F00263700244E
:1027B00000228A56012A04D073D3032A5DD044D361
:1027C0006FE001200856032802D006280CD03AE01A
:1027D00000203056082805D13C706B4611AA002015
:1027E00031562CE0374864E007204221715C0140FB
:1027F000FA7B1040814201D037485AE02900353138
:1028000028003830FEF7B0F811AA31002800FEF792
:10281000FBF9010005D13C7069462800FEF770FA0B
:1028200047E0694608806B4602220121280003F038
:1028300094F901003DD13C706B4611AA0821280093
:10284000FEF759F935E0204833E03178052902D008
:102850000B2908D009E03C706B462A0001003000CB
:10286000FEF796F925E0002023E03C706B4611AAA4
:1028700029003000FEF77AF91BE002200856401EBE
:1028800005280AD83C706B4611AA08212800FEF7DB
:1028900032F901000DD10D480BE000230222B649A8
:1028A00002E000230222B549022002F0C1F8812093
:1028B000C00023B0F0BD0000170400000D19000097
:1028C000181900000C0400000304000014040000A8
:1028D000081A0000121A00000D040000F0B5C9B07B
:1028E000050016001800002400228A56012A05D08F
:1028F00003D3032A00D12AE115D333E189560329F2
:102900000FD100214156082909D126216C5406AB6C
:1029100037AA002141562800FEF7EDF82AE1984831
:1029200028E1984826E10178052900D1FFE00C292B
:1029300000D004E13300020027A80100203104F098
:1029400034F8010000D0E9E017AA27A98E4802F068
:1029500071FB002803D0002302228C4905E12022CC
:1029600017A92800CD3002F07BF8202227A92800E3
:10297000FD3002F075F8864A864937A803F0FEFF5D
:102980000100CFD137AA4121280003F0F6F8010059
:10299000C8D1FF203E302E180127280026301121F3
:1029A0004056801F052800D9B4E002A1095C490007
:1029B0008F4400BF0303663B667B68460471FF20BB
:1029C0001E302C1800221021200002F0E4FB002809
:1029D00003D5002302227049C7E0102200212800FD
:1029E000AD3002F067F8102200212800BD3002F05F
:1029F00061F801A8009023002A00FD32654902A871
:102A000002F052FD01000FD102A937A803F049FEE0
:102A1000010009D137AA1121280003F0AEF8010006
:102A200002D10F212622A954A4E0AE488068AE4905
:102A3000884201D3FDF777FF009004226946280001
:102A4000AD3002F00DF80C2200212800B13002F068
:102A500031F810222900AD312800BD3002F000F815
:102A6000377128007C30447028007C30877010203B
:102A7000262168540098069006AB0422052110E038
:102A80007C216C54377129007C314C7029007C31D9
:102A90008C701020262168546846047606AB01220B
:102AA0000621280003F059F864E03078010006D1CF
:102AB0007178002903D1002302228C4955E00128B6
:102AC00006D110228A492800AD3001F0C9FF05E087
:102AD000102200212800AD3001F0ECFF70780128B1
:102AE0000BD1F470B4701220262168540023002208
:102AF0001621280003F031F83CE0102200212800C4
:102B0000BD3001F0D7FFF470B77012202621685451
:102B100000202FE000230222764926E026216C5473
:102B200006AB37AA01002800FEF70EF822E02621A6
:102B30006C5406AB2A003100FEF72AF81AE0262171
:102B40006C5406AB37AA2900FEF710F812E00220F9
:102B50000856401E052801D867480BE000230222D2
:102B6000664902E0002302226549022001F060FF6D
:102B70008120C00049B0F0BDD51A0000DF1A000066
:102B80000C0400000304000060930020451B0000BB
:102B90004093002020930020741B0000F0B5A5B0E6
:102BA000050016001800002400228A56012A05D0CC
:102BB00003D3032A00D180E015D389E08956032985
:102BC0000FD100214156082909D126216C5402ABAE
:102BD00013AA002141562800FDF78DFF80E04948E7
:102BE0007EE049487CE00178042902D0052954D0D0
:102BF0005BE032000100FF202E30281803F082FD38
:102C0000010041D1FF201E30291813A803F063FDF5
:102C1000010065D113AA1121280002F0AEFF0100C6
:102C20005ED12F007D371326280026301121405613
:102C3000062802D0072807D022E03C7001207870D7
:102C400026202E5400204BE0FF201E302818009034
:102C5000FF202E302B182D4A2900FD3101A802F04B
:102C600012FD01003CD13C707C7026202E5401984E
:102C7000029002AB04221521280002F06EFF2FE023
:102C800000230222224926E026216C5402AB13AA1B
:102C900001002800FDF758FF22E026216C5402AB0A
:102CA0002A003100FDF774FF1AE026216C5402ABB4
:102CB00013AA2900FDF75AFF12E002200856401E11
:102CC000052801D80C480BE000230222A64902E0A7
:102CD00000230222A549022001F0AAFE8120C000A3
:102CE00025B0F0BDF092002040420F00EB1B000029
:102CF000FF920020221C0000140400005D1C000054
:102D0000671C00000C040000030400002093002056
:102D1000081D0000F6B5A9B005001E002F007D3784
:102D20000120002400228956012905D003D303295C
:102D300000D100E171D30AE129990956032904D091
:102D4000052917D0142951D065E0002030560128FC
:102D500002D17978002901D0082809D126202C54E5
:102D600006AB17AA002031562800FDF7C4FEF8E094
:102D70007F48F6E0797800294DD171562A00263235
:102D80005623D256914201D07A48EAE07870102258
:102D9000711C2800AD3001F063FE1022711C280068
:102DA000BD3001F05DFE387801284DD168460471D0
:102DB00000221021FF201E30281802F0ECF9002814
:102DC00003D5002302226C49C4E0FF204230295C75
:102DD0002800AD30FDF732FE69460871684600797B
:102DE000002853D1002302226449B3E078780028F8
:102DF00011D1280026300D21405601280BD1310079
:102E000017A803F004FE010004D117AA022128002C
:102E100002F0B3FEA5E0B348A3E03178032904D063
:102E200005295AD00E2962D07CE03978002979D161
:102E300038702AA80288310028009D3003F03AFC3F
:102E4000010041D17878012800D089E068460471FA
:102E500000221021FF201E30281802F09CF90028C3
:102E600003D500230222A04974E0FF204230295CF0
:102E70002800AD30FDF7E2FD69460871684600792B
:102E8000002803D100230222984963E001A80090A2
:102E9000FF201E302B182A00FD32954902A802F0AF
:102EA00003FB01005DD102A917A803F0FAFB0100A2
:102EB00057D117AA1121280002F05FFE010050D15E
:102EC00011212622A9544CE026216C5406AB17AAE6
:102ED00001002800FDF738FE43E026202C5406AB05
:102EE0002A002AA801883000FDF752FE39E0387820
:102EF000002817D1280026300D214056012811D175
:102F00002800263011214056092801D00A2809D16D
:102F100070786946087606AB01221421280002F079
:102F20001CFE1EE026202C5406AB17AA29003000F8
:102F3000FDF71CFE15E0299802214056401E052889
:102F400001D86C480DE0002302226B4902E0002307
:102F500002226A49022001F06BFD8120C00000E0DE
:102F600000202BB0F0BD0000421D00004C1D0000F1
:102F70000C0400000B040000B61D0000BE1D000084
:102F8000F0B5A9B005001700180000248126F6004E
:102F900000228A56012A05D003D3032A00D18DE0EE
:102FA00012D396E0895603290CD1002141560829F5
:102FB00006D126216C5406AB17AA0021415660E0C9
:102FC0004F488DE047488BE00178042902D005295D
:102FD00064D06BE03A000100FF202E30281803F087
:102FE00091FB010051D169460C71FF2042302F182E
:102FF00039782800AD30FDF721FD69460871684633
:103000000079002803D100230222B24964E001A81C
:103010000090FF202E302B18354A2900FD3102A8E0
:1030200002F042FA01005BD1102229009D3102A872
:1030300001F02EFD01281FD1FF201E30291817A8EE
:1030400003F049FB01004BD117AA1121280002F01F
:1030500094FD010044D13978491C39702A007D3231
:103060000123C9B215291470537001DB132100E04C
:1030700010212622A95433E026202C5406AB17AA8F
:1030800004212800FDF737FD2AE026216C5406AB09
:1030900017AA01002800FDF757FD21E026216C54F6
:1030A00006AB2A003900FDF773FD19E026216C54A8
:1030B00006AB17AA2900FDF759FD11E002200856BA
:1030C000401E052801D80B480AE00023022282494D
:1030D00002E0002302228149022001F0A9FC300015
:1030E00029B0F0BD030400002A1E0000321E0000BB
:1030F0002093002014040000AE1E0000B81E000043
:103100000C040000F4B5A4B005001E000127002443
:1031100000200856012805D003D3032800D1C2E0BF
:1031200063D3CBE00856032802D016280FD05AE00C
:1031300000203056022801D0082806D126202C5421
:1031400013AB02AA0020315630E06548C0E0FF20F2
:103150004030285C002846D169460C7106222900BF
:1031600019313000203001F093FC002801D15D4876
:10317000AEE0FF2140316F542A00FD3201A80090DB
:103180003300110028009D3002F08EF90100EFD1CC
:10319000102229009D313000103001F079FC002808
:1031A00008D126202C5413AB02AA04212800FDF7D5
:1031B000A2FC8DE0102231002800BD3001F050FC4F
:1031C000FF2040302818407801282CD100221021FF
:1031D000FF201E30281801F0DEFF002831D5002323
:1031E0000222BC496DE0BC4872E03078042802D06D
:1031F000052845D04EE0FF204030281840780028B0
:1032000048D1FF21403169184F7024A8028831004D
:10321000FF202E30281803F075FA010027D1FF2077
:103220004030285C012852D100221021FF201E309E
:10323000281801F0B0FF002803D500230222A74977
:103240003FE0FF201E30291802A803F044FA0100D5
:103250003ED17D202C5428007D304770132026213C
:10326000685402AA1121280002F087FC30E02621D0
:103270006C5413AB02AA01002800FDF765FC27E09F
:1032800026202C5413AB2A0024A801883000FDF717
:103290007FFC1DE026202C5413AB02AA290030002D
:1032A000FDF764FC14E002200856401E052801D8F2
:1032B0008B480DE0002302228A4902E0002302220B
:1032C0008949022001F0B4FB8120C00000E0002009
:1032D00025B0F0BD221F00009A1F0000A41F0000AF
:1032E0000C0400001A040000F6B5ADB0050018008B
:1032F0002C0018340427012100262D9A0023D256D1
:10330000012A05D003D3032A00D1CDE028D3D6E08B
:103310002D9A5256032A02D0152A0CD01EE0002105
:103320004156082905D1A6730AAB1BAA00214156B4
:10333000A0E06E48CCE02A007D325278002A0DD100
:103340000078002804D1A6730AAB1BAA0C2191E0D7
:1033500028007D3041707D20285C1AE05E48B7E08F
:103360000278052A00D190E00D2A02D17D22AA5CC4
:10337000002A00D091E07D22A9542EA90A880100DC
:1033800028009D3003F039FB010077D128007D3003
:103390004078012800D09AE0280020300490E0799D
:1033A000039028001930029020780190FF201E30F1
:1033B00028180090FF202E302B182A00CD3229002B
:1033C0008D312800ED3002F0A3F801001AD1280059
:1033D00020300590E079049028001930039020787F
:1033E00002902800803001902800AD300090FF202E
:1033F0001E302B1810302A182900ED3106A802F0D3
:10340000F2F8010064D1102229009D3106A801F0D4
:103410003FFB01282AD1280019300590207804901C
:10342000280020300390E079029028008730019036
:103430002800BD300090FF202E302B1810382A189D
:103440002900ED3106A802F0CEF8010040D106A90E
:103450001BA803F0C9FA01003AD11BAA11212800C8
:1034600002F08BFB010033D1A77331E0A6730AABE6
:103470001BAA0B212800FDF73EFB29E0A6730AAB2F
:103480001BAA2800FDF760FB22E0A6730AAB2A0006
:103490002EA90988FDF77CFB1AE0A6730AAB1BAACC
:1034A0002900FDF763FB13E02D9802214056401ED2
:1034B000052801D80A480BE002220D4901E002224A
:1034C000C049022001F0B4FA8120C00000E00020D1
:1034D0002FB0F0BD26200000030400006A20000089
:1034E00014040000BD200000C72000000C040000F0
:1034F0003B220000F0B5C9B00400160018000025FA
:1035000000228A56012A05D003D3032A00D144E1C0
:1035100015D34DE1895603290FD1002141560829C1
:1035200009D12621655407AB38AA00214156200055
:10353000FDF7E1FA44E1A44842E1A44840E1017802
:10354000052900D117E10B2947D00C2900D01CE137
:103550003300020028A80100203103F026FA010000
:1035600000D0FFE09A4F18AA28A93800703001F067
:1035700061FD002803D00023022296491BE120228E
:1035800018A92000CD3001F06BFA202228A92000D4
:10359000FD3001F065FAFF203E302618200026306D
:1035A00011214056801F012808D9801E16D0401EC8
:1035B000012874D9801E00D181E0CFE010220021C3
:1035C0002000AD3001F076FA102200212000BD303D
:1035D00001F070FA152026216054D4E06846057188
:1035E000B8687D49884201D3FDF79DF902900298A1
:1035F000079007AB04220521200002F0AEFA01007B
:103600005CD1042202A92000AD3001F029FA0C227D
:1036100000212000B13001F04DFA10222100AD311F
:103620002000BD3001F01CFA012030710022102171
:10363000FF201E30201801F0AEFD002803D5002326
:103640000222A849B7E031792000AD30FDF7F6F944
:103650006946087168460079002803D100230222D8
:10366000A149A8E001A80090FF201E3023182200E5
:10367000FD323900303103A801F016FF01001DD1E1
:1036800003A938A803F00DF8010017D138AA1121B9
:10369000200002F072FA010010D119215BE07C21B8
:1036A0006554012030711820262160546846057742
:1036B00007AB01220621200002F04FFA80E03078AB
:1036C000010006D17178002903D100230222874925
:1036D00071E0012807D1102239000F312000AD30F0
:1036E00001F0BEF905E0102200212000AD3001F00C
:1036F000E1F9707801280BD1F570B5701B202621F7
:103700006054002300221621200002F026FA57E020
:10371000102200212000BD3001F0CCF90022102140
:10372000FF201E30201801F036FD002803D50023AD
:1037300002226F493FE0FF201E30211838A802F016
:10374000CAFF01003CD138AA1121200002F015FA6D
:10375000010035D11C212622A15431E00023022290
:10376000644928E02621655407AB38AA01002000EF
:10377000FDF7EAF924E02621655407AB2200310069
:10378000FDF706FA1CE000201AE02621655407AB7D
:1037900038AA2100FDF7EAF912E002200856401E7F
:1037A000052801D854480BE000230222534902E0C7
:1037B000002302225249022001F03AF98120C00080
:1037C00049B0F0BD452200000C04000003040000D5
:1037D000F0920020B022000040420F00F0B5A3B0EC
:1037E0000500170018008126F600002400228A56E2
:1037F000012A04D06DD3032A60D015D369E089561D
:1038000003290FD100214156082909D126216C54E2
:103810006B4611AA002141562800FDF76CF95FE0C4
:10382000B0485DE0B0485BE00178032904D0052989
:1038300032D00B2938D039E03A00010028009D3001
:1038400002F038FF01001ED1FF201E302C1800228C
:103850001021200001F09FFC002803D50023022244
:10386000A24939E0210011A802F035FF010037D14B
:1038700011AA1121280002F080F9010030D116218F
:103880002622A9542CE026216C546B4611AA010073
:103890002800FDF759F923E026216C546B462A00D5
:1038A0003900FDF775F91BE0002019E026216C5462
:1038B0006B4611AA2900FDF759F911E002200856BC
:1038C000401E052801D80C480AE00023022288493E
:1038D00002E0002302228749022001F0A9F830000B
:1038E00023B0F0BD042300000D2300004B23000093
:1038F0007F2300009923000014040000DD23000052
:10390000E7230000F0B5B1B006001700180034003E
:103910001834002500228A56012A05D003D3032A31
:1039200000D1C9E011D3D3E0895603290BD100217E
:103930004156082905D1A5730FAB20AA0021415695
:1039400034E06848CCE06848CAE00178042906D031
:10395000052900D1A0E00B2900D1A4E0A5E03A00A0
:103960000100FF202E30301802F0CCFE010000D004
:103970008BE069460D76B04F06A80090FF202E30F0
:1039800033183A0030323100FD310BA801F08CFDC4
:1039900001000ED1102231009D310BA801F078F802
:1039A000002807D1A5730FAB20AA04213000FDF732
:1039B000A2F895E0FF201E3035181F20205606285B
:1039C00002D0072844D05CE03700ED3730001930D2
:1039D000049020780390300020300290E07901902C
:1039E000FF202E30301800902B003200CD323100F5
:1039F0008D31380001F08CFD010071D1300019309B
:103A0000059020780490300020300390E0790290F7
:103A10003000803001903000BD300090FF202E300B
:103A200033182A00390007A801F0DDFD010057D145
:103A300007A920A802F0D8FF010051D120AA112126
:103A4000300002F09AF801004AD11D21A17347E02D
:103A5000FF202E30301800902B003200FD3239004C
:103A6000303101A801F00FFE010039D11720A073F9
:103A700001980F900FAB04221521300002F06DF871
:103A80002EE0002302226D4925E0A5730FAB20AA8A
:103A90003000FDF759F823E0A5730FAB3200390071
:103AA000FDF776F81CE000201AE0A5730FAB20AA02
:103AB0003100FDF75BF813E002200856401E052890
:103AC00001D85F480CE0002302229721890102E01F
:103AD000002302225B49022000F0AAFF8120C000DF
:103AE00031B0F0BD0C040000030400004B240000C2
:103AF0009E240000A8240000F0B5ADB0050017001A
:103B000018002C00183400228126F6000023CB5622
:103B1000012B04D002D3032B7AD063D383E0C956A0
:103B2000032902D015290CD05AE00021415608295A
:103B300005D1A2730AAB1BAA0021415608E0AA488E
:103B400078E00078002807D1A2730AAB1BAA0C21E9
:103B50002800FCF7D0FF6DE0FF201E302F1810303A
:103B60002E18280019300490207803902800203067
:103B70000290E079019000963B002A00CD322900A6
:103B80008D312800ED3001F0C3FC010052D1280036
:103B90001930059020780490280020300390E079B7
:103BA00002902800803001902800BD300090330042
:103BB0003A002900ED3106A801F015FD010039D1C8
:103BC00006A91BA802F010FF010033D11BAA112186
:103BD000280001F0D2FF01002CD11D21A17329E0A2
:103BE000824827E00178052902D00B2907D008E098
:103BF000A2730AAB2A003900FCF7CAFF1AE00020C2
:103C000018E0A2730AAB1BAA2900FCF7AFFF11E072
:103C100002200856401E052801D809480AE0002362
:103C20000222734902E0002302227249022000F0BE
:103C3000FFFE30002DB0F0BDF09200207D25000089
:103C400014040000CA250000F0B5A9B0050010005A
:103C50001C002E0026368127FF0000220023CB56B1
:103C6000012B05D003D3032B00D1A9E07CD3B2E014
:103C700001200856032804D0052813D0142861D049
:103C800070E000202056012801D0082808D13270A9
:103C900006AB17AA002021562800FCF72CFFA1E054
:103CA00051489FE068460271002020565621715607
:103CB000884201D0F81C95E01022611C2800AD302C
:103CC00000F0CEFE1022611C2800BD3000F0C8FEBE
:103CD000FF201E302C1800221021200001F05BFA7A
:103CE000002803D500230222884977E0FF204230D4
:103CF000295C2800AD30FCF7A1FE694608716846D2
:103D00000079002803D100230222814966E001A83E
:103D1000009023002A00FD327E4902A801F0C4FB76
:103D200001005FD102A917A802F0BBFC010059D124
:103D300017AA1121280001F020FF010052D11921FA
:103D400031704FE00D20305601280BD1210017A80B
:103D500002F05DFE010045D117AA0221280001F002
:103D60000CFF3FE021483DE02178052904D00B29D4
:103D70000AD00E290AD01BE0327006AB2A000100DF
:103D80002000FCF705FF2DE000202BE00D20305631
:103D900001280DD1112030560A2809D160786946D2
:103DA000087606AB01221421280001F0D6FE19E0A6
:103DB000327006AB17AA29002000FCF7D7FE11E0ED
:103DC00002200856401E052801D853480AE0002367
:103DD0000222524902E0002302225149022000F04F
:103DE00027FE380029B0F0BD0C04000003040000D9
:103DF000932600009D260000F0B5A3B00500170033
:103E000018002E002636002400228A56012A04D0EB
:103E100071D3032A64D014D36DE0895603290ED1DF
:103E200000214156082908D134706B4611AA00219F
:103E300041562800FCF75FFE65E03A4863E03A48E7
:103E400061E00178032906D0052925D00B292AD065
:103E50000E292AD03DE03A00010028009D3002F0F2
:103E600029FC010011D1FF201E30291811A802F0F1
:103E700032FC010047D111AA1121280001F07DFE7A
:103E8000010040D11A2131703DE034706B4611AA17
:103E90002800FCF759FE36E034706B462A003900E2
:103EA000FCF776FE2FE000202DE00D217156012950
:103EB0000FD111217156082901D00A2909D1407862
:103EC000694608706B4601221421280001F045FE66
:103ED00019E034706B4611AA2900FCF747FE12E086
:103EE00002200856401E052801D80B480BE000238D
:103EF00002229C4902E0002302229B49022000F09A
:103F000097FD8120C00023B0F0BD0000FF26000017
:103F10000827000020930020140400009B270000C5
:103F2000A52700000C04000003040000F4B5B2B0A3
:103F3000050018002C0018348127FF0000260022FD
:103F40008A56012A05D003D3032A00D1F6E011D303
:103F5000FFE0895603290BD100214156082905D1DC
:103F6000A67320AB0FAA00214156CBE07F48F7E0B3
:103F70007F48F5E00178042906D0052900D1CCE07E
:103F80000B2900D1D1E0D2E032A90A880100FF203C
:103F90002E30281802F0B6FB010000D0B6E06946CA
:103FA0000E76FF204230295C2800AD30FCF746FD3C
:103FB000694608766846007E002803D10023022265
:103FC0006C49C9E006A80090FF202E302B186A4AE1
:103FD0002900FD3107A801F067FA0100C9D11022BC
:103FE00029009D3107A800F053FD012800D085E08D
:103FF000FF204230285C401CFF21423168542439A4
:104000006E18C0B2152842DB2F00ED37280019309A
:10401000049020780390280020300290E0790190ED
:10402000FF202E302818009033002A00CD322900BE
:104030008D31380001F06CFA010018D128001930D8
:10404000059020780490280020300390E0790290B9
:104050002800803001902800BD300090FF202E30D5
:104060002B18320039000BA801F0BDFA010077D1FE
:104070000BA90FA802F0B8FC010071D10FAA112101
:10408000280001F07AFD01006AD11D2134E00022F0
:104090001021300001F07FF8002803D50023022210
:1040A0008A4959E0FF204230295C2800AD30FCF7F6
:1040B000C5FC694608766846007E002803D10023C7
:1040C0000222834948E006A8009033002A00FD320E
:1040D000294907A801F0E8F9010041D107A90FA873
:1040E00002F0DFFA01003BD10FAA1121280001F0F4
:1040F00044FD010034D11921A17331E0A67320AB36
:104100000FAA04212800FCF7F6FC29E0A67320ABD7
:104110000FAA2800FCF718FD22E0A67320AB2A00A6
:1041200032A90988FCF734FD1AE0002018E0A673D4
:1041300020AB0FAA2900FCF719FD11E00220085658
:10414000401E052801D863480AE000230222624984
:1041500002E000230222B649022000F069FC380088
:1041600033B0F0BD6B280000752800000C0400007F
:1041700003040000DB28000020930020F0B5A5B068
:10418000050010001E008127FF00002400228A562F
:10419000012A05D003D3032A00D183E068D38CE041
:1041A00001200856032802D016280FD05EE0002018
:1041B0003056022801D0082806D126202C5402AB04
:1041C00013AA0020315628E09A487DE069460C7118
:1041D0000622290019313000203000F059FC002857
:1041E00001D1954870E02900FD3101A8009033000D
:1041F0000A0028009D3001F057F9010064D1102217
:1042000029009D313000103000F042FC002808D118
:1042100026202C5402AB13AA04212800FCF76BFCC7
:1042200052E0102231002800BD3000F019FCFF20C0
:104230001E302C1800221021200000F0ACFF0028B6
:1042400003D5002302227D493AE0210013A802F0A1
:1042500042FA010038D113AA1121280001F08DFC87
:10426000010031D11C212622A9542DE074482BE0F5
:104270003178052902D00B2909D00AE026216C5497
:1042800002AB2A0001003000FCF782FC1CE0002099
:104290001AE026202C5402AB13AA29003000FCF7A8
:1042A00065FC11E002200856401E052801D8094887
:1042B0000AE000230222634902E00023022262494D
:1042C000022000F0B5FB380025B0F0BD3829000011
:1042D0004129000014040000AC290000F0B5ADB085
:1042E00006001700180035001835002400228A56F1
:1042F000012A05D003D3032A00D184E014D38DE032
:10430000895603290ED100214156082908D1AC73E2
:104310000AAB1BAA002141563000FCF7ECFB85E0FC
:10432000444883E0464881E00178042904D0052907
:1043300059D00B295ED05FE03A000100FF202E30FB
:10434000301802F0DFF9010046D13700ED37FF20C9
:104350001E30341830001930049028780390300053
:1043600020300290E8790190FF202E303018009024
:1043700023003200CD3231008D31380001F0C8F811
:10438000010053D130001930059028780490300096
:1043900020300390E87902903000803001903000A6
:1043A000BD300090FF202E3033182200390006A8BF
:1043B00001F019F9010039D106A91BA802F014FB7C
:1043C000010033D11BAA1121300001F0D6FB0100FE
:1043D0002CD11D21A97329E0AC730AAB1BAA3000B4
:1043E000FCF7B2FB22E0AC730AAB32003900FCF7F9
:1043F000CFFB1BE0002019E0AC730AAB1BAA310015
:10440000FCF7B4FB12E002200856401E052801D834
:104410006B480BE0002302226A4902E000230222DB
:104420006949022000F004FB8120C0002DB0F0BDDE
:10443000B62900000C0400001A040000302A000015
:1044400003040000862A0000902A0000F0B5B5B0F1
:104450000500160018002F002637002400228A5677
:10446000012A05D003D3032A00D194E011D39DE0A3
:10447000895603290BD100214156082905D13C70EA
:1044800012AB23AA0021415669E0504896E05048FB
:1044900094E0017805296ED00B2973D00D2973D1D2
:1044A0003200010028009D3002F0A7FA06005AD120
:1044B000280020300590E87F0490280019300390F0
:1044C000287E02902800873001902800AD300090AF
:1044D000FF201E302B1810302A182900ED3106A8B5
:1044E00001F081F8060069D1102229009D3106A84B
:1044F00000F0CEFA01282ED1B87B102806DA102160
:104500000A1A002128188D3000F0D4FA0AAE288843
:10451000308008220021B01C00F0CCFA74811022F7
:1045200029008D3130000C3000F09AFA0AA802F010
:1045300031FE060004D1274845600B20387021E089
:104540003C7012AB23AA08212800FCF7D4FA010022
:1045500034D1300032E03C7012AB23AA0B2128008A
:10456000FCF7C9FA2AE03C7012AB23AA010028002C
:10457000FCF7EAFA22E03C7012AB2A003100FCF7AB
:1045800007FB1BE0002019E03C7012AB23AA2900B6
:10459000FCF7ECFA12E002200856401E052801D86C
:1045A00007480BE0002302220B4902E0002302220D
:1045B0000A49022000F03CFA8120C00035B0F0BD6D
:1045C00014040000612B00006B2B00000C040000A1
:1045D00003040000F0920020592C0000632C00001E
:1045E000F1B594B01D0003AC00200856012803D09B
:1045F000032800D102E128E1002608560A380528E0
:1046000000D9F6E001A1095C49008F44020D1AAF00
:10461000CDDA2A0010322900A01C00F01FFF010093
:1046200000D01BE12680F8E000220821A01C00F049
:10463000B2FD002803D500230222712109E1268062
:10464000F7E03F2700202856401E012802D9801E8F
:1046500048D084E000220621E01C00F09CFD0028E8
:1046600003D5002302228921F3E0E078002810D14D
:10467000207900280DD1607900280AD1A07900287E
:1046800007D1E079002804D1207A384201D10120F5
:10469000E070207AE178FF2911D12179FF290ED12C
:1046A0006179FF290BD1A179FF2908D1E179FF298F
:1046B00005D13F2101403F2901D1FE21E1700021B8
:1046C0006956012905D1C021014321720120A07042
:1046D000268000202856022844D1207A07402772DD
:1046E000022039E0A868002826D100220321A01D5D
:1046F00000F051FD002803D500230222C321A8E0C9
:10470000207A4106490E402008432072A1790029F1
:1047100006D1E179002903D1384201D10121A171EB
:10472000A179FF2910D1E179FF290DD107403F2F51
:104730000AD1FE20A07107E00078A071A868407837
:10474000E071A86880782072A21D6968E01C00F002
:1047500032FE010011D10320A070268002E0404803
:104760002080A67003AB0A22102165E02A001332D4
:104770002900684600F01FFE01006FD168460178ED
:104780002A7C914207D141786A7C914203D180789A
:10479000A97C884203D08C20C000208000E02680C5
:1047A00003AB0222112147E02B8A6A692900A01C71
:1047B00000F031FE010051D1268003AB0A22122104
:1047C0003AE02B8A6A69290001A800F024FE010062
:1047D00044D1082201A92800183000F059F9002816
:1047E00002D12048208000E0268003AB0222132162
:1047F00022E000230222AC2149002AE002200856D0
:10480000072802D008280CD01AE0E888208010225F
:1048100029000831A01C00F023F903AB12220E215D
:104820000AE0E8882080102229000831A01C00F04E
:1048300017F903AB0A220F21149801F08EF90DE04D
:1048400000230222FF217C3103E000230222FF210A
:104850008431062000F0ECF88120C00015B0F0BDD6
:104860000604000061040000F0B59BB007001D00C5
:104870000020002600228A56012A02D0032A36D0C0
:10488000C6E001200856072805D02CD3092800D1FE
:1048900093E01BD327E038886946888008222900E6
:1048A00001A8801C00F0DCF8288901A948811022A9
:1048B00029000A3101A80C3000F0D2F801A802F05A
:1048C00069FC060045D15848476042E0388869468F
:1048D00088801022290001A8801C00F0C1F801A8DE
:1048E00002F023FC9DE000230222882194E00222B2
:1048F00009AC8956491E052900D985E001A35B5CF6
:104900005B009F44020B28327076A95E002946495D
:104910004860E7D069882180E27024E069882180BE
:10492000E2700021615E00290AD1062028560100AC
:1049300001D1012004E00128A27002D03B4E00E02A
:10494000A07009AB04220D21380001F006F9010026
:1049500067D1300065E069882180E2700021615EE6
:10496000002900D10320A07047E02721795C0129AC
:104970002AD1272178546B4600AA521C00A9891C11
:10498000380001F075F906004BD16846807801289F
:1049900013D168464078002805D13800273003211C
:1049A0004056012809D06846007800280CD138000C
:1049B000273002214056012806D138886946888070
:1049C00001A802F0D1FB2CE0687BA97B0906090C49
:1049D000084320810822691D09A800F041F809ABAD
:1049E0000A220C210CE006216E5E310019D02680CF
:1049F00001E0E9882180A070E27009AB04220D215A
:104A0000380001F0AAF80CE00023FF216C3103E02C
:104A100000230222BA214900052000F009F8812074
:104A2000C0001BB0F0BD00BFF092002016040000D3
:104A300070B50A4C258AEE00A61930807180B280CC
:104A4000F380608A010001D0401E60826D1CADB20F
:104A5000022D00DB0025258270BD00BFB0070020BD
:104A600000B5002A05D00B780370401C491C521E6B
:104A7000F7E700BD00B5002A09D08018401E002AC3
:104A800005D00B780370401E491C521EF7E700BD8D
:104A900030B503000120002A0AD01C780D78AC4202
:104AA00002D00024200003E0491C5B1C521EF2E7E8
:104AB000C0B230BD00B5002A02D0521E8154FAE7C0
:104AC00000BDFFFF80B50B4803F035FC01BD7CB590
:104AD00005000C00160004F07CF9102001900094F1
:104AE000102332002900034803F02BFC04F062F984
:104AF00073BD000000800540F8B59AB007000D00B6
:104B000016000DAA11A9300000F040F968462900EE
:104B10000F310909017068460078002806D101208C
:104B2000694608700020694648700AE02807000FAF
:104B3000002803D101206946487002E00020694640
:104B400048706846407800280AD005AA11A968462E
:104B50000078102358433818103800F082F90FE01D
:104B60002A07120F15A968460078102358433818F1
:104B7000103800F062F905AA0DA915A800F071F926
:104B800000200400102C04D2002001A90855641C48
:104B9000F8E70020040068460078401E84420DD2E9
:104BA00009AA10206043391801A800F05AF901AA97
:104BB000310009A8FFF78BFF641CECE709AA05A9DF
:104BC00001A800F04EF901AA310009A8FFF77FFF04
:104BD00000200400102C05D201A8005D1A99085588
:104BE000641CF7E71BB0F0BDF8B59EB007000D00E0
:104BF000160011AA15A9300000F0C8F8684629006F
:104C00000F310909417068464078002806D101201B
:104C1000694648700020694608700AE02807000FBE
:104C2000002803D101206946087002E0002069468F
:104C300008706846007800280AD01022390001A8C0
:104C4000FFF718FF09AA15A901A800F00AF910E05A
:104C50002A07120F390001A8FFF70CFF2A07120FCD
:104C600019A901A800F0E9F809AA11A919A800F0EA
:104C7000F8F800200400102C04D2002005A90855E3
:104C8000641CF8E70020040068464078401E844217
:104C900015D210222000401C10214843281A391830
:104CA00001A8FFF7E7FE0DAA01A905A800F0D9F8B1
:104CB00005AA31000DA8FFF70AFF641CE4E70DAA5E
:104CC00009A905A800F0CDF805AA31000DA8FFF745
:104CD000FEFE00200400102C05D205A8005D1E99E0
:104CE0000855641CF7E71FB0F0BDFFB589B0149FED
:104CF000159C169E179D04F06CF81898C00719D5DE
:104D0000EDB2079506961020059004976846008E30
:104D100003900B98029013A80078019012980090CD
:104D20006846038D22000999374803F02CFD08A935
:104D3000087018E0EDB207950696102005900497CC
:104D40006846008E03900B98029013A8007801909B
:104D5000129800906846038D220009992A4803F0B2
:104D6000EFFC08A9087004F025F808A800780DB039
:104D7000F0BD10B5D2B2002A07D003780C785C40A1
:104D80000470401C491C521EF4E710BDF0B591B0F0
:104D900007000D00160008A81C49102201F076FE3D
:104DA00000200400102C04D200200CA90855641C1B
:104DB000F8E704AA39000CA8FFF789FE6846007CD2
:104DC000000604D4290004A800F022F808E069468F
:104DD00004A800F01DF82A0008A9684600F041F870
:104DE0002878000604D43100280000F011F808E00B
:104DF0006946280000F00CF8320008A9684600F067
:104E000030F811B0F0BD00000080054024CA020057
:104E100030B500230F242200002A0DD4845C6400E6
:104E20008C548C5C1C438C54845C80252C40E4B2F4
:104E3000E4092300521EEFE730BD10B50024230023
:104E4000102B0DD2934202D2C45CCC5406E09342A4
:104E500002D18024CC5401E00024CC545B1CEFE749
:104E600010BD30B500242300102B05D2C45CCD5CEE
:104E70006540D5545B1CF7E730BD10B50400002039
:104E80005821605400206065200004F041F810BDF6
:104E9000F8B506000D001400706D001970655820FB
:104EA000305C001940280ED2220029005820305CC6
:104EB00030181430FFF7D4FD5820305C2100401822
:104EC000582170543BE05820305C002819D0402015
:104ED0005821715C471AFFB23A0029005820305C13
:104EE00030181430FFF7BCFD3200012130001430BF
:104EF00000F0CAF8FFB2ED19FFB2E41B0020582100
:104F000070546846A1090180320068460188280073
:104F100000F0BAF86846008840214143641A6846A8
:104F20000088402141436D18002C08D020005821F2
:104F300070542200290030001430FFF791FDF1BDBC
:104F4000F8B504000F001600320039002000FFF70A
:104F50009FFF5820205C06008020A1190875761C50
:104F60005820205C38280EDB4020821B0021A0192D
:104F70001430FFF79FFD220001212000143000F0C3
:104F800083F8002006004020821B0021A019143065
:104F9000FFF790FD606DC000606504222100543170
:104FA00020005030FFF766FD220001212000143060
:104FB00000F06AF800200500052D0CD2042068439B
:104FC0002058009004226946042068432018FFF707
:104FD00051FD6D1CF0E7F1BD70B504000E00150029
:104FE0002000FFF74AFF2A0031002000FFF7A8FF4A
:104FF00070BDF8B506000C0072460021214800681B
:1050000004F091F80500002D02D1012007000EE008
:105010002A002100300004F009F9002802D0022003
:10502000070001E000200700280004F0B1F8380074
:10503000C0B2F2BDF8B507000E001500724600219F
:105040001048006804F06FF80400002C03D1012020
:105050006946087011E023002A003100380004F08E
:105060002DF9002803D002206946087002E00020D4
:1050700069460870200004F08BF868460078F2BD9D
:1050800000000000B4CB020070B504000D00160053
:10509000002D08D003F09DFE32002900200003F00F
:1050A00042FF03F087FE70BD0121C206D20E91407F
:1050B000764A1160704710B50400200040B2FFF737
:1050C000F3FF10BD10B596B0002401A804F023F939
:1050D000802040001590F02000031490002001A9CA
:1050E00088709620C00001A9888069490D2004F0CD
:1050F00015FD01A9674804F04BFB002802D00120F0
:10510000040024E004226946624804F091FB002870
:1051100001D0012004005F480068400508D45E48C3
:105120000078002804D101205B49087003F051FE8B
:105130005A48006807218843584908600D20FFF746
:10514000BAFF574800680721014355480160E4B29F
:10515000002C03D10098401C04F05AFD2000C0B27E
:1051600016B010BD10B582B00400002C07D004F0BA
:1051700057FD0090042269462000FFF771FC13BD23
:1051800010B5040001204749086014222100464858
:10519000FFF766FC10BDF0B597B007000D001600D4
:1051A000002E02D001203F4908603E4800683F4978
:1051B000884202D1FF2005004CE03A480068401CBC
:1051C00038490860002E0CD000200400142C13D2A3
:1051D0003548005D315D4018694609190875641C41
:1051E000F4E700200400142C06D22F48005D694625
:1051F00009190875641CF6E7142268460100143189
:105200006846FFF7E9FE28480068401C2649086008
:1052100000200400052C0ED223480421614340588D
:10522000694604226243895840181F490422624398
:105230008850641CEEE7EDB2152D01DB142005004B
:1052400000200400EDB2AC4204D26846005D38553F
:10525000641CF7E7EDB2280000B217B0F0BD80B5CE
:105260000E480068072188430C4908600948006817
:10527000400508D508480078002804D000200649D9
:10528000087003F097FD01BD0000000000E100E0A0
:105290005F52000000900240249C0020B490024025
:1052A000B8900240AC0800208C990020A086010034
:1052B00070B58CB0050014001E00002D08D100232D
:1052C000022267210420FFF7B3FB8120C00044E0E5
:1052D000102208A8FFF7CEFB1022210004A8FFF738
:1052E000C9FB01206C4611990140E17313990840F4
:1052F000A07307223100E01DFFF7BCFB07221099C5
:105300006846FFF7B7FB102204A96846FFF731FD96
:1053100004AA08A96846FFF7DAFB062214992000C0
:105320000A30FFF7A7FB06221299201DFFF7A2FB08
:10533000042200216846FFF7BDFB102204A968463D
:10534000FFF717FD04AA08A96846FFF7C0FB102263
:1053500004A92800FFF78EFB00200CB070BD70B5CB
:105360008CB0040015001E00002C08D1002302227E
:10537000CB210420FFF75CFB8120C00019E0102244
:1053800004A8FFF777FB0822310068460830FFF7D2
:1053900071FB082229006846FFF76CFB08AA04A9E4
:1053A0006846FFF794FB102208A92000FFF762FB74
:1053B00000200CB070BD70B58CB004000E0015005C
:1053C00008A8102104F070FC08A8A9784173697836
:1053D00081732978C173002C09D100230222FF2197
:1053E0000E310420FFF724FB8120C00011E01022C1
:1053F00031006846FFF73EFB04AA694608A8FFF79C
:1054000066FB04A8C17B2170817B6170407BA0702A
:1054100000200CB070BD70B588B0040016001D00EF
:10542000002C09D100230222A22149000420FFF709
:10543000FFFA8120C0000FE010226846FFF71AFB38
:1054400004AB6A4629003000FFF7CEFB082204A90E
:105450002000FFF70FFB002008B070BD30B58DB005
:1054600004001500002C09D100230222BD214900AF
:105470000420FFF7DDFA8120C00013E01022684607
:10548000FFF7F8FA1022290004A8FFF7F3FA08AA98
:10549000694604A8FFF71BFB102208A92000FFF7AC
:1054A000E9FA00200DB030BD70B59AB005000C00CF
:1054B00016001900002D09D100230222E021490025
:1054C0000420FFF7B5FA8120C0001FE010226846D3
:1054D000FFF7D0FA2022210008A8FFF7CBFA08AC8A
:1054E0002022310020002030FFF7C4FA1E980078F7
:1054F0004021605404AB6A46412108A8FFF7FCFA3A
:10550000102204A92800FFF7B5FA00201AB070BDD8
:10551000F1B59CB00F0014001E0009A87BA1102259
:1055200001F0B4FA684600BF7CA10A6802601C98CA
:10553000002801D0002F08D1002302227049042046
:10554000FFF776FA8120C0004BE005AB09AA2021C5
:105550002000FFF749FB00250DAC257004226946A9
:10556000601CFFF77DFA10223100601DFFF782FA00
:105570001022229920001530FFF77CFA012623988B
:1055800001210140252021540622249920002630A3
:10559000FFF770FA2598012101402C2021540622A2
:1055A000269920002D30FFF765FA33216654342008
:1055B000255401AB05AA35210DA8FFF79DFA10224D
:1055C00001A91C98FFF756FA267001AB05AA3521F0
:1055D0000DA8FFF791FA102201A93800FFF74AFA47
:1055E00000201DB0F0BD70B59AB0060014001D007B
:1055F000002E09D100230222A42189000420FFF7F4
:1056000017FA8120C0003CE010226846FFF732FA0A
:105610001022210008A8FFF72DFA08AC102229005B
:1056200020001030FFF726FA10221E9920002030AB
:10563000FFF720FA03221F9920003030FFF71AFAF3
:10564000012520982840332160540622219920000A
:105650003430FFF70FFA229805403A2025540622ED
:10566000239920003B30FFF705FA04AB6A4641213D
:1056700008A8FFF741FA102204A93000FFF7FAF951
:1056800000201AB070BD70B59EB005000C00160069
:105690001900002D08D1002302221A490420FFF727
:1056A000C7F98120C00028E0102201A8FFF7E2F925
:1056B0002022210009A8FFF7DDF909AC20223100E2
:1056C00020002030FFF7D6F9102222992000403028
:1056D000FFF7D0F905AB01AA502109A8FFF70CFA92
:1056E000042205A801000C316846FFF7C3F90098B1
:1056F000054904F0F4FA296000201EB070BD0000D6
:105700001D020000E702000040420F006C888391F8
:10571000AAF5A53860370BDB5A6083BE62746C65EE
:10572000022808DA8E49A622520050430818018840
:10573000A04A914200D10020704780B504F0C5FB1B
:10574000022808DA8649A622520050430818018828
:10575000984A914200D1002002BD00B5002808D02F
:105760007F49401AA621490004F0B6FAC0B20228C7
:1057700000DBFF2000BD0000F0B50600080002D0ED
:10578000002A00D1E7E0101D531C8B4C8B4D761E78
:10579000182E00D9E1E002A7BF5D7F00BF4400BF23
:1057A0002A0D222A4F6D7477C479C47B929FA1C4BD
:1057B000C4ACAEB4BBC2C4C4C90004295ED10020CD
:1057C000105602280ADA00201856022806DA0220AB
:1057D0001056022802DA03201056022800DBBAE035
:1057E0000020F0BD012949D10020115608005DD0EC
:1057F0000F298EE0092941D10021515605296DDA82
:1058000000215956022969DA02215156022965DA26
:1058100003215156022961DA0021405602285DDA3F
:1058200005201056022859DA9079C01F0A281AD28A
:10583000D07900091CD1107A000919D1D0E71129BB
:105840001CD100215156022948DA0029C8D100781C
:105850000006D17809044018917809024018197897
:1058600040189E49884276D20420111849780029B0
:1058700071D1401C1028B3D2F7E744295BD14220F4
:10588000105CF8210842D8E71A2954D1A8E710295A
:10589000FBE72029F9E70C294DD100215156491E7B
:1058A00001299DD9891E56D10168002953D040682D
:1058B000002895D08178090442781202891800786E
:1058C000081808E0162936D1507D0004117D090220
:1058D0004018D17C40184019A042E2D33BE018297F
:1058E00000E0202927D1108A010034D0F02832DAD4
:1058F00050690028CAD12EE00429C6E701291AD12F
:1059000000201056022804E0012914D1002010566E
:105910000528BBDB1FE001290DD110780100C8D09C
:1059200001288AE72629B0E7002904D1002AC0D03F
:1059300011E0032901D0B048F0BD1078010001D07A
:10594000012808D11878010001D0012803D1587826
:10595000C01F0A28A5D3A948F0BDA948F0BD000082
:105960002C7E002070B592B00E001500FFF7D8FE17
:10597000040007D1BD486946888001AB022201219D
:10598000002013E0684602210170002141708170FF
:1059900033002A0069462000FAF73AFD010007D0DB
:1059A0006946888001AB02220121200000F0D5F871
:1059B00012B070BDFFFF0000FEFF3F00FFFFBFFF02
:1059C000F0B593B0050000276E462878082808D067
:1059D0000E281FD00F2836D030283ED03E2844D085
:1059E00053E00220B070A888FFF7A7FE04004AD059
:1059F0000320307077702B006A7869462000FAF730
:105A000007FD05004AD06846858001AB02220121CE
:105A1000200041E0A888A94A904201D1052003E076
:105A2000521C904203D10620B070288918E0121F42
:105A3000904203D10720B0700024D9E7511C88425E
:105A400023D10820F7E7E8889D4988421DD101202D
:105A5000B070C0484468002C05E00320B070A888EE
:105A6000FFF76BFE0400C3D10DE0A87805280CD128
:105A70000420B070E87829790906090C0843FFF77B
:105A80005CFE0400B4D1B44D00E0B44D684685809E
:105A900001AB02220121002000F05FF8280013B0C2
:105AA000F0BD38B50500724600214C2003F03BFBE9
:105AB000040011D05420207048222900A01CFEF7B9
:105AC000CFFF2100A64804F059FD0121A548006838
:105AD00003F0C4FF002032BD052032BD40420F005C
:105AE00010B592B00400FFF738FEFF280ED06846CC
:105AF0000421017000210022827041700023694658
:105B00002000FAF785FC01000FD006E000230222F6
:105B1000AB490120FEF78CFFAA486946888001AB9B
:105B200002220121200000F018F812B010BD10B5BB
:105B3000040072460021082003F0F5FA00280BD07B
:105B400055210170446001009F4804F017FD0221B7
:105B50008448006803F082FF10BDF8B50C00150002
:105B60001E00FFF7FAFD7B490F68390003D03300B0
:105B70002A002100B8470020F2BD38B50D001400FE
:105B8000FFF7EBFDFF2804D02A00210004F03EFDC2
:105B900032BD002302228D490120FEF749FF8120FA
:105BA000C00032BD38B5002906D0002B04D0002A31
:105BB00002D0049C002C03D1002302228449EBE78D
:105BC000C578012D13D14569002D10D06D7EED07EC
:105BD0000DD501250D704169A825495D11704169F8
:105BE0009E22895C19704069807E207001E000204F
:105BF0000870002032BD000005040000060400000B
:105C000002040000F8B50400080016001F008125FA
:105C1000ED00002803D0002E01D0002F03D1002377
:105C200002226C491DE0E178012917D16169002940
:105C300014D04A7ED20711D510221B31FEF710FF77
:105C40000222616934313000FEF70AFF08226169DF
:105C50002C313800FEF704FF0020F2BD00230222A1
:105C60005D490120FEF7E4FE2800F2BD13040000A8
:105C700010B5002903D0002A01D0002B08D1002341
:105C8000022256490120FEF7D3FE8120C00010BD3C
:105C9000C478012C0DD14469002C0AD001240C7069
:105CA0004169A824095D117040699E21405C18700B
:105CB00001E000200870002010BD00001A20000044
:105CC000192000007CB5010042D0224C20604448DD
:105CD00004F05BFD01003CD1424800F047FF0100A9
:105CE00037D1002565600020C043A060A581072052
:105CF000A0732F2165548126F60021007031200009
:105D00003030FFF776F900281AD100221021200048
:105D10000F30FFF740FA00280ED46846057101A83D
:105D2000009023000F332200303221003031200058
:105D30001F30FFF7B9FB76BD002302222A4902E09B
:105D40000023022229490120FEF772FE300076BDB1
:105D5000274876BDF09200201504000014040000CE
:105D60003C9A0020489B0020F8B582B006000C0049
:105D7000170000252000FAF7F1FB012806D13000BA
:105D8000FFF7CEFC060002D11A48FEBD0026200017
:105D900001D01A2C01DB1848FEBD029A3900FFF72A
:105DA000EBFC01000AD16846012101704470857046
:105DB000029B3A0069463000FAF72AFBFEBD00005C
:105DC000D20300001C040000309A00204F040000A1
:105DD0007A040000AF040000C5040000ED040000D8
:105DE00065590000A35A0000450500004B0500005E
:105DF0000104000007040000040400004B49C0B285
:105E0000095CE02008407047484AC0B2125CD206E4
:105E1000D20E0A43454BC0B21A5470474349C0B230
:105E2000085CC006C00E7047404AC0B2125CE02356
:105E300013400B433D4AC0B21354704700B50021D4
:105E40006B4A1268002300F041FBFA229200002303
:105E500000F055FB00BD80B566480078002809D1E8
:105E6000012064490870644805F064F800F003F804
:105E700005F0D4F801BD10B505F098F85C4908604C
:105E80005E4C0820FFF7DAFF201A5D4908800420E5
:105E9000FFF7D4FF5B49088010BD38B5FF2500200F
:105EA0000400092C0DD22148005D002807D1802173
:105EB0002000C0B2FFF7A8FF2000050001E0641C2D
:105EC000EFE72800C0B232BD00B54F480078002887
:105ED00001D1012000E00020C0B200BD38B50400AF
:105EE0002000C0B200F0B0F80500EDB2002D03D1E3
:105EF00000200E49E4B20855002032BD80B505F0FF
:105F000071F8802149024148006803F0A7FD01BDF6
:105F100010B504002000C0B2FFF770FF202801D1A7
:105F2000012000E00020C0B210BD0000549A002003
:105F3000FEB582B004000A9D2000C0B200F084F8D3
:105F4000694608706846007800283AD10398FFF740
:105F500075FF06000F0005F037F86349E4B2202210
:105F6000624389180883002F05D1002E03D1012038
:105F7000002106000F006846017A2000C0B2FFF73A
:105F800053FF5948E4B2202161434018C0C008388B
:105F90005548E4B22021614340180830C0C0083899
:105FA00004985149E4B220226243891808614E489E
:105FB000E4B220216143401845612000C0B200F0E6
:105FC000D9F96846007805B0F0BD0000F4B582B09C
:105FD00006000D001F00089C00943B00029A10214F
:105FE0002943C9B23000C0B2FFF7A2FFFEBD0000D6
:105FF000BC9B00202A9C0020FD5E0000FFFF0000EB
:10600000049C0020069C0020279C0020909B0020E0
:10601000F8B507000E0015001C0000942B0032009C
:1060200002213800C0B2FFF783FFF2BDF8B50700C8
:106030000E0015001C0000942B00320001213800D6
:10604000C0B2FFF775FFF2BD70B504000026002551
:10605000E4B2092C04DA2548E4B2005D002802D13C
:10606000012005003DE003F055FD2000C0B2FFF720
:10607000C5FE0600F6B2202E02D0F6B2402E2ED17A
:1060800080212000C0B2FFF7BFFE2000C0B2FFF7A2
:10609000C5FEC00607D5B5480078401EB349087054
:1060A000B248007806E0B2480078401EB049087057
:1060B000AF480078AE480078002810D1AB4800788F
:1060C00000280CD103F026FDCB480078002804D02E
:1060D00004F066FF0020C849087003F017FD03F0C4
:1060E00015FD2800C0B270BDA88B0020549A002076
:1060F000FEB5060003F00EFD04F066FF6946488019
:1061000003F004FD684669464988BC4A1288891A2A
:10611000018168464088B9490880B9480088040070
:1061200000200500EDB2092D00D3DDE02800C0B24B
:10613000FFF774FE6946487003F0ECFC2800C0B21B
:10614000FFF75CFE6946087068460078402820D159
:1061500020212800C0B2FFF757FE03F0D7FCA94862
:10616000EDB2202169434018083003C8A4B22200D0
:106170000023994200D9B5E002D3904200D3B1E0A8
:10618000A048EDB2202169434018083003C804003C
:10619000A8E068460078202800D0A1E003F0B6FC13
:1061A0006846028900239748EDB2202169434018D0
:1061B000083003C88B423BD801D3824238D203F067
:1061C000A9FC9048EDB220216943401808300CC862
:1061D0000838684600890021121A8B418948EDB2BF
:1061E00020216943401808300CC0083804F0ECFE48
:1061F0008449EDB220226A438918088303F086FCA3
:106200008048EDB2202169434018083003C8A4B289
:1062100022000023994265D801D3904262D2794886
:10622000EDB2202169434018083003C8040059E04A
:10623000684640780D2108420ED000200021714AA6
:10624000EDB220236B43D218083203C2083A28006B
:10625000C0B2FFF7F9FE30E003F05CFC6948EDB234
:1062600020216943401803C8664AEDB220236B43DE
:10627000D218083203C2083A04F0A6FE6149EDB212
:1062800020226A43891808835E48EDB220216943C1
:106290004018083003C8A4B22200002399420AD84B
:1062A00001D3904207D25748EDB2202169434018EC
:1062B000083003C8040003F029FC5248EDB2202145
:1062C0006943401800690190019800280AD04D48A0
:1062D000EDB220216943401840690199884701E0E7
:1062E00003F014FC6D1C1DE703F014FC04F06CFEBD
:1062F0000700684640883F1A3800210080B289B202
:10630000884204D36A480088381804000AE0A4B21E
:10631000BFB2E01B66490988884203DA64480088F6
:10632000381804006846408824181148007800286E
:1063300003D10E48007800280BD004F031FEA4B23F
:10634000200004F045FE04F024FE01202A490870D4
:1063500008E029480078002804D004F021FE00203D
:106360002549087003F0D2FBF7BD0000289C0020EF
:10637000279C002010B5040003F0CCFB2000C0B225
:10638000FFF73CFD80281FD12000C0B2FFF746FD7B
:10639000C00607D547480078401C46490870454864
:1063A000007806E044480078401C434908704248A1
:1063B000007840212000C0B2FFF726FD802149026D
:1063C0003E48006803F04AFB03F0A0FB10BD38B55F
:1063D00000243848007800280BD004F0F5FD0500B3
:1063E00004F0DEFD00200449087004480088281AE3
:1063F0000400200080B232BD299C0020029C0020B5
:10640000049C0020A88B002070B504002948007867
:10641000002840D000200500092D36D22800C0B247
:10642000FFF7FCFC06002800C0B2FFF7E7FC2028BD
:1064300029D1F00627D522000023214820216943D5
:106440004018083003C88B4214D801D3824211D2BD
:106450001B48202169434018083003C8220000234C
:10646000801A9941164A20236B43D218083203C27E
:10647000083A08E000200021114A20236B43D2187B
:10648000083203C2083A6D1CC6E704F082FD04F02E
:106490009BFD0C49088070BD80B5802149020748EA
:1064A000006803F0DBFA01BD074800687047000090
:1064B000069C0020289C0020279C0020909B002008
:1064C000A88B0020029C0020BC9B002030B44343DA
:1064D00051435D18010C0C00130C5C432D1980B264
:1064E000434392B251430024C918644124040B046D
:1064F000090C09195043C018694130BC7047124259
:1065000024D0994228D970B500251B4202D00C0036
:10651000002109E00024012649186441944200D377
:10652000A41A7641F8D33100012601E0764109D260
:10653000001864416D41A41A9D41F7D2A4185D4131
:10654000B619F5D3300022002B0070BD1B42D8D104
:1065500008B504F0B9FD08BD01D19042D3D20200C4
:106560000B0000210020704709780A000BD00F298A
:1065700009D200BF05A2515C884201D100207047BA
:106580008220C0007047AF48704700000007071125
:106590001102110B110811024111020010B58124E2
:1065A000E400002803D1002302229F2136E0012AC3
:1065B00001D0022A2FD102700A7842704A78827084
:1065C0008A78C378FC241C409207920F2243C27041
:1065D000CB78FB2414409A0004231A402243C27053
:1065E0000B79F7241440DA0008231A402243C270C2
:1065F0004B79EF2414401A012243D206D20EC27006
:106600008A7902710F22CB7913404371097A0A40CB
:106610008271002010BD00230222AB210320FEF76F
:1066200007FA200010BD38B504000D00002C03D17E
:1066300000230222EC2148E01000FFF795FF010043
:106640002ED168782070A8786070E8788007800F75
:10665000A0700120E978890801220A40E270E978F7
:10666000C90801220A402271E978090908406071CD
:106670002879A0710F2069790140E171A97908405A
:10668000207200202056052807DA02202056022812
:1066900003DAA079C01F0A2801D3B24832BD002016
:1066A00032BD80B5002803D10023022299211BE0CE
:1066B000032220E038B504000D00002C04D1002393
:1066C0000222FF215A3100E026E00320FEF7B0F954
:1066D0008120C00032BD80B5002803D100230222F2
:1066E000C12101E0042206E049000320FEF7A0F9E1
:1066F0008120C00002BD02701022401CFEF7B0F9DC
:10670000002002BD38B504000D00002C04D1002388
:106710000222FF21AA31D8E71000FFF725FF010070
:1067200005D11022691C2000FEF79AF9002032BD25
:1067300080B5002803D100230222E921D4E70522F5
:1067400002704170002002BD38B504000D00002C1D
:1067500004D100230222FD214900B6E71000FFF713
:1067600003FF01000AD16878207000202056010044
:1067700001D00F2801DB7B4832BD002032BD10B5AF
:10678000002808D100230222A7490320FEF750F970
:106790008120C00010BD0B2202700A784378FC24CF
:1067A0001C409207920F224342704B78FB24144006
:1067B0009A0004231A40224342708B78F724144035
:1067C000DA0008231A4022434270C978EF231340AD
:1067D00009011943C906C90E4170002010BD38B522
:1067E00004000D00002C03D1002302228F496CE726
:1067F0001000FFF7B9FE010019D168788007800FFB
:10680000207001206978890801220A406270697845
:10681000C90801220A40A270697809090840E0709D
:1068200000202056022801DB4E4832BD002032BD38
:1068300080B5002803D1002302227D4955E70622B6
:1068400059E700000F04000038B504000D00002CCB
:1068500004D100230222AF21890036E75CE780B52E
:106860000B001100002804D100230222BA21890064
:106870003BE7072202701A7842705A788270082229
:10688000C01C3BE770B505000E001400002D01D0C0
:10689000002E03D100230222664954E02100180093
:1068A000FFF762FE010009D160782870A078687057
:1068B0000822E11C3000FEF7D3F8002070BD80B53F
:1068C000002803D1002302225B490EE7082212E7C9
:1068D00038B504000D00002C03D1002302225749D3
:1068E000F3E619E780B50B001100002803D100235F
:1068F00002225349F9E6092202701A7842700622F0
:10690000801CFBE670B505000E001400002D01D0C0
:10691000002E03D1002302224A4914E0210018006E
:10692000FFF722FE01000DD1607828700622A11C1D
:106930003000FEF795F800202856022801DB0948B0
:1069400070BD002070BD0320FEF772F88120C000EA
:1069500070BD80B5002803D1002302223A49C4E665
:106960000A22C8E61104000038B504000D00002C0E
:1069700003D1002302223549A7E6CDE638B504004D
:106980001500002C03D10023022231499DE60C2082
:1069900020702022601CFEF763F8202229002000CE
:1069A0002130FEF75DF8002032BD70B506000D0005
:1069B0001400002E01D0002D03D10023022225490E
:1069C000C1E721001800FFF7CFFD01000BD1202205
:1069D000611C3000FEF744F82022210021312800FC
:1069E000FEF73EF8002070BD80B5002803D10023DB
:1069F0000222194979E60D227DE638B504000D0022
:106A0000002C03D10023022214495EE684E680B5FF
:106A1000002803D100230222114966E60E220270EB
:106A200009784170002002BD2F0200005E020000C4
:106A300095020000160300004103000069030000F6
:106A400095030000C2030000F20300001A040000D6
:106A50004604000075040000A1040000C904000001
:106A6000F4040000124207D08B0706D00B78491CB3
:106A70000370401C521EF7D87047830706D00B786E
:106A8000491C0370401C521EF9D1704770B4103A73
:106A900003D378C9103A78C0FBD2530701D318C981
:106AA00018C001D508C908C0D20704D30B880380D9
:106AB000891C801C002A01D50B78037070BC7047BC
:106AC000F8B5070000240026A44D287800280AD134
:106AD00020220021281DFDF7EDFF38682862AC70E8
:106AE0000120287001E0D02676003000F2BD0100C0
:106AF00000209A4A5368002B01D151607047FF2053
:106B0000A430704701000020944A9368002B01D103
:106B100091607047FF20A4307047010000208F4A29
:106B2000D368002B01D1D1607047FF20A43070479B
:106B300001000020894A1369002B01D111617047BF
:106B4000FF20A430704730B502000020FF23A4339B
:106B5000824C6569002D01D1626100E01800E26994
:106B6000002A01D1E16130BD180030BD01000020D4
:106B70007A4A9369002B01D191617047FF20A430BC
:106B80007047000080B500BF03A00068009003229A
:106B9000694600F0C6FB0000030C000080B500BF92
:106BA00003A0006800900322694600F0BAFB0000D1
:106BB0000220000080B500BF03A0006800900322FF
:106BC000694600F0AEFB00000910000080B500BF70
:106BD00003A0006800900322694600F0A2FB0000B9
:106BE0000320000080B56846AC4901702021417047
:106BF000012069468870C870042200F093FB80B5BC
:106C00006846A64901702021417001218170002150
:106C1000C1700422694600F084FB30B589B00500DC
:106C200068469F4941E030B585B0050068469D49FA
:106C30000170202141706C460F20A0702888E07000
:106C40002888000A2071688860716888000AA0712D
:106C50002879E07168792072A87960720622E91DAE
:106C600020000A30FDF7FCFE687B2074A87B60746E
:106C7000122269460120394B1B6A9847002005B053
:106C800030BDE0B501006846874A0270202242709C
:106C900006228270C01CFDF7E3FE092269466AE104
:106CA00030B589B0050068468049017020214170E7
:106CB0006C46A1702878E0702A78691C201DFDF7C9
:106CC000CFFE28781F210A1A00212018001DFDF789
:106CD000F1FE232269460120204B1B6A98470020C1
:106CE00009B030BD00B583B069467E4A0A702022E3
:106CF0004A7002228A700278CA70407808710522B0
:106D000039E1E0B56946784A0A7020224A700722C4
:106D10008A700278CA7042880A714288120A4A71DF
:106D200082888A718288120ACA7182790A72C0794D
:106D300048720A221FE100B583B069467F4A0A7093
:106D400004224A7003228A700288CA700288120ADA
:106D50000A714088487106220DE1000018060020E3
:106D600030B587B005006846754901702021417033
:106D70006C461920A0702888E0702888000A2071CD
:106D8000688860716888000AA0712879E071687964
:106D900020720622A91D20000930FDF761FE287B24
:106DA000E073E8892074E889000A6074288AA07476
:106DB000288A000AE074688A2075688A000A60756B
:106DC000A88AA075A88A000AE075E88A2076E88A71
:106DD000000A6076288BA076288B000AE0761C22B9
:106DE00069460120784B1B6A9847002007B030BDE8
:106DF00080B500BF02A0006800900322694690E2BF
:106E00000E20000000B585B06946754A03E000B564
:106E100085B06946734A0A7020224A700E228A7031
:106E20000288CA700288120A0A7142884A7142882E
:106E3000120A8A718288CA718288120A0A72C2880A
:106E40004A72C288120A8A720289CA720289120AB6
:106E50000A7342894A734289120A8A738289CA7301
:106E60008089000A087411220120574B1B6A984739
:106E7000002005B000BD00B583B06946714A0A70B4
:106E800020224A7003228A700288CA700288120A7D
:106E90000A714088487106226DE000000A20000057
:106EA0000820000006200000052000000920000046
:106EB000E0B56946B54A0A700C2248E0E0B569467B
:106EC000B34A0A7020224A706B46072199700178F4
:106ED000D9700622411C181DFDF7C2FD0A22694621
:106EE00049E000000C2000000B20000080B500BF2E
:106EF00002A0006800900322694612E21020000000
:106F000080B500BF02A0006800900322694608E235
:106F10000F200000E0B56946B14A0A7020224A708D
:106F20006B46072199700178D9700622411C181D03
:106F3000FDF796FD0A2269461DE0000006040000E8
:106F40000D200000E0B56946A64A0A7020224A706A
:106F500008228A700278CA7042780A7182784A716F
:106F6000C2788A710279CA7142790A7282794A7248
:106F7000C07988720B220120134B1B6A98470020AE
:106F80000EBD00B583B06946974A0A700C224A705C
:106F900003228A700288CA700288120A0A718078F5
:106FA00048710622E7E700B583B069469C4A0A703B
:106FB00014224A7002228A700288CA700088000A6D
:106FC00008710522D7E700001806002080B500BF31
:106FD00002A00068009003226946A2E10720000099
:106FE0001320000020200000F2B5060014009D4D83
:106FF000686AA04203D2300000F026F8F2BD724663
:107000000021201D02F08FF8070001D1052417E0B0
:107010003E70300A7870BC70200AF8702200009927
:10702000381DFDF71DFD241DA2B2390002202B6A78
:1070300098470400380002F0ABF8A878401CA8700C
:107040002000F2BD21200000F1B582B00D00140037
:10705000724600218348406A001D02F064F8070070
:10706000002000950026002F01D10520FEBD3A78B2
:1070700079780906090C0A43F021090211406A4691
:1070800012891205120D0A433A70120A7A70397881
:107090007A781206120C11438904890C3970090A96
:1070A000797021E00906090C0843844901403970D0
:1070B000090A7970BD70280AF870ADB22A000099EB
:1070C000381DFDF7CDFC2A1D92B239000220654B18
:1070D0001B6A9847060063488078401C61498870A5
:1070E0000098401900900120210419D05D49496A97
:1070F000A4B2A14202D20D00641A01E025000024CE
:10710000002838787978CDD00906090C08436B49F6
:1071100001408020400108433870000A7870C9E7B8
:10712000380002F035F83000FEBD10B586B0002101
:107130006A46874B13702023537012239370038881
:10714000D37003881B0A137143189B78541863711A
:10715000491C1029F8DB152269460120564B1B6A91
:107160009847002006B010BD00B583B06946794A43
:107170000A7020224A7002228A700288CA7000882F
:10718000000A08710522F6E600000000010C00006C
:107190001120000030B589B0002100226B46734CED
:1071A0001C7020245C701C249C700488DC70048893
:1071B000240A1C718418A4789D186C71521C082A2A
:1071C000F8DB42895A734289120A9A734218127B79
:1071D0005C18E273491C1029F8DB1F227AE50000D5
:1071E00012200000012000002D0C0000E0B56946CF
:1071F0005F4A0A7020224A7006228A700288CA708A
:107200000288120A0A7142884A714288120A8A71F7
:107210008288CA718088000A08720922ABE60000E1
:107220000514000080B500BF02A000680090032292
:10723000694676E02320000000B583B06946774AAE
:107240000A7020224A7004228A700288CA7002885A
:10725000120A0A7142884A714088000A887107221E
:1072600089E600001806002030B58BB0002100220E
:107270006B466B4C1C7020245C7027249C70047837
:10728000DC70841864789D182C71521C062AF8DB77
:107290005A184418E5799572E47D9476491C1029B2
:1072A000F6DB2A2269460120034B1B6A984700201F
:1072B0000BB030BD0000000018060020FFCF00001A
:1072C00080B500BF02A0006800900322694628E054
:1072D0002920000010B584B000216A46514B13707C
:1072E00020235370072393700378D37043185B787F
:1072F00054182371491C0629F8DB0A22694601202B
:10730000494B1B6A9847002004B010BD80B5694600
:10731000464A0A7020224A7001228A700078C8709A
:1073200004220120404B1B6A9847002002BD00B593
:1073300083B069463E4A0A7020224A7002228A704F
:107340000288CA700088000A0871052213E600004E
:107350001A2000001B20000080B5334AD2691300B8
:1073600001D0904702BD092002BD00001920000095
:107370002220000010B500242B490278052A44D0B1
:10738000082A40D00C2A40D00E2A0ED00F2A1DD039
:10739000102A3AD0132A38D01A2A36D0302A32D0BE
:1073A0003E2A1DD0572A30D034E08288214BD21A91
:1073B000012A28D9D21E012A25D9921F012A1AD9B9
:1073C00089680A0028D0801C884725E0C2881A4BAB
:1073D0009A4218D0C9680A001ED0801C88471BE05A
:1073E0008278D21E07D0921E0DD0521E03D0921E5C
:1073F000012A02D807E0496908E049680A000BD071
:10740000801C884708E0896900E009690A0003D008
:10741000884701E0D1246400200010BD2420000032
:10742000272000002B200000180600202D2000003F
:107430002E2000001720000019200000F2B598B09F
:1074400001216B46D980002700255F711899091D1D
:1074500004911899CC1C022802D0042821D0A3E35F
:107460000846017840780002084318998B78217803
:107470000902194383049B0F0005000D0C1D944263
:10748000EDD1022B03D1049B0A00012104E0012B62
:1074900006D1049B0A00002100F08AFB6946C880DF
:1074A00082E305A8482102F0FFFB05AE189800789A
:1074B0003070189840787070189882788021490050
:1074C000100001D00D001543B01C039049483378DB
:1074D000052B00D1FAE2082B00D105E30C2B00D1DB
:1074E0000BE30E2B14D00F2B00D1E7E2102B03D0AF
:1074F000132B00D116E31A2B00D139E3302B00D126
:1075000039E33E2B00D112E1572B00D13AE33DE3A2
:10751000039B1A702378627812021A43B280A41C6B
:1075200023781D0002D00D001D4300E00025A11CA2
:10753000641C314BD21A4DD0921E4BD02A3A10D037
:10754000121F47D0F4239B00D21A59D0521E00D1EB
:107550006DE0521E00D173E0921F00D179E02C3310
:10756000D21A00D17EE0254BD21A00D183E0521E00
:1075700000D18BE0921E2DD0521E2BD0521E0CD06B
:10758000521E27D0521E25D0521E23D0521E21D06B
:10759000521E1FD0921E1DD0521E00D17FE0521EDF
:1075A00018D0521E16D0521E14D0921E12D0521E47
:1075B00000D178E0921E00D184E0521E00D18AE012
:1075C000921E0ED0521E0CD0521E00D18CE0521EC4
:1075D00000D0521E00D190E0521E02D0521E00D0A8
:1075E000521E00D193E0921E00D197E0083A00D1DC
:1075F00085E0CBE218060020010C0000FD0B000026
:10760000F5802078307208784A781202024372813D
:1076100088783073C81C0178427812020A43F281DC
:10762000841C20786178090201433182AEE2F58042
:107630002078F1190872641C7F1C402FF6DAF7E7F6
:10764000F5802078F1190872641C7F1C082FEDDA90
:10765000F7E7F5802078F1190872641C7F1C062F6B
:1076600008DAF7E7F58020780978090201433181CB
:10767000A078B0728AE2F580227809780902114375
:107680003181A278B272416242707FE2F580207847
:10769000F1190872641C7F1C082F03DAF7E7F580E4
:1076A0002078307272E2F58020780978090201436F
:1076B0003181A41C2078F1198872641C7F1C052F6D
:1076C000F0DAF7E7F5802078F1190872641C7F1C66
:1076D000102FE7DAF7E7F5802078F1190872641CBB
:1076E0007F1C082F0ADAF7E7F5802078F119087275
:1076F000641C7F1C082F01DAF7E7F58046E2F5806D
:107700000622210030000830FDF7AAF93EE2F5809C
:107710002078097809020143318137E2F580207829
:107720000A7812020243328120780978F6E1039840
:1077300002702378180002D00D001D4300E00025E0
:10774000A01C521E0A2AE8D801A15200895A8F446F
:107750001400760044015E018601B201B201FE010F
:1077600016022E02B602F5702D0A3571611C0A78D8
:107770000078000210437071000AB0718878F071CF
:10778000C8783072081D0178F2195172401C7F1CB4
:10779000062FF8DB0178427812020A43F273120ACC
:1077A0003274801C0178427812020A437274120A01
:1077B000B274841C2078617809020143F174090ACB
:1077C0003175A0787075E1E1F370641C7246002198
:1077D00018462923584301F0A6FCF11D03F076FC5E
:1077E000F01D03F07DFC002801D10520DEE1012021
:1077F000694648710F71029720E0F01D03F070FC9C
:1078000000994018EDB2401921784172641C6D1C3A
:10781000F01D03F065FC009A8018007AE9B28142FD
:10782000EBD3F01D03F05CFC2178009A801828222D
:107830008154641C0298401CC0B202900298F178F6
:107840008842C0DAF01D03F04BFC02992922514313
:1078500000912178009A8154F01D03F041FC617879
:10786000009A80184170A41C0025F01D03F038FC1C
:1078700000994018401921788170641C6D1C062DF8
:10788000F3DBF01D03F02CFC2178009A80180172C4
:10789000641C0025BCE7F5702D0A3571611C0A785F
:1078A0000078000210437071000AB071881C37E044
:1078B000F5702D0A3571611C0A78007800021043BA
:1078C0007071000AB0718C1C2078F119C871641CA9
:1078D0007F1C082F15DAF7E7617809021943F17068
:1078E000090A317104002078F1194871641C7F1C69
:1078F000082FF8DB20786178090201437173090AC7
:10790000B17343E1617809021943F170090A3171D9
:107910000178427812020A437271120AB271801C15
:107920000178427812020A43F271120A3272801C04
:107930000178427812020A437272120AB272841CEF
:107940002078617809020143F172090A31731DE15F
:10795000F5702D0A3571641C2078F1194871641C8A
:107960007F1C402FF3DAF7E7F5702D0A3571641CA0
:107970002078F1194871641C7F1C202FE7DAF7E7A3
:10798000F5702D0A3571611C0A78007800021043E9
:107990007071000AB0718878F071C8783072081D73
:1079A0000021027873185A72401C491C0629F8DB22
:1079B000002102787318DA73401C491C0629F8DB91
:1079C0000178F2195175401C7F1C062FF8DB0178F5
:1079D000427812020A43F276120A3277801C01784A
:1079E000427812020A437277120AB277841C207816
:1079F000617809020143F177090A761CF177761E56
:107A0000A07821217054C1E0F370641C72460021FB
:107A1000180101F088FBF11D03F058FBF01D03F085
:107A20005FFB002801D12800C0E0012069464871B1
:107A3000087102970298F1788842E4DAF01D03F0A9
:107A40004FFB0299090100912178009A8154F01DA1
:107A500003F046FB6178009A80184170A41C002551
:107A6000F01D03F03DFB009940184019217881700A
:107A7000641C6D1C062DF3DBF01D03F031FB217837
:107A8000009A80180172641C0025F01D03F028FB89
:107A900000994018401921784172641C6D1C062D14
:107AA000F3DBF01D03F01CFB2178009A8018C173F2
:107AB000641C0298401CC0B20290BBE7758020781D
:107AC0003071049C2078617809020AE07580207882
:107AD000627812020243B280A01C0078F08002009B
:107AE00054D00143F18051E075802078617809021B
:107AF0000143B180A078B07148E07580207861784A
:107B000009020143B180A078B071E01C017842788D
:107B100012020A433281841C2078617809020143F1
:107B2000718133E003990A7009E0237861780902D2
:107B30001943D2B25300F3185980A41C521E1106E7
:107B4000F3D10399097809E02378627812021A4385
:107B5000C9B24B00F318DA80A41C491E0A06F3D1FF
:107B600031898278531A914200D3002383700DE04B
:107B7000039802700AE07580207861780902014359
:107B8000B18003E0207800021043708005A8FFF761
:107B9000F1FB6946C88068464079002804D0F01D92
:107BA00003F09EFA01F0F4FA0198001419B0F0BD48
:107BB000F8B50700160013D0284CA068002500294E
:107BC0003CD0002802D001F0E3FAA56000980178CB
:107BD000407800020843001D208081B2B14201D2EA
:107BE0000120F2BD80B2B04204D100993800FFF705
:107BF000B3FBF2BD7246002101F095FAA0600028A7
:107C000001D10520F2BDA780658032000099A068EF
:107C10006388C018FCF724FF608880196080218881
:107C200080B2884216D1A1683800FFF795FB0600A4
:107C3000A06801F0ADFAA5603000F2BD002807D0C1
:107C4000A088B84204D12088618889198842DCDA8A
:107C50000920F2BD0020F2BD00000000609A002063
:107C6000010C9F4A89180A680123834013430B6063
:107C7000704700B5102801D1012000E00020C0B2FB
:107C800000BD30B50100002200231C001443E4B203
:107C9000002C0BD18C6C80256D0325402D0D2A0006
:107CA00080256D022C40240C2300EEE7D2B2002A7E
:107CB00004D001240C630124200006E000242000ED
:107CC00004240C64802464028C6430BD854A026400
:107CD000704730B503000C00002A05D025781D70D0
:107CE000521E5B1C641CF7E730BD80B501000A0022
:107CF000100080070DD010786B46187050786B46D6
:107D0000587090786B469870D0786B46D870009811
:107D100000E0106802BD00B50A0013009B070DD0FB
:107D200003001370521C030A1370521C03001B0C37
:107D30001370521C030E1370521C00E0086000BD4B
:107D4000F8B507000E00150000200400EDB2280071
:107D5000042101F0C1FF84420CDA04206043301892
:107D6000FFF7C3FF042161437918802292008850F5
:107D7000641CEBE70020F2BDF3B583B017001E00D2
:107D8000F6B2FFB23800042101F0A6FF3018102827
:107D900001DB042034E000200500FFB2380004219C
:107DA00001F09AFF0191F6B23400F6B2FFB238004A
:107DB000042101F091FF301884420DDA0498401933
:107DC000FFF793FF0399042262438918802252002F
:107DD00088502D1D641CE8E7019800280FD0002072
:107DE0000090019A049841196846FFF772FF0098C5
:107DF000039904226243891880225200885000208F
:107E000005B0F0BDF3B583B017001E00F6B2FFB2A7
:107E10003800042101F060FF3018102801DB042035
:107E200034E000200500FFB23800042101F054FFC7
:107E30000191F6B23400F6B2FFB23800042101F02D
:107E40004BFF301884420DDA04984119039804223C
:107E500062438018802252008058FFF75CFF2D1D7E
:107E6000641CE8E7019800280FD0002000900398D8
:107E70000421614340188021490040580090019A34
:107E8000694604984019FFF724FF002005B0F0BDB3
:107E9000FEB582B004000A9F0B9E0C9D1148206421
:107EA000606BF3210904014361636846027B029918
:107EB0002000FFF745FF6846007BA060802040025D
:107EC000A0640498F6B23043EDB228433FB2384381
:107ED000009000982060002005B0F0BD0000000078
:107EE000007004406D0000C0F6B583B006001F00AE
:107EF0000A9D0B9C002002902000C0B20190280037
:107F000000B200903B006846027C03993000FFF706
:107F1000BFFF05B0F0BDF6B583B006001F000A9D97
:107F20000B9C042002902000C0B20190280000B2F7
:107F300000903B006846027C03993000FFF7A8FFE1
:107F400005B0F0BDF6B583B006001F000A9D0B9C7E
:107F50000C2002902000C0B20190280000B20090D6
:107F60003B006846027C03993000FFF791FF05B0A3
:107F7000F0BDFDB582B00E00039805680498046852
:107F8000370030003843002846D00298F821C90055
:107F9000405801900198FE21C903014000291AD0E0
:107FA000002F18D0042F09D321000298FE22D200FE
:107FB0008058FFF7B0FE241D3F1F0CE00298FE2101
:107FC000C900405800903A0069462000FFF781FE42
:107FD000E4190020070001980004D2D4002ED0D06C
:107FE000042E09D32800FFF780FE0299FC22D2005C
:107FF0008850361F2D1DC4E7002000903200290054
:108000006846FFF766FE00980299FC22D20088506D
:10801000AD1900200600B4E70398056004980460D9
:1080200005B0F0BD7AB5050014000098002802D014
:108030000198002801D104201FE02C61112C03D2EB
:1080400026000020040009E02007000F0600002E93
:1080500003D110200600103C00E0A41B01AB6A46CF
:1080600021002800FFF785FF01AB6A463100280098
:10807000FFF77FFF2800FFF704FE76BDF1B582B061
:108080000E0014001D00FF200001009002980068FF
:10809000019000200700002C25D00098A0420DD3AD
:1080A0002B00220031000298FFF7BCFF0700002FD1
:1080B00001D0380018E000200400ECE72B00009A03
:1080C00031000298FFF7AEFF0700002F01D0380003
:1080D0000AE0009836180098241A00982D18019884
:1080E00002990860D7E73800FEBD70B500239508F7
:1080F0002C009507AD0F002D00D0641C052C01D37A
:1081000004252C00A3420CD2F825ED0045592D047E
:10811000F8D404255D434D59FC26F60085515B1CBF
:10812000F0E770BD70B588B006000D00140004A81B
:10813000102101F0B9FD002C1BD0112C07D3102207
:1081400029006846FFF7C5FD103C10350BE01022F2
:1081500004A96846FFF7BDFD220029006846FFF725
:10816000B8FD00200400102269463000FFF7BDFF73
:10817000E1E708B070BDFAB585B0060015000C9CAB
:108180000598002802D00698002801D104208DE02F
:108190000DA80078082805D00DA800780C2801D07B
:1081A000042083E0002D01D100207FE0112D05D2B5
:1081B0000DA8007869460872009510E06846210015
:1081C0000C220A4002722807000F00900098002835
:1081D00003D110200090103D01E000982D1AFF20DF
:1081E00000010490306903900098002859D0684637
:1081F000007A002806D0042804D0082835D00C289E
:1082000033D04DE0002D2FD004980399401AA84296
:1082100004D204980399401A070000E02F00376148
:1082200006AB05AA39003000FFF7A3FEED1B0020C6
:108230000390002D13D00020694608723000FFF72C
:1082400020FD01900198002801D001982EE00C201B
:10825000844321006846047A0C433460D2E70DA8B9
:10826000007869460872CDE7BEE73000FFF709FDE8
:1082700001900198002801D0019817E00C20844358
:1082800021000DA804780C4334600098306106ABDF
:1082900005AA00993000FFF76CFE00200090A3E7CC
:1082A000A2E73000FFF7EDFC0190019807B0F0BDA8
:1082B000F0B585B005000E0017001C0068461021BF
:1082C00001F0F2FC0420286480204002A8640C2005
:1082D00084432000022404432C6000202861AF6105
:1082E0003A0031006846FFF7F4FC3A00694628007E
:1082F000FFF7FBFE2800FFF7C4FC05B0F0BDF2B5A8
:10830000070016001D0000240098002811D0E8077F
:1083100007D42B00320000993800FFF7C9FF040092
:1083200007E0069BDBB23200D2B200993800FFF7BB
:1083300069FD2000F2BD10B504001A48FFF790FC5B
:1083400010BDF6B583B005001C000A9F0B9E3000DF
:10835000FFF78FFC002801D1042020E0102C03D36C
:108360002007000F002801D0042018E00120019010
:1083700080208000009080235B033200D2B239005D
:108380002800FFF7B1FD049B220003992800FFF7A6
:1083900075FE029000212800FFF798FC029805B0B6
:1083A000F0BD000018003810FFB581B00B9C0C9F89
:1083B0000D9D0E9E0198002801D104202BE002980B
:1083C000002808D00398002805D00498002802D07F
:1083D0000A98002801D104201DE0072C01D30E2C9F
:1083E00001D3042017E0002E01D0042E03D3112E58
:1083F00001D2F00701D504200DE02800FFF739FC79
:10840000002801D1042006E0FF200002874201D3AA
:10841000042000E0002005B0F0BD01060202FF23A9
:108420001B0413400B43010AFF2212020A401A43A5
:10843000000E10437047F2B58AB0060015001C000C
:10844000119F06A8102101F02FFC102206A902A8F6
:10845000FFF73FFC0F20001B0190B81E40080821C9
:10846000484301994018401E69460870109800283A
:1084700005D068466946097840220A43027068467A
:108480000078694608720A98FFF7C7FF0590220036
:10849000290002A8401CFFF71CFC0023102202A99F
:1084A0003000FFF769FC102206A902A8FFF711FCB3
:1084B0000198401E694608722200290002A8401C4B
:1084C000FFF707FC0423102202A93000FFF754FC39
:1084D0000BB0F0BDF2B588B0070016001C0003A871
:1084E000102101F0E1FB002C00D198E00025089854
:1084F000002803D101206946487002E00020694647
:108500004870200011300F2188438B49884203D2E4
:1085100001206946087002E00020694608702000CA
:10852000FFF77BFF0290022202A8811C03A8FFF73D
:10853000D0FB0F2C01D30E2500E025002A003100CE
:1085400003A8801CFFF7C5FB6846007800280ED002
:1085500068464078C0072100891C0905090D0143C0
:10856000B965102203A93800FFF7BFFD06E0734884
:10857000B865102203A93800FFF7B7FD641B761910
:1085800068460078002805D0220031003800FFF747
:10859000C9FD44E0002C08D13800FFF772FB0190C0
:1085A000019800283BD001983AE0002C37D03800E1
:1085B000FFF767FB01900198002801D001982FE098
:1085C0000E9800680C2188430E9908600E98006888
:1085D0000E9908600E9800683860FF2000010500C1
:1085E000AC420ED268464078C0072105090D014310
:1085F000B965220031003800FFF794FD0020040027
:10860000D3E72805000D802109060143B9652A003A
:1086100031003800FFF786FD641B7619C5E700209E
:1086200009B0F0BDFEB588B00400139F18980490FF
:108630001598039002971198019016980090149B3A
:10864000109A09992000FFF7AFFE0600002E01D016
:1086500030006FE0654806900698390011310F220E
:1086600091430A9A8918884201D3012500E0002528
:10867000EDB2002D0ED008A80078019080200001F6
:10868000009080235B03159AD2B214992000FFF763
:1086900059FC0DE008A800780190802000010090AE
:1086A00080235B03159AD2B214992000FFF733FCA4
:1086B00020680590189801900097119B109A0A99CC
:1086C0002000FFF7B8FE05A800903B00129A0A9917
:1086D0002000FFF7FFFE0600002E01D0300029E049
:1086E0000A98002802D020691128FCD2EDB2002D92
:1086F00007D0169B0A9A09992000FFF793FC060001
:108700000AE00820019005980090169B0A9A0999A2
:108710002000FFF730FD0600002E01D0300009E0F8
:1087200008200090059B189A17992000FFF7E7FD95
:10873000060030000BB0F0BDF10F0000100000800B
:10874000FEB58AB00400179F189E199D08950796DC
:108750000B98069005971698049015980390149816
:10876000029013980190129800900C9B0A9A012194
:108770002000FFF757FF099000212000FFF7A6FA1D
:1087800009980DB0F0BDFEB590B006001D9F1E9D6E
:108790001F9C0BA8102101F087FA00200990002DE2
:1087A00006D0220029000BA8FFF793FA0BA8099026
:1087B0000894099807901198069005971C980490C2
:1087C0001B9803901A98029019980190189800909D
:1087D000129B109A00213000FFF724FF0A9000211D
:1087E0003000FFF773FA0A9813B0F0BDFF0F0000D6
:1087F000F0B587B000250124B8480068019000203A
:10880000B749087002AB03AA00A9891C019802F0BD
:108810000DFF03996846807802F043FFFDF7D7FD0E
:108820000500D648006801008907C90F002922D039
:10883000AC48008800061CD5D0480068AA49014011
:10884000CE480160684603F037F9070002F0EDFCFE
:108850000600B6B23000401CBFB2B84206DA684625
:10886000008802F0FCFC02F0F3FC04E000200400AD
:1088700001E000200400E4B2002C42D09B480068D4
:10888000002802D099480068804703F082FABB486C
:108890000068000A0007000F0600B8480068B849E1
:1088A0000140B648016002F0FDFDB4480068B449DB
:1088B00001403002F022120102400A43AF48026038
:1088C00003F068FAAF480068002802D0AD4800689D
:1088D000804702F075FEA948006801008906C90FAB
:1088E000002908D1A54800687F4901408020400345
:1088F0000843A2490860A14800687B4901409F489D
:10890000016002F018FF02F0F1FE0600FDF7CCFD59
:108910000200300000210023FDF7D8FD029A002359
:10892000FDF7EDFD04AA03C2083A04AE04A80CC882
:108930000838280000218018594103C6083E04A8C1
:1089400003C8FDF761FD07B0F0BDF0B585B00027A5
:108950000020634908708948006801008907C90F31
:10896000002973D05D480068019002AB03AA00A9FA
:10897000891C019802F05AFE03996846807802F03B
:1089800090FEFDF724FD070002F06CFC69460880AC
:108990006846008802F076FC6846008802F066FCB3
:1089A00052480068002802D050480068804702F012
:1089B000A2FC050003F0EDF970480068000A00070A
:1089C000000F04006D4800686D4901406B4801606C
:1089D000EDB2022D02D102F027FD01E002F062FDAE
:1089E00066480068664901402002F02212010240F8
:1089F0000A436248026003F0CDF96248006800282B
:108A000002D060480068804702F0DAFD68460088BE
:108A100002F032FC02F08FFE02F068FE0600FDF765
:108A200043FD0200300000210023FDF74FFD029AB4
:108A30000023FDF764FD04000D00200029003C0028
:108A4000002524184D412000FDF7DEFC05B0F0BDE7
:108A500038B500202249087048480068010089079D
:108A6000C90F002939D002F0FDFB0400200080B2BC
:108A700002F008FC200080B202F0F8FB1B480068FE
:108A8000002802D019480068804703F082F93B486B
:108A90000068000A0007000F0500384800683849E0
:108AA00001403648016002F041FC34480068344916
:108AB00001402802F022120102400A432F480260BE
:108AC00003F068F92F480068002802D02D4800689C
:108AD0008047200080B202F0CFFB31BDA808002003
:108AE000B89B002062B00540DFFFEFFFAC9B002089
:108AF00038B50020AD49087020480068010089079A
:108B0000C90F002939D002F0ADFB0400200080B26B
:108B100002F0B8FB200080B202F0A8FBA448006875
:108B2000002802D0A2480068804703F032F91348B9
:108B30000068000A0007000F05001048006810498F
:108B400001400E48016002F033FC0C4800680C49FB
:108B500001402802F022120102400A430748026045
:108B600003F018F907480068002802D0054800689B
:108B70008047200080B202F07FFB31BD00900540AD
:108B8000DFF0FFFFB09B0020F0B585B0002700208C
:108B900086490870A148006801008907C90F0029AB
:108BA00077D095480068009002AB03AA04A900980A
:108BB00002F03CFD03996846007C02F072FDFDF76F
:108BC00006FC0700964800688007800F01909448D3
:108BD0000068032188439249086090480068000AB1
:108BE0000407240F8D4800688E490140C020800092
:108BF00008438A49086003F0CCF888480068C0211F
:108C000009040143854801609B4800680221014333
:108C10009948016002F088FC974800680221884367
:108C2000954908607D480068944901407B4801608F
:108C300003F0B0F8794800687A4901402002F02238
:108C4000120102400A4375480260754800680199A4
:108C500001437348016002F09DFD02F06CFD02F0DB
:108C600045FD0600FDF720FC020030000021002336
:108C7000FDF72CFC029A0023FDF741FC04000D00D7
:108C8000200029003C00002524184D412000FDF75C
:108C9000BBFB05B0F0BD10B500204449087002F0E0
:108CA0002AFB0400E4B2002C10D07748E4B204217F
:108CB00061434018001F0068002807D07248E4B2E2
:108CC000042161434018001F00688047374800783E
:108CD00010BD80B500206946087000203349087037
:108CE00002F00CFB68466946097880220A4302704C
:108CF0002E480078802101432C480170009802BD65
:108D00000120C0B2704710B5012402F0F4FA062821
:108D100005D077480078002801D00020040020000A
:108D2000C0B210BD10B582B00400002069460870C2
:108D3000E4B24D2C28D0E4B2512C02D1FFF788FECA
:108D4000FEE7E4B2502C02D100F024F81CE0E4B2BB
:108D50004F2C0BD100F052F8002815D0FFF7D3FFAD
:108D6000002811D0FFF797FF00900DE0E4B24E2CE1
:108D70000AD100F043F8002806D0FFF7C1FF002811
:108D800002D0FFF7A6FF0090009816BD80B502F054
:108D9000C7FD01BD00B5574857490860FEE700B55B
:108DA000002801D01449086000BD0000B89B0020D5
:108DB000AC9B002080B500F0ADFE50480078002844
:108DC00004D04E480078401E4C49087000F09EFECA
:108DD00001BD10B500F09EFE48480078401C04001C
:108DE000E4B2002C04D045480078401C4349087088
:108DF00000F08CFE10BD0000A808002010B500F0A7
:108E000089FE3E480078002801D1012400E00024BA
:108E100000F07CFE2000C0B210BD000000900540B4
:108E200010E000E0DFF0FFFF10B50400E4B2072C13
:108E300001DB00201EE0E4B2002C0AD01248E4B2AC
:108E4000042161434018001F0068002801D1002060
:108E500010E02000C0B202F039FA2000C0B202F0E7
:108E600017FA2000C0B202F0BFF92000C0B202F031
:108E70008CF9012010BD00004C800440FFFFBFFFB3
:108E800080B502F038FA02BDB8C80200002108001F
:108E9000C0B2704710B582B0002400206946087047
:108EA000FFF7F4FF0A2803D15120FFF73BFF0090A2
:108EB00000F030FEFDF708F8002806D0012004007D
:108EC0004F20FFF72FFF009003E04E20FFF72AFF0F
:108ED000009000F01BFEE4B2002C01D0FDF7DCFA9C
:108EE000009816BD0649086070470649086070473B
:108EF000239C00200400FA050CED00E0229C0020D9
:108F0000AC9B0020B09B002080B502F0F7F901BDBA
:108F10006249016062494160624981606249C160A1
:108F2000624901617047002900D17047F5B4D9B09A
:108F3000039100210020599A09AB14782406557832
:108F40002D042543947824022C43D57825431D60B5
:108F5000141D25782E0665782D043543A678360233
:108F60002E43E47834435C60801C083308321028B8
:108F7000E3D309AB4033202218000C3804681800F2
:108F80002038056865401800383804686C401800BF
:108F90004038006860401F24E0411860180008381D
:108FA000046818001C3805686540180034380468E7
:108FB0006C4018003C38006860401F24E041586055
:108FC0000833521ED8D15A98006808905A9A5268AD
:108FD00007925A9B9B6806935A9CE46805945A9D95
:108FE0002D690495029509AD019501E0142906D279
:108FF0001E0016402500954335432D4E14E02829C8
:1090000004D21D00554065402A4E0DE03C2907D290
:1090100026001E43164025001D403543264E03E022
:109020001D0055406540254E00961B260700F74160
:109030007D19029EAD19009EAD19019E3668AD19CD
:1090400002941C000223DA41130002002800491C8C
:10905000019D2D1D01955029C8D3089908185A99CA
:109060000860079880185A9948600698C0185A995D
:109070008860059800195A99C860049802994018A8
:109080005A9908615998403059900398401E0390AE
:1090900000D04EE75BB0F0BC70470000012345678D
:1090A00089ABCDEFFEDCBA9876543210F0E1D2C332
:1090B0009979825AA1EBD96EDCBC1B8FD6C162CAEA
:1090C000F8B5554F554C564D0020564908807888C4
:1090D0000600B6B23100200002F07AFEB6B2002ED1
:1090E00012D02900200002F07CFEEC60A07C401C25
:1090F000A0744C480088401C4A49088038882818C9
:1091000005001035761EE9E73888E081B8882082AE
:109110003889A081A089002801D1002002E0143400
:109120000837D4E7F2BDF4B504000F003B4D00F062
:10913000F1FC002C28D0E889A0421DD33800C0B231
:10914000298A80B2884217D1280002F092FE0600D8
:10915000002E0CD0103633480088401E314908805C
:10916000E87C401CE87400F0D1FC30000FE0A889D6
:10917000A04209D3A8890400A889002801D0143589
:10918000D7E700200400D4E700F0C0FC0020F2BDC7
:10919000F8B50400002C01D1032032E02000103883
:1091A00006001F48864202D31F48B04201D2032066
:1091B00027E000F0AFFCF068070018480500AF4258
:1091C00003D1B06800280DD008E0A889002803D199
:1091D00000F09CFC032014E01435F0E700F096FC4E
:1091E00003200EE00F480088401C0E490880310023
:1091F000380002F0F6FDF87C401EF87400F086FCA2
:109200000020F2BD00B50100002903D0091F086845
:10921000C08900E0002000BDF005002098950020E6
:10922000E0080020009C0020206E0020F4B582B0F1
:1092300007000D000026002D27D00024E443002263
:1092400010212800FBF7A7FFA04208D00022102120
:1092500028001030FBF79FFFA042144C07D10320D9
:1092600022E008232A002100280002F07CFE0822C8
:109270002100280002F00CFF0028F2D508232A0064
:109280000B49280002F018FE00E0012630000BD147
:10929000029801903800203000903B002A000549D8
:1092A000054804F007F9002003B0F0BDD8B402006F
:1092B000F8B40200B8B4020098B40200F8B582B065
:1092C00007000D0016000024002B09D0002F07D046
:1092D000002D05D0002E03D002F0B2FE002801D0F0
:1092E00001240BE002980190300020300090330000
:1092F0003A0029002031280004F0DCF8200003B0F7
:10930000F0BDFEE7010C334A89180A680123834047
:1093100013430B60704700B5010000293DD00022C7
:109320000A7000224A7003228A700122CA70C82281
:1093300012018A80284ACA803F220A8101228A7249
:109340002222CA72AD22D200CA60244A0A61FF22D8
:1093500096324A61E3228A61DC22CA6162220A6291
:109360007D224A6225228A624B22CA620B220A634C
:109370002F224A6301228A632F22CA6301220A64D0
:10938000AB4A4A64AB4A8A64C822D201CA64C82282
:10939000D2000A650022100001E00422100000BD86
:1093A00030B50200C9B200290FD0C9B210290CD2C1
:1093B0005368A14C1C40C9B20B04F0252D031D407D
:1093C000254355600023180001E00423180030BD38
:1093D0000000000000700440C40900005C040000AC
:1093E000F0B503000020002A00D120E1556816687E
:1093F000B54200D31BE115685668AD1B2C00C9B2FD
:10940000012912D000D210E1032944D026D3052926
:109410007BD05DD3072900D1B1E000D292E00929C9
:1094200000D1E4E000D2C7E0FFE080256D02AC424D
:1094300011D2156880267602B5420CD21D6A2D0C19
:109440002D041668B6B22E431E621D6AADB2260404
:109450002E431E6201E004252800E8E080252D024D
:10946000AC4215D2156880263602B54210D25D6A2C
:10947000ED0BED0316687604760C2E435E625E6A91
:10948000B74D35402604B74F37402F435F6201E0A8
:1094900004252800CBE08025ED01AC4215D21568EB
:1094A0008026F601B54210D29D6AAD0BAD03166859
:1094B000B604B60C2E439E629E6AAB4D3540260420
:1094C000AA4F37402F439F6201E004252800AEE0F9
:1094D0008025AD01AC4215D215688026B601B54293
:1094E00010D2DD6A6D0B6D031668F604F60C2E4380
:1094F000DE62DE6A9E4D35402604C14F37402F4361
:10950000DF6201E00425280091E080256D01AC4276
:1095100015D2156880267601B54210D21D6B2D0B31
:109520002D0316683605360D2E431E631E6BB54D92
:1095300035402604B44F37402F431F6301E0042514
:10954000280074E080252D01AC4215D215688026D4
:109550003601B54210D25D6BED0AED021668760554
:10956000760D2E435E635E6BA84D35402604A84FF2
:1095700037402F435F6301E00425280057E0802532
:109580002D01AC4215D2156880263601B54210D2A5
:109590009D6BED0AED0216687605760D2E439E63EF
:1095A0009E6B9A4D35402604994F37402F439F6359
:1095B00001E0042528003AE080256D02AC4213D278
:1095C000156880267604B5420ED2DD682D0E2D0674
:1095D00016683602360A2E43DE609D682D0C2D0477
:1095E000A6B22E439E6001E0042528001FE05568C6
:1095F0008026F603B54215D215688026F603B542DB
:1096000010D2DD69AD0DAD051668B602B60A2E435F
:10961000DE619D69AD0DAD055668B602B60A2E43F2
:109620009E6101E00425280001E004252800F0BD2A
:10963000206900007D5F0000FFFFF0FF70B50400AF
:109640000D00A97A2000FFF7ABFE0600002800D02D
:1096500084E02A000C3201212000FFF7C1FE060041
:1096600000287BD12A00143202212000FFF7B8FE27
:109670000600002872D12A001C3203212000FFF7C7
:10968000AFFE0600002869D12A0024320421200000
:10969000FFF7A6FE0600002860D12A002C32052123
:1096A0002000FFF79DFE0600002857D12A00343223
:1096B00006212000FFF794FE060000284ED12A0064
:1096C0003C3207212000FFF78BFE0600002845D121
:1096D0002A00443208212000FFF782FE06000028FD
:1096E0003CD12A004C3209212000FFF779FE060008
:1096F000002833D12068474901406878C0018022A2
:10970000104008432060206843490140A878800049
:109710000C2202400A432260206840490140E87858
:109720008007800F08432060206980B2A98809045F
:10973000014321612069000C0004E988084320618D
:109740006069800A800229898905890D0143616168
:109750006068FF218843E97A01436160300070BD91
:10976000FFFF00800000FF7FFFFF00C00000FF3F01
:10977000FFFF00E000B502000907090F04234B4377
:10978000D3181B6C18000F2901D1136C190000BDF0
:1097900070B504000E00002C2ED0002E2CD02048D6
:1097A000FFF7B0FD20681F490140802040020843B8
:1097B000206020681C49014040200843206031009F
:1097C0002000FFF73BFF0500002817D1206815494E
:1097D0000140216020681549014020200843206095
:1097E0003078002805D0B020205802210143B02055
:1097F00021500020050001E004200500280070BD74
:109800000000FF1FFFFF00F00000FF0FFFFF00F848
:109810000000FF077FEFFFFFF3EFFFFFFCEFFFFF0D
:1098200009003C10FFEFFEFFBFEFFFFFDFEFFFFF80
:10983000F3B585B0170000200290069D002000902F
:10984000059800284CD00698002849D0002F47D012
:109850000598006801004905C90F002906D105983F
:1098600000680100C904C90F0029F1D005980068FB
:109870000100C904C90F002909D0012002900598F0
:109880000068802149010143059801601EE00099AC
:109890000598FFF76FFF03900098401C009003A805
:1098A0000400042F01D2019701E004200190002060
:1098B00006000198864205D220782870641C6D1C31
:1098C000761CF6E701983F1A002FC1D100980007D7
:1098D000000F0F2806D00F210598FFF74BFF01E07E
:1098E00004200290029807B0F0BDFEE700B548489A
:1098F0000068002809D046480068401E44490860B6
:1099000043480068002800D162B600BD72B64048E6
:109910000068401C3E49086070473E480068704738
:1099200000B5062000213D4A14234343D218D160DC
:109930000100481E00290AD03849142242438918E0
:109940001431364A14234343D218D160F0E7334927
:10995000414A116000BDF2B5070000263E4800688C
:10996000002853D03C48006804003B480068C068A9
:109970003949086038682060012020717868E080EB
:109980000098A0600020E06000202061224800686C
:1099900000280CD1204804601F4800681E4909684F
:1099A000C8601D4800681C49096808612DE01A4814
:1099B0000068C088E188884207D317480168200002
:1099C00000F01EF9144804601FE0E088124909689D
:1099D0000969C988884205D30F480168200000F052
:1099E0000FF912E00C480068C06805000A480068DA
:1099F00085420AD0E888E188884204D32900200003
:109A000000F0FEF801E0ED68F0E726003000F2BD5E
:109A1000809B0020749B00207C9B00200C940020E5
:109A200070B5040000F076F8714800F08FF8060079
:109A3000350000F06BF8002D01D100200BE0002074
:109A400030710020306134750020B0600020F0607B
:109A50000020B061280070BD789B002070B5040024
:109A60000D002100624800F086F8002801D1012095
:109A70000EE02600FFF74AFF306928433061B069E5
:109A8000002802D00120B1690871FFF72FFF0020E4
:109A900070BDFDB50E00089C0325002C01D10120EE
:109AA00033E00099524800F066F8002801D1012007
:109AB0002BE000980700FFF729FFFFF72EFFB861A2
:109AC00038693040206068460079002802D120685B
:109AD000002802D12068B0420AD100203871387DB8
:109AE000012802D13869B04338610020050008E040
:109AF0000298002802D10220050002E00020B96986
:109B00000871FFF7F3FE2800C0B2FEBD80B5FFF775
:109B1000EDFE01BD80B5FFF7F9FE01BD38B50500CA
:109B20000C002100280040B205F066FA31BD80B576
:109B300000F037F805F09BFA00F069F800212D4895
:109B4000FFF709FF00F032F8002002BD00B5010068
:109B50000B6800200200886882420AD21868002838
:109B600003D101201860180004E048681B18521C3B
:109B7000F1E7002000BD10B50200146800200300CA
:109B8000906883420BD28C4205D12068002801D016
:109B9000012005E003E0506824185B1CF0E700207A
:109BA00010BD80B5FFF7BCFE002002BD80B5124895
:109BB000006812490860114800680079002810D038
:109BC0000E4800680068002806D00C4800688068CD
:109BD0000A49096809688847074800680749086012
:109BE000E9E706480068C06804490860E3E7000048
:109BF0007CCA0200040700207C9B0020749B00208C
:109C0000C1600A6902610A69D060086170477047E3
:109C1000002803D00A4908600020704701207047DF
:109C200010B5074C20680021064A0023FCF74EFCC3
:109C30000422D2430023FCF762FC2260104610BDD0
:109C4000B8080020C160A8101206130A1A43130CAA
:109C50001A4300BF094205D083070BD00270401C95
:109C6000491EF9D1704700001206130A1A43130C5B
:109C70001A4300BF130030B414001500103902D38A
:109C800010393CC0FCD2490700D30CC000D504C039
:109C9000890002D30280801C002900D5027030BCEC
:109CA000704700000022D5E70022E3E7F4460028D1
:109CB00004D4494200F013F8404260474042002972
:109CC00005D45FD000F00BF840424942604749425A
:109CD00000F005F84942604703460B43E6D40022F2
:109CE000030A8B420BD203098B4219D243088B42E1
:109CF0002ED2411A00D20146524110467047FF222F
:109D000009023FD012068B4205D3121209028B4280
:109D100001D31212090203098B4219D300E0090A88
:109D2000C3098B4201D3CB01C01A524183098B4234
:109D300001D38B01C01A524143098B4201D34B011D
:109D4000C01A524103098B4201D30B01C01A524180
:109D5000C3088B4201D3CB00C01A524183088B4207
:109D600001D38B00C01A524143088B4201D34B00F0
:109D7000C01A5241884200D3401A5241CFD2014604
:109D80001046704708B505F021FA08BD38B5002027
:109D900000F0BBFB002000F0C5FB012000F0B5FB8C
:109DA000012000F0BFFB924C92486061924D2978EF
:109DB000E822514305F064FB0020002100E0491C2B
:109DC0002B78CAB29A4207D26269C9B2E8234B43E0
:109DD000D2588A4B9A42F2D02170607032BDF4B5ED
:109DE00082B000240094864E864A01251788B74227
:109DF00043D1009EA6277F007E4396193080B01C79
:109E00004470847003703000143001710021029A94
:109E1000525C73185A76491C0629F8DBA1214900C7
:109E200072180B991170002909D00C9951700D9975
:109E3000083F0A5D3319DA55641C062CF9DB7249B8
:109E4000009AE8235A438C1804600999002906D126
:109E50003100203130001F3000F03BFB06E0C572BE
:109E600006220A9930002030FAF7FAFD6348206094
:109E70000098089908700020FEBD0095A6277F0075
:109E8000D75BB742B5D00220FEBD10B500245D49B6
:109E90000A88824211D1A620400060430818C07889
:109EA000002803D1200000F03DFB01E000F044FB5E
:109EB000200000F02AFB002010BD0124A622520041
:109EC0008A5A8242E7D0012010BD010000204D4A8D
:109ED00013888B4206D00120A6235B00D25A8A4207
:109EE00000D0FF20704738B50C00010002290CDAC1
:109EF000444AA6235B00594355182988404A914299
:109F000003D03D4A1278944201D3012032BD00F0C3
:109F100009FB0120E87036484069E8214C430019EC
:109F20006861002032BD32480078704738B5022899
:109F300008DA344BA6246400604318180388304CB8
:109F4000A34201D1012032BD002344699D00641960
:109F50005E3425888D4202D0002D02D12180A2706E
:109F600025E05B1CDBB2102BEFDB684832BD30B55F
:109F7000022808DA234BA6246400604318180388DB
:109F80001F4CA34201D1012030BD002344699D0034
:109F900064195E3425888D4203D1A07810700020AA
:109FA00030BD5B1CDBB2102BF0DB9B4830BD00F0FA
:109FB000C3FA002032BD38B50400080011001A00B1
:109FC000022C0BDA0F4BA6256D006C431B191C8865
:109FD0000B4DAC4202D08C18312C01DB012032BD7C
:109FE0005B695918B431FAF73BFD002032BD00001F
:109FF00038990020206E0020D40800209D7C4B3A28
:10A00000FFFF00002C7E00205C89002038B5040092
:10A0100008001900022C08DAA34BA6256D006C433A
:10A020001C192388AB4DAB4201D1012032BD6369BD
:10A030009E25585501252571049860716069A823F3
:10A04000C254002A0BD0102260691B30FAF708FDB9
:10A050001020616988766069417E0D4345766069AC
:10A06000563000F07FFA00280AD1207E61695C2218
:10A07000885406222100193160695630FAF7F0FC45
:10A08000002032BDF8B50600022E08DA8648A62464
:10A0900064007443071938888E4CA04201D1012016
:10A0A000F2BD069800903000FFF7B0FF9A480178A3
:10A0B0009A4D2878884201D10220F2BD002404E0A4
:10A0C0000268974B9A420BD1641C6869E4B2E8229B
:10A0D000624380188C42F3D3A14201D10820F2BD23
:10A0E000F97800290DD1E822A649E8237343C9185D
:10A0F000FAF7B6FC21003000FFF7F5FE2878401C87
:10A10000287000F019FA0020F2BD000001080000DC
:10A1100070B50C00022808DA6349A62252005043A9
:10A120000D1828887F49884201D1012070BD002682
:10A1300069694E76606800282DD020786969887634
:10A14000002005E06268125C0918CA76401CC0B2A3
:10A15000696922789042F5DB6069002812D0207C82
:10A160002B22885400202C2305E06269125C091818
:10A17000CA54401CC0B26969227C9042F5DB208B36
:10A18000888603E02B228E5469698E866869417E39
:10A1900001220A434276A06800281ED00020362300
:10A1A000A168095C6A691218D154401C1028F7DBB9
:10A1B0006869417E02220A4342761A20205600280E
:10A1C00004D0E06900F0CEF9002811D0A07E6969C2
:10A1D0005C2288540622E16906E0287E69695C22D7
:10A1E000885406222900193168695630FAF738FC7C
:10A1F000E06800280DD0E068805D69698919462211
:10A200008854761C102EF6DB6869417E04220A43CE
:10A210004276002070BD00000208000010B50C005E
:10A220003E490B78984201D3012010BD4969E822CC
:10A230005043081801005B3101228A56002A09D0D8
:10A240000978C0220A40C02A06D1563000F08AF9A7
:10A25000002802D0012000E000202070002010BD66
:10A2600010B52E4A1478A04201D3012010BD5269C6
:10A27000E82358431018192280560006400EC207E2
:10A28000D20F0A70002010BD10B5244A1478A042E5
:10A2900001D3012010BD5269E823584310185630ED
:10A2A0000860002010BD00002C7E002010B51B4A65
:10A2B0001478A04201D3012010BD5269E82358430D
:10A2C0001018427E920701D4032010BD363008607A
:10A2D000002010BDFFFF00009D494A69E823434369
:10A2E000D2180978884204D3507E400701D4002058
:10A2F000704710003630704710B5954A1478A04268
:10A3000001D3012010BD5269E82358431018B02230
:10A3100080580860002010BDD40800203899002023
:10A320009D7C4B3AFFFF0000F1B581B00C00884DD9
:10A33000684600792978884201D30120F6BD0026BD
:10A3400000278448A6214900794340180188824AA1
:10A35000914211D0C17801290ED169460979009145
:10A3600040696969401AE821FFF7B6FC009981420B
:10A3700002D10120207003E07F1C022FE1DB267058
:10A380000020F6BD5C890020F1B586B070480078E9
:10A3900001005AD06946097E814201D3012055E06F
:10A3A000401EC0B20490002000210024049AE8233B
:10A3B0005A430392664A5269039BD31802936B4631
:10A3C0001B7EE82673430193D2180092614EA622A9
:10A3D00052004243B21813885F4FBB4209D0536901
:10A3E000009FBB4200D10121029FBB4201D1012449
:10A3F0000500401C0228EADB002901D0092025E0E5
:10A400006846007E0499884210DAE8220299009892
:10A41000FAF726FB002C09D04D48406901994018F5
:10A42000EDB2A62149004D4371194861E82200218F
:10A4300047484069039BC018FAF73CFB4448007842
:10A44000401E4349087000F077F8002007B0F0BDC7
:10A4500010B53F4C2078002818D03F483D490A8865
:10A46000824201D0092010BDA6225200895A8142A1
:10A47000F8D13A480278E820424300216069FAF7AF
:10A4800019FB0020207000F057F8002010BD0021BB
:10A49000425C2F4B5B181A71491C0629F8DB00201F
:10A4A00070472B494870002070470021425C284BC0
:10A4B0005B181A73491C0629F8DB0020704700213D
:10A4C000234A521812794254491C0629F8DB00200D
:10A4D0007047002801D0002901D1012070471C4A93
:10A4E0000123D35603700020002B06D113181B79CB
:10A4F0000B54401C062806DAF8E713181B7B0B5494
:10A50000401C0628F9DB0020704710B5A622520037
:10A51000104950430C1800212000FAF7CBFA0E48DE
:10A52000208010BD10B5E82200210D4BE8246043C7
:10A530001818FAF7BFFA10BD80B504F088FF074875
:10A540000178E82041430248406904F08DFF01BDD5
:10A55000389900202C7E0020FFFF0000D408002046
:10A560005C8900200021425C002A01D00120704754
:10A57000491CC9B20629F6DB0020704738B5050032
:10A580000C00103C2100280001F02BFC32BD38B536
:10A5900005000C00103C2100280001F046FC32BDF3
:10A5A00038B50400200001F064FC0500002D01D046
:10A5B0001035FFE7280032BD38B500243D4D28781E
:10A5C00000280AD100F0B2F805F0A8F93A493B4852
:10A5D000FCF7B9FA0120287001E0FC24A400200057
:10A5E00032BD38B50300022B0EDA354CA6256D00BE
:10A5F0006B43E35A4B4CA34206D013000A00010000
:10A60000042000F090F932BD012032BD38B50300BE
:10A61000022B0EDA2A4CA6256D006B43E35A414CFF
:10A62000A34206D013000A000100062000F07BF9C7
:10A6300032BD012032BDF8B506000D002F886888B4
:10A64000694608807246002138004A30FEF76BFDEB
:10A65000040001D10520F2BD6846008800280DD015
:10A66000042804D0052804D0062803D004E00520DF
:10A6700000E00420207005E0072020706846008874
:10A68000002815D0668068460088A080E7803A00E0
:10A69000291D20000830FAF7E3F921002248FFF7CE
:10A6A0006DFF01211E480068FFF7D8F90020F2BDB8
:10A6B000200031E0329C002037A60000C5A6000033
:10A6C0002C7E0020F8B50400724600214A20FEF7D7
:10A6D0002AFD050001D10520F2BD20783E2816D1C3
:10A6E0000F4F114EA078032802D0062811D012E097
:10A6F0000E2028700A22E11CA81CFAF7B1F92900E3
:10A700003000FFF73BFF01213868FFF7A7F9002071
:10A71000F2BD0F20EDE72800FEF73AFD0120F2BD63
:10A72000489B0020FFFF00003C9A002010B5934C8E
:10A730007C2200212000FAF7BDF9201D17210170AD
:10A7400041210172E3214161F82149008161FF202B
:10A75000210032310870C87721005A310870C8775B
:10A76000002010BD854902688A614268CA6100897B
:10A7700008840020704701000020804A1368002BE5
:10A7800001D11160704795487047010000207B4A55
:10A790009368002B01D19160704790487047F7B5DE
:10A7A00086B0002600256846018B007F00F032FA53
:10A7B0000400724F32D02420205600282CD102A849
:10A7C0000C21FFF771FA6846008C6082FF2021009F
:10A7D0002431487001956846008C00906389228975
:10A7E00021886846007F05F043FA03202421605445
:10A7F00002A86946097F0170A1898180E189C18031
:10A80000618A01814681218841807A6910004CD09B
:10A8100002A90120904748E0874D46E06846008B3A
:10A8200000F0A9F90500012D01D1824D3DE000F0B5
:10A8300077FA040001D1B94D37E0B9486080684625
:10A84000007FA071FBF729FB210024314870FF280D
:10A8500004D1200000F068F9B24D26E0A8003818B5
:10A86000408D2081388C608126826846008C608211
:10A870006846008BA08024202654608A019060895D
:10A880000090238922886846018B007F05F0B3F988
:10A8900005000AD10120242160542300BA4ABB4993
:10A8A000200024304078FBF7C1FB280009B0F0BD40
:10A8B00070B50600002500F081F9040008D0228858
:10A8C0006188300005F070F802202421605401E016
:10A8D000FE25AD00280070BDF0B583B00D00170057
:10A8E000002402291DDABF4AA6235B005943515AAE
:10A8F0008B4A914215D00100280000F08BF9060028
:10A900002420305600280AD101970090002300220D
:10A910000021280005F0ACF9300000F005F9200016
:10A92000FEBD0124FBE7F1B50E0017001D007246C5
:10A930000021281DFEF7F7FB040001D10520F2BD20
:10A9400068460088A070000AE0702570280A6070D0
:10A950002A003900201DFAF783F82D1DAAB2210024
:10A96000A048A6235B005E43805BFCF73DFB05002F
:10A970002000FEF70DFC2800F2BD00002C8B00200B
:10A9800038B5040000252188A07800F017F90100EF
:10A99000A06803D1FEF7FCFBFE2015E024228A56B6
:10A9A000002A03D1FEF7F4FBA74832BDA2888B89A9
:10A9B000934203D2FEF7ECFB584832BD4B69002BA3
:10A9C00004D0FEF7E5FBFF20800032BD48610A831A
:10A9D0004D83080000F03CF932BD0000F303000095
:10A9E00070B582B004002088FFF76FFA0600974D1B
:10A9F0006088042802D0062810D073BD6946300054
:10AA000005F066FD002802D0287969460880A288F2
:10AA10006846008890420BD32B6804E0A288287B0C
:10AA2000904205D3AB68180002D0A11D30009847B2
:10AA300073BD0000F6030000FA030000F8B505003E
:10AA40002888FFF742FA0700022866DA6549A6223D
:10AA500052005043085A324988425ED06988380013
:10AA600000F0ACF8040006D16888020402212888AE
:10AA700004F056FFF1BD608A002815D0AE88A81DED
:10AA80000090E06900281DD1A979E8790002084307
:10AA900020840099891C0091B61EB6B2218981429A
:10AAA00002D36089B04203DA200000F03DF8F1BD26
:10AAB00072460021208CFEF736FBE06100216184A4
:10AAC00000282AD0608A401E608232000099E06926
:10AAD000638CC018F9F7C4FF608C80196084238CE4
:10AAE0005A4D80B283420BD12E69300003D0E26907
:10AAF00021883800B047E069FEF74AFB0020E0619A
:10AB0000608A002809D168460770218841806A69F7
:10AB1000100002D0694603209047F1BDF703000002
:10AB2000FFFF0000F1030000F8B50400B74DC0CDF1
:10AB3000083D0020802109062288403A06F01AF8D4
:10AB4000C043C9433040394003C56069002801D083
:10AB5000FEF71EFBE069002801D0FEF719FB252057
:10AB6000205CFBF7BBF9282200212000F9F7A2FFA7
:10AB7000FF20A071F1BD01000020B24A128D8A426F
:10AB800000D001207047000011AE0000002D3101FF
:10AB900030B503000024AB482825654340192C300C
:10ABA00085799D4205D105888D4202D1458895421F
:10ABB00003D0641C022CEEDB002030BD10B5020077
:10ABC0000023224828245C4300192C3084799442C5
:10ABD00002D104888C4203D05B1C022BF1DB0020E5
:10ABE00010BD00002C7E002030B50022954B28249B
:10ABF00054431B191C002E342579854205D1248825
:10AC00008C4202D118002C3030BD521C022AEDDBE0
:10AC1000002030BD30B500228A4B282454431B1934
:10AC20001C003034A578854209D125888D4206D193
:10AC300020256457032C02D018002C3030BD521C44
:10AC4000022AE9DB002030BDF90300002C8B002034
:10AC5000F0B583B0040000266F4638E02A18121FB2
:10AC60001A702A18121F120A5A7062880A706288B3
:10AC7000120A4A70228A521E2282421992B2891EF8
:10AC80007148A379A62676007343C05AFCF7ACF945
:10AC90000600608B40196083218B80B2884204D10A
:10ACA0006069FEF775FA00206061208A00280ED1E5
:10ACB00068A003C86A4603C2A079387020887880EB
:10ACC00060484269100002D0694604209047242061
:10ACD0002056032822D1208A00281FD0616900292C
:10ACE0001CD00420638B1A0008D1208B0871000A45
:10ACF00048710620E1898A1E636902E0E289C91869
:10AD00008B1C218B658B4D1BADB2991C92B2AA4254
:10AD1000A4DA1500E2891A70E289A4E73000FEBDCA
:10AD2000F8B500208021090600220092474B1C88BC
:10AD3000002C0AD0012400941B8D002B05D0F2BDFD
:10AD4000521C4008CB0718434908304B30CB060053
:10AD50000F0026402F40F3D1002EF1D13948009941
:10AD600028235943461810004030B0850020802128
:10AD7000090605F0FFFE20432943244A03C23000A0
:10AD80002C30F2BD00212F4A28234B43D2183232F7
:10AD90001378834205D11E23D356042B01D10323FC
:10ADA0009377491C0229EEDB70470021254A2823AE
:10ADB0004B43D21832321378834205D11E23D35627
:10ADC000032B01D104239377491C0229EEDB704742
:10ADD00010B5032200211B4B440020181818223004
:10ADE000F9F768FE10BD38B5040000251548282184
:10ADF000694340183221415CA14202D12C30FFF757
:10AE000093FE6D1C022DF1DB31BD0000E09A0020A5
:10AE100010B584B0040068460C21FEF745FF684673
:10AE2000A17901700A494181218841800548426920
:10AE3000100002D06946012090472000FFF774FE01
:10AE40001FBD00002C8B00202C7E0020588B002082
:10AE5000FEFF000000000000000000000121C2060B
:10AE6000D20E9140654A116070470121C206D20E90
:10AE70009140634A11607047F0B540B2002821D577
:10AE8000604C40B20207120F083A9508042255435D
:10AE90005C4A40B203071B0F083B9B080426734320
:10AEA000D258FF238607B60F08277E43B3409A4344
:10AEB0008B01DBB28607B60F08277E43B3401343EE
:10AEC00063511AE0504A40B2830804246343D258C5
:10AED000FF238407A40F08256C43A3409A438B01EA
:10AEE000DBB28407A40F08256C43A3401343464AF2
:10AEF00040B2840804256C431351F0BD006D7047C7
:10AF00000165704710B4026818239A431400C9B24F
:10AF1000CB0018221A402243026010BC704700B5D3
:10AF20000168182291430160016818220A40002A32
:10AF3000FAD100BD70B50400344845683449280092
:10AF400005F04BFE2800FFF7EAFF3248A860012316
:10AF500010220021280005F089FE2F4801214056CB
:10AF60000600FF21891C280005F0DCFE210076B2D6
:10AF70003000FEF7D3FD0221300040B2FFF77CFF26
:10AF8000300040B2FFF771FF300040B2FFF766FFBC
:10AF900070BD80B501211D484068FFF7B3FF01BDBA
:10AFA00080B51A484068FFF7BAFF01BD38B50120E7
:10AFB00000F0C6FE050016480078040028000121B4
:10AFC000A140FEF78CFE32BD1048406840687047D3
:10AFD00010B504002300102200210C48406805F041
:10AFE00045FE10BD10B509484068FFF787FF040013
:10AFF000210006484068FFF783FF10BD00E100E034
:10B0000080E200E01CED00E000E400E034080020F5
:10B01000C4CA0200FFFF0000B0CB020080B5244884
:10B020000068002820D10120FEF7FAFC21490860C1
:10B0300020480068002806D10023002200210020BB
:10B0400005F08DFE10E000211B48FEF784FC184936
:10B05000086017480068002806D10023002200215C
:10B06000002005F07CFEFFE701BD1CB5040001A82F
:10B0700000900023DB43002210490E480068FEF7D1
:10B0800008FD0198000C002802D00020FBF730F8E2
:10B0900001980B49014301910198002802D000203A
:10B0A00005F06EFE074800780028E0D113BD0000CF
:10B0B000949B0020909B002024070020FFFFFF00AE
:10B0C000FFFF00001F7101007047FEE78446087013
:10B0D000000A4870000A8870000AC870604670470D
:10B0E000C3788278417800781B021A43090212045F
:10B0F000084310437047FEE70121C206D20E91407B
:10B10000864A11607047F0B540B2002821D5824CC4
:10B1100040B20207120F083A9508042255437E4AAE
:10B1200040B203071B0F083B9B0804267343D25809
:10B13000FF238607B60F08277E43B3409A438B014F
:10B14000DBB28607B60F08277E43B3401343635133
:10B150001AE0924A40B2830804246343D258FF2382
:10B160008407A40F08256C43A3409A438B01DBB2EC
:10B170008407A40F08256C43A3401343874A40B2B9
:10B18000840804256C431351F0BD00B58449096857
:10B19000634A0A4082490A6062490968624A0A4071
:10B1A0008021890511435F4A1160C0B20100491E28
:10B1B00005D0491E032909D9091F0ED013E078498B
:10B1C000096831220A4376490A600CE0744909682B
:10B1D00011229143724A116005E0714909681122F8
:10B1E00091436F4A116000BD00B56E496E4A1180EF
:10B1F000C0B2002808D06D49C0B20222424389186B
:10B20000891E0988864A118000BD00B5644800681F
:10B2100001008906C90F002905D06148006860490E
:10B220000860012000E0002000BD00B55E4A1288E1
:10B2300011000A0092B2920A10000A0092B252095A
:10B240005207520F8018CA0600D0401C80B200BDC1
:10B2500020207449088050208F49088070478F490A
:10B2600008807047AB48008880B27047A9490988B8
:10B270008143A84A11807047A64909880143A54A1D
:10B2800011807047674909880143664A11807047F9
:10B2900000B5C0B20100491E08D0491E012909D9D4
:10B2A000891E01290AD9891E0CD00EE00521AF4A5A
:10B2B00011700AE00921AD4A117006E00821AB4A7D
:10B2C000117002E00021A94A117000BD10B5040000
:10B2D0007348E4B2005D002802D000F0A8FA07E04D
:10B2E0006F48B6490978405C002801D000F0C7FAE1
:10B2F000B248047010BDB148007870479C4800689F
:10B30000042188439A4908609948006802218843CB
:10B310009749086030BF70471CED00E000E100E095
:10B32000FFFFBFFF24910540FFFFFFEF00B57A4804
:10B330000078794908707948007878490870784829
:10B34000007880210143764801707648007880219A
:10B35000014374480170864800680221884384498B
:10B360000860834800680421014381480160AE48B9
:10B370000078FC21014004200843AB4908700120FB
:10B380007C490870A8480078C0B2002801D101208B
:10B3900000E00020C0B230BF00BD000000E400E0CB
:10B3A00000900540230D00005CB00540B8CA0200C3
:10B3B00000B55948007858490870584800785749EE
:10B3C000087057480078802101435548017055485E
:10B3D00000788021014353480170654800680221CC
:10B3E000884363490860624800680421014360485B
:10B3F00001608D480078FC210140042008438A49FF
:10B40000087002205B49087087480078C0B20028A5
:10B4100001D1012000E00020C0B230BF00BD00001B
:10B4200062B0054004B0054000B53B4800783A4999
:10B4300008703A4800783949087039480078802106
:10B44000014337480170374800788021014335486F
:10B450000170474800680221884345490860444814
:10B46000006804210143424801606F480078FB21D5
:10B470000140032008436C49087002203D490870D0
:10B4800069480078C0B2002801D1012000E0002006
:10B49000C0B230BF00BD000000B0054060B0054044
:10B4A00048CB020000B51C4800781B4908701B48B7
:10B4B00000781A4908701A4800788021014318481A
:10B4C000017018480078802101431648017028480F
:10B4D0000068022188432649086025480068042145
:10B4E00001432348016050480078FB2101400320BC
:10B4F00008434D49087003201E4908704A480078E7
:10B50000C0B2002801D1012000E00020C0B230BF4D
:10B5100000BD000008B0054005C0074006C0074058
:10B5200008C0074009C0074000B511480068022163
:10B5300088430F4908600E480068042101430C4805
:10B54000016039480078F821014037480170002037
:10B550000849087034480078C0B2002801D10120A1
:10B5600000E00020C0B230BF00BD000004C00740B2
:10B5700010ED00E002E0074000B583490978C9B248
:10B580000800010081480078C0B2000208430100B1
:10B590007F480078C0B200040843A0490978090632
:10B5A00003D50100802040040843BA490978090600
:10B5B00003D5010080208004084300BDDA08002084
:10B5C00010B5FFF7D9FF0400C020800120400028FB
:10B5D00005D0B148007804210143AF480170E00371
:10B5E0000BD5AD48007808210143AB480170AA484B
:10B5F000007840210143A848017060030BD5A6489C
:10B60000007820210143A4480170A348007840211C
:10B610000143A1480170200305D59F48007802210D
:10B6200001439D48017010BD01E00740FFB50025B2
:10B6300004278026360200989849884201D3B048F2
:10B6400000900098002102000B00100019008022D9
:10B6500012020023FAF73AFF02000B001000190053
:10B66000FA2292000023FAF74AFF02000B001400AE
:10B67000200C0004002809D0FFB2002F02D00020C7
:10B68000070000E06D1C64087608F1E7E900394323
:10B69000022008430199087002980460039806602C
:10B6A000FFBD38B505000C00FEF734FA9548006878
:10B6B0000121884393490860002C00D0641E924801
:10B6C0000460002091490860EDB2914805608D4802
:10B6D0000068042101438B4801608A480068012109
:10B6E000014388480160FEF711FA31BD80B5FEF7CD
:10B6F00011FA84480068C00718D500208549086001
:10B7000084480068814908607E48006800060DD5BD
:10B710007D49096808007D490968814206D27B4954
:10B720000968802252028918784A1160FEF7EEF902
:10B730007648006802BD80B5FEF7ECF971480068F4
:10B74000C00718D5002073490860724800686F4927
:10B7500008606C48006800060DD56B490968080050
:10B760006A490968814206D2684909688022520202
:10B770008918664A1160634800680121884361495D
:10B780000860FEF7C3F901BD05C0074006C00740C9
:10B7900007C0074038B56048006804005F4800688B
:10B7A000050028002040C00405D5A84800780221E3
:10B7B0000143A648017028002040400605D5A34853
:10B7C000007802210143A148017028002040A021F7
:10B7D000C9040140002905D09C480078102101438C
:10B7E0009A48017028002040C0000BD59748007887
:10B7F0000821014395480170944800784021014395
:10B800009248017005F09CFF002805D08F48007811
:10B81000042101438D48017031BD000008C007407C
:10B82000384800688021014336480160704780B580
:10B8300087491C20FEF772F9864800680121014300
:10B840008448016080202F49086002202E4908604A
:10B8500081480068FF2188437F4908607E4800686E
:10B86000802101437C4801602B4800688021490504
:10B8700001432948016040202249086001BD802021
:10B8800020490860734800680121884371490860B5
:10B890007047000009C00740B89B002019FCE7036F
:10B8A00010B5FFF769FE04006C4800786B4908701A
:10B8B0006B4800786A490870E00305D511480068B4
:10B8C000802101430F48016060030AD56548006884
:10B8D00001008906C90F002903D062480068614948
:10B8E000086020030BD560480068042101435E48CE
:10B8F00001605D480068042188435B49086010BD11
:10B9000018FCE7030000044008000440B49B00203A
:10B91000040004400C00044000E100E000E200E00C
:10B9200038B55248006852490140504801605148BA
:10B9300000688021890501434E4801604E48006837
:10B94000C00512D44C4800684C4901404A48016087
:10B950004948006880214900014347480160464842
:10B960000068474901404448016046480078C007E4
:10B970000BD5FFF725FE43480078400605D5334830
:10B9800000780121014331480170C024A401002046
:10B9900000210D00A4B2002C0BD0E10705D5032136
:10B9A0002A005200914001430800A4B264086D1CB3
:10B9B000F0E70100344A1170010A344A11700100A5
:10B9C000090C334A1170000E324908708020324948
:10B9D00008708020314908702A20314908703149A7
:10B9E0000720FEF79BF80720FFF786FB02210720C0
:10B9F000FFF789FB17480068000106D41548006866
:10BA00008021090501431348016027480078FFF7AA
:10BA1000EBFB25480078FFF7B8FB23480078FFF7D9
:10BA200037FC224820490978405C002801D0FFF704
:10BA3000FEFE1F480078CF2101401D4801701D48BF
:10BA40000078DF2101401B48017031BDB89B002008
:10BA500021B80000388004401CE400E005C0074025
:10BA600006C007400090054018A005400070044043
:10BA7000FFFFF3FF3C80044010D00340FFC3FFFFF3
:10BA8000FFFDFFFF00F0074000C0074001C0074076
:10BA900002C0074003C0074008C0074009C0074074
:10BAA00000E00740A1B80000DA08002048CB0200FF
:10BAB00000D0074001D0074010B50400200005F079
:10BAC000A1FE10BD010C5A4A89180A68012383405F
:10BAD00013430B607047574909684E4A0A40810674
:10BAE000C0231B050B40134352490B60704751495B
:10BAF0000968494A0A400106C0239B040B401343CE
:10BB00004C490B6070478020C0024B490860704769
:10BB10004A49086070474A49086070470170704799
:10BB200030B404234B43C358464C1C40D2B21302DA
:10BB3000E025ED001D40254304234B43C55030BC98
:10BB4000704780B54048FFF7BDFF68480068802116
:10BB5000490001436548016001BD80B52A2187483D
:10BB6000FFF7DCFF002211218548FFF7D9FF0022F3
:10BB700010218348FFF7D4FFFFF7E3FF814800F06F
:10BB80000CF80220FFF7A7FF0220FFF7B0FF01BD6E
:10BB900080B5844806F0B4F901BD10B582B0040048
:10BBA000FFF7B1FF2000103006F060FD7E48FFF780
:10BBB000AFFF80200002FFF7AEFF2078022804D0FC
:10BBC000032811D0052806D01CE06278A178E0781F
:10BBD00006F0E1FD16E0E07906F001FEE278A178DA
:10BBE000607806F0E3FC0DE0002000906379A27914
:10BBF0002179E07906F0BCFDE278A178607806F062
:10BC0000D5FCFFE72000083006F029FCA069674951
:10BC1000086013BDFFFFFFF3FFFFFFFC80B5664820
:10BC2000FDF760F96548FDF760F901BD000000000F
:10BC3000007004400480044044800440549B002071
:10BC4000589B0020FFF8FFFF1D003C1070B5060058
:10BC5000F6B2002E20D000200400132C34D2584815
:10BC60000221614340184178554802226243805CBA
:10BC700006F096FE53490422624388500022504841
:10BC800002216143401841784D4802236343C05C60
:10BC900006F0AFFE641CE0E700200400122005005F
:10BCA000132C11D2474804216943425844480221C9
:10BCB000694340184178424802236B43C05C06F058
:10BCC0007AFE641C6D1EEBE770BD000080B505F0C8
:10BCD0004FFD0120FFF7BAFF3548006835490140A4
:10BCE0003348016006F0ECF901BD000010D00340BC
:10BCF00080B506F023FA05F03CFD0020FFF7A6FF13
:10BD000001BD70B5040030480068800E8607B60F8C
:10BD1000012E04D00FD3032E09D004D30BE006F07C
:10BD2000CFFB050009E006F019FB050005E006F071
:10BD3000EDFB050001E000200500280070BD0000BB
:10BD400070B5040020480068000E8607B60F012E6B
:10BD500004D00FD3032E09D004D30BE006F0B0FBC0
:10BD6000050009E006F0FAFA050005E006F0CEFB52
:10BD7000050001E000200500280070BD00E007403C
:10BD800000A00440FCC702000EB40100002003B074
:10BD90007047704700B50D480068C001FBD500BD75
:10BDA00000000000D0C802000048E801B0080020F0
:10BDB00000A00540FFF3FFFFCDBC0000F1BC000078
:10BDC00084C60200E89500200480044000900540ED
:10BDD00000220260002242600A00428100220281A9
:10BDE000704738B505000C00FDF794FE68890028FF
:10BDF00007D068892989884203D1FDF787FE012091
:10BE000012E02889002801D12C6001E068680460F4
:10BE10006868606000202060A5606C602889401C14
:10BE20002881FDF773FE002032BD38B505000C00F7
:10BE3000FDF770FE6889002807D068892989884243
:10BE400003D1FDF763FE012012E02889002801D10B
:10BE50006C6001E028684460286820600020606011
:10BE6000A5602C602889401C2881FDF74FFE00202A
:10BE700032BD38B50400FDF74DFE002C02D02089FC
:10BE8000002803D1FDF742FE002014E020680500E1
:10BE90002089401E20812089002802D10020606076
:10BEA00002E0002029684860286820600020A8601F
:10BEB000FDF72CFE280032BDF0B483B00026002729
:10BEC000002B4CD002939B079B0F12D0009601973A
:10BED000046800250E6836196F41009C36196F41C1
:10BEE00016603E0000275B1E121D091D001D002B61
:10BEF000ECD1029B9B0832D00096019706680C6833
:10BF00000025A4197D41009EA4197D4114602C00D8
:10BF10000025466836196F414C68A4197D4154606C
:10BF20002C0000258668002736196F418C68A419FB
:10BF30007D4194602C000025C668002736196F41AA
:10BF400034003D00CE68002736196F41D6603E00B0
:10BF500000275B1E103210311030002BCCD1300086
:10BF600003B0F0BC7047F0B484B004000E000020B1
:10BF70000021002B61D0009302941700009A9207D1
:10BF8000920F019216D0029A14680025326800239D
:10BF9000A41A9D41241A8D413C6001202840019A39
:10BFA000521E01923F1D361D029A121D0292019AE5
:10BFB000002AE8D1009A920801923ED0029A00929B
:10BFC000009A1468002532680023A41A9D41241A9F
:10BFD0008D413C60009842687068121A8B412C00B9
:10BFE000002501202040121A8B4119007A60009A26
:10BFF0009468B2680023A41A9D4101220A402900D6
:10C00000A01A9941B860009AD4680025F268A41A71
:10C010009D410800002101220240A41A9D41FC60BC
:10C0200001202840019A521E019210371036009AC2
:10C0300010320092019A002AC2D104B0F0BC7047BD
:10C040000100002000220B68002B00D101224B6868
:10C05000002B00D1521C8B68002B00D1521CCB68E6
:10C06000002B00D1521C0B69002B00D1521C4B69D4
:10C07000002B00D1521C8B69002B00D1521CC969C6
:10C08000002900D1521CD2B2082A00D101207047E9
:10C0900010B4521E9300C918C01802E0521E001FAF
:10C0A000091F002A0AD403680C689C4201D20120AF
:10C0B00005E0A342F2D20020C04300E0002010BC03
:10C0C0007047F3B489B014000020002100225D0005
:10C0D00007950090079D002D52D003945B1E02939C
:10C0E000029B0193029B009CA34203D3009B00246C
:10C0F000019302E0029B009CE41A019DA54230D30B
:10C10000099D9E00AE59350CB6B206960A9EA70050
:10C11000F659370C0597B6B2069F774308976E43DA
:10C120000496059E7543069F7E43049FF619BE4202
:10C1300002D280277F02ED19370CED193604089FD3
:10C14000BF19B74200D26D1CD219BA4200D26D1C81
:10C150004919A94200D2401C5B1E641C019DA542E6
:10C16000CED2039B1A600A0001000020009B5B1CDA
:10C170000093039B1B1D0393009B079CA342AFD31B
:10C180000BB0F0BC7047F2B596B002000C681460BA
:10C190001698436853601698866896601698C0682B
:10C1A0001590D06016980069149010611698406937
:10C1B0001390506116988069129090611698C0692A
:10C1C0000D90D06100200690059004901698C06AEA
:10C1D000039007901698006B009008901698406B9B
:10C1E000019009901698806B02900A901698C06B87
:10C1F0000C900B901460059800210EAF03C7180037
:10C200000EAB30CB24184D415460069803C32C006C
:10C210000025002736196F4110A803C880197941FD
:10C22000906008000021159C24184D4103980019C6
:10C230006941D06008000021149C002524184D415C
:10C24000009800196941106108000021139C002525
:10C2500024184D41019800196941506108000021DE
:10C26000129C002524184D410298001969419061E3
:10C270000C9C0025080000210D9E002736184F4118
:10C2800036196F41D6613FD010680023401C5941D8
:10C290001060080000215668002736184F4156608C
:10C2A0003E000027906880197941906008000021C5
:10C2B000D66836184F410020C04380197941D060BC
:10C2C000080000211669002736184F410020C0439E
:10C2D000801979411061080000215669002736183D
:10C2E0004F410020C043801979415061080000216E
:10C2F0009669002736184F410120C04380197941C3
:10C300009061D6697618D66110681060566800276B
:10C310000EA803C880197941506008000021966872
:10C3200036184F4110A803C8801979419060080061
:10C330000021D668002736184F41039880197941AB
:10C34000D060080000211669002736184F41009878
:10C3500080197941106108000021566900273618BC
:10C360004F41019880197941506108000021966978
:10C37000002736184F4102988019794190610800D2
:10C380000021D669002736184F41A4197D41D46198
:10C390003FD0146800250020641C454114602C0027
:10C3A0000025506800196941506008000021946818
:10C3B00024184D4194602C000025D0680019694173
:10C3C0000024E44324184D41D4602C00002510695A
:10C3D0000021001969410024E44324184D411461EF
:10C3E0002C00002550690021001969410024E44314
:10C3F00024184D4154612C0000259069002100193A
:10C4000069410124E44324184D419461D0694019E5
:10C41000D06100200B901698036B07931698406B21
:10C42000019008901698806B009009901698C06B48
:10C4300002900A9010681060546800250EA803C886
:10C4400000196941506008000021946824184D418A
:10C4500010A803C800196941906008000021D46841
:10C46000002524184D41290000251C194D41D46098
:10C470002C0000251069002100196941019C241835
:10C480004D4114612C0000255069002100196941BB
:10C49000009E002736184F415661029C3E0000273F
:10C4A0009069002180197941001969419061080063
:10C4B0000021D66936184F41D6613FD01668002753
:10C4C0000020761C474116603E0000275068801906
:10C4D0007941506008000021966836184F419660F7
:10C4E0003E000027D068801979410026F6433618AF
:10C4F0004F41D6603E000027106900218019794124
:10C500000026F64336184F4116613E000027506959
:10C510000021801979410026F64336184F415661B3
:10C520003E00002790690021801979410126F643D9
:10C5300036184F419661D069C019D061166800273E
:10C54000166056680EA803C880197941506008002B
:10C550000021966836184F4110A803C88019794108
:10C56000906008000021D668002736184F419819BE
:10C570007941D060080000211669002736184F4124
:10C58000019880197941106108000021566900273F
:10C5900036184F41009880197941506108000021F8
:10C5A0009669002736184F41A4197D4194612C00EB
:10C5B0000025D06900196941D0613FD0146800207E
:10C5C000641C454114602C000025506800210019AE
:10C5D0006941506008000021946824184D4194601E
:10C5E0002C000025D068001969410024E443241878
:10C5F0004D41D4602C0000251069002100196941CB
:10C600000024E44324184D4114612C000025506996
:10C610000021001969410024E44324184D4154616C
:10C620002C00002590690021001969410124E44390
:10C6300024184D419461D0694019D0611698C06B9F
:10C640000B901698806B0A90002007900890099034
:10C650001698866A06961698436A05931698006A95
:10C660000490146800250021001969411060080039
:10C670000021546824184D411819694150600C007C
:10C680000021002590680019694134184D419460DB
:10C690000798002110AB03C32C000025D6680027A3
:10C6A00036196F4110A803C880197941D060089CE1
:10C6B0000EAB30C308000021146924184D410EA8A8
:10C6C00003C800196941106108000021566900275C
:10C6D00036184F4156613E00002794690025A41981
:10C6E0007D410A9800196941906108000021D469D0
:10C6F000002524184D410B9800196941D06140D0A4
:10C70000146800250020641C454114602C0000259D
:10C7100050680021001969415060080000219468A8
:10C7200024184D4194602C000025D06800196941FF
:10C730000024E44324184D41D4602C0000251069E6
:10C740000021001969410024E44324184D4114617B
:10C750002C00002550690021001969410024E443A0
:10C7600024184D4154612C000025906900210019C6
:10C7700069410124E44324184D419461D069401972
:10C78000D0611698806A02900B901698006A01900A
:10C790000A901698406B009006901698046B0594CA
:10C7A0001698C06A049010680021049E801BB9414D
:10C7B000106056680025361BAF4101240C40361B23
:10C7C000AF413900566096680027009C361BAF4188
:10C7D00001240C40361BAF419660D46810A803C8F2
:10C7E000241A8D413E000027012000213040241AE8
:10C7F0008D41D46016690EA803C8361A8F412C00EB
:10C800000025012000212040361A8F411661506911
:10C810003E00002701243440001BA9415061946967
:10C82000019EA41BBD410800002101260640A41B57
:10C83000BD419461D069029E801BB94101262E4002
:10C84000801BB941D06101250D403CD01468002502
:10C850000020C04300210019694110600800002138
:10C86000546824184D410020C043001969415060AC
:10C87000080000219468002524184D410020C04381
:10C8800000196941906008000021D468002524182F
:10C890004D41D4602C0000251069001969411061D8
:10C8A00008000021546924184D4154612C000025D2
:10C8B0009069001969410023401C59419061D06979
:10C8C0000818401ED0611698406A04901698836A32
:10C8D00005931698C06A009006901698446B0794CA
:10C8E0001698806B019008901698C06B0290099082
:10C8F0000A941698006A03900B9016680498002119
:10C9000080197941106008000021566836184F419F
:10C910009819794150600800002196680027361860
:10C920004F41009880197941906008000021D66835
:10C93000002736184F4136196F41D6603E00002758
:10C94000106980197941019E36184F4116613E00E9
:10C9500000275069002180197941029E36184F4105
:10C9600056613E0000279069002180197941241802
:10C970004D41946128000021D469002524184D41BF
:10C98000039800196941D06140D014680025002047
:10C99000641C454114602C000025506800210019DA
:10C9A0006941506008000021946824184D4194604A
:10C9B0002C000025D068001969410024E4432418A4
:10C9C0004D41D4602C0000251069002100196941F7
:10C9D0000024E44324184D4114612C0000255069C3
:10C9E0000021001969410024E44324184D41546199
:10C9F0002C00002590690021001969410124E443BD
:10CA000024184D419461D0694019D0611698C06ACC
:10CA10000B901698406A0A90089709971698006B31
:10CA200004901698446B05941698806B01900690BC
:10CA30001698C06B0090079010680021049E801B20
:10CA4000B941106056680025361BAF41080000212F
:10CA500001240440361BAF4156609068019C001BC6
:10CA6000A9413E00002701243440001BA9419060E9
:10CA7000D468009EA41BBD41080000210126064089
:10CA8000A41BBD41D4601069089E801BB9412C00D5
:10CA9000002501262640801BB94110615469080019
:10CAA000002101260640A41BBD41546190690A9EE5
:10CAB000801BB9412C00002501262640801BB9416E
:10CAC0009061D4690B9EA41BBD4101260E40A41B9E
:10CAD000BD41D461012129403CD0146800250020CB
:10CAE000C04300210019694110600800002154680A
:10CAF00024184D410020C0430019694150600800CE
:10CB000000219468002524184D410020C0430019DD
:10CB10006941906008000021D468002524184D4127
:10CB2000D4602C00002510690019694110610800CB
:10CB30000021546924184D4154612C00002590694E
:10CB4000001969410023401C59419061D0690818BF
:10CB5000401ED0611698006B0C900B900A971698A7
:10CB6000806A039009901698406A0290089016987F
:10CB7000006A019007901698C06B00900690169876
:10CB8000846B05941698406B049010680021049EF5
:10CB9000801BB941106056680025361BAF41080064
:10CBA000002101240440361BAF4156609468009870
:10CBB000241A8D413E00002701203040241A8D4167
:10CBC0009460D068019E801BB9412C00002501268D
:10CBD0002640801BB941D0601469029EA41BBD4150
:10CBE0000800002101260640A41BBD4114615069C4
:10CBF000039E801BB9412C00002501262640801B86
:10CC0000B941506194690800002101260640A41B27
:10CC1000BD419461D0690C9E801BB94101262E4014
:10CC2000801BB941D06101250D403CD0146800251E
:10CC30000020C04300210019694110600800002154
:10CC4000546824184D410020C043001969415060C8
:10CC5000080000219468002524184D410020C0439D
:10CC600000196941906008000021D468002524184B
:10CC70004D41D4602C0000251069001969411061F4
:10CC800008000021546924184D4154612C000025EE
:10CC90009069001969410023401C59419061D06995
:10CCA0000818401ED0611698406B0B9006970A97A3
:10CCB0001698C06A029009901698806A01900890B0
:10CCC0001698406A009007901698C46B05941698C1
:10CCD000806B049010680021049E801BB941106095
:10CCE0005668361BAF410800002101240440361B62
:10CCF000AF41566094680698241A8D413E00002783
:10CD000001203040241A8D419460D068009E801B21
:10CD1000B9412C00002501262640801BB941D06076
:10CD20001469019EA41BBD41080000210126064094
:10CD3000A41BBD4114615069029E801BB9412C00A7
:10CD4000002501262640801BB941506194690800E6
:10CD5000002101260640A41BBD419461D0690B9EB1
:10CD6000801BB94101262E40801BB941D0610125AD
:10CD70000D403CD0146800250020C043002100195C
:10CD80006941106008000021546824184D410020BA
:10CD9000C0430019694150600800002194680025D3
:10CDA00024184D410020C0430019694190600800DB
:10CDB0000021D468002524184D41D4602C000025A2
:10CDC0001069001969411061080000215469241894
:10CDD0004D4154612C0000259069001969410023E0
:10CDE000401C59419061D0690818401ED06117B0AD
:10CDF000F0BD0000F2B5A0B001681091416811913A
:10CE000081681291C168139101691491416915916A
:10CE100081691691C0691790714818A93CC83CC136
:10CE20003CC83CC108A800210022002300241EC0E9
:10CE30001EC068461EC01EC00124089461E0401E4A
:10CE4000091F121F002800D4A4E2109A002318988A
:10CE50000021121A8B4110921198199E0027801BF5
:10CE6000B9411A00002301261640801BB9411190D8
:10CE7000129A1A9E921BBB4108000021012606400F
:10CE8000921BBB41129213981B9E801BB9411A0042
:10CE9000002301261640801BB9411390149A1C9E52
:10CEA000921BBB410800002101260640921BBB419A
:10CEB000149215981D9E801BB9411A00002301266B
:10CEC0001640801BB9411590169A1E9E921BBB41BD
:10CED00001260E40921BBB41169217981F99401ACB
:10CEE0002340C01A1790082308AA694608A8FFF72C
:10CEF0003AF8002805D0082308AA394908A8FEF7FF
:10CF0000DBFF1198002814D11299002911D113992F
:10CF100000290ED1149900290BD11599002908D1A7
:10CF20001699002905D11799002902D110990129D4
:10CF30001FD01999002900D0CDE01A99002900D0FE
:10CF4000C9E01B99002900D0C5E01C99002900D038
:10CF5000C1E01D99002900D0BDE01E99002900D034
:10CF6000B9E01F99002900D0B5E01899012900D037
:10CF7000B1E0002800D072E21298002800D06EE2E2
:10CF80001398002800D06AE21498002800D066E2C6
:10CF90001598002800D062E21698002800D05EE2C2
:10CFA0001798002800D05AE21098012800D056E2C5
:10CFB0000898209908600998209948600A98209953
:10CFC00088600B982099C8600C98209908610D988A
:10CFD000209948610E98209988610F9855E200BF0A
:10CFE00094D40000089A00230020C0430021801838
:10CFF0005941089008000021099A12184B4100205D
:10D00000C043801859410990080000210A9A002362
:10D0100012184B410020C043801859410A90080063
:10D0200000210B9A002312184B410B921A00002387
:10D030000C98801859410C90080000210D9A121884
:10D040004B410D921A0000230E988018594100227E
:10D05000401C51410E90080000210F9A12184B41BC
:10D060000020C043801859410F9001250540420817
:10D070000F920E9E012333407608ED0735430E953F
:10D080000D9E012535407608DB0733430D930C9E3A
:10D09000012333407608ED0735430C950B9E01259F
:10D0A00035407608DB0733430B930A9E0123334058
:10D0B0007608ED0735430A95099E01253540760827
:10D0C000DB0733430993089B5B08ED071D43089575
:10D0D000C80710430F901098204000D0E5E0179843
:10D0E0000121014040081790169A01201040520873
:10D0F000C90711431691159A012111405208C00722
:10D1000010431590149A012010405208C90711438A
:10D110001491139A012111405208C0071043139033
:10D12000129A012010405208C90711431291119A16
:10D13000012111405208C007104311901098400877
:10D14000C907014310910898204000D04AE70F9882
:10D150000121014040080F900E9A01201040520812
:10D16000C90711430E910D9A012111405208C007C1
:10D1700010430D900C9A012010405208C90711432A
:10D180000C910B9A012111405208C00710430B90DB
:10D190000A9A012010405208C90711430A91099ABE
:10D1A000012111405208C007104309900898400817
:10D1B000C907014308918EE7009A00230020C0436D
:10D1C000002180185941009008000021019A12188E
:10D1D0004B410020C04380185941019008000021B4
:10D1E000029A002312184B410020C0438018594175
:10D1F000029008000021039A002312184B41039269
:10D200001A00002304988018594104900800002156
:10D21000059A12184B4105921A00002306988018AF
:10D2200059410022401C5141069008000021079AF4
:10D2300012184B410020C043801859410790012526
:10D24000054042080792069E012333407608ED0709
:10D2500035430695059E012535407608DB073343A7
:10D260000593049E012333407608ED07354304956A
:10D27000039E012535407608DB0733430393029E66
:10D28000012333407608ED0735430295019E0125C1
:10D2900035407608DB0733430193009B5B08ED07BD
:10D2A0001D430095C80710430790189820406CD183
:10D2B0001F980121014040081F901E9A0120104034
:10D2C0005208C90711431E911D9A012111405208AD
:10D2D000C00710431D901C9A012010405208C90736
:10D2E00011431C911B9A012111405208C0071043A1
:10D2F0001B901A9A012010405208C90711431A9135
:10D30000199A012111405208C0071043199018982A
:10D310004008C907014318910098204000D04BE70E
:10D3200007980121014040080790069A012010400B
:10D330005208C90711430691059A0121114052086C
:10D34000C00710430590049A012010405208C907F5
:10D3500011430491039A012111405208C007104360
:10D360000390029A012010405208C907114302910C
:10D37000019A012111405208C00710430190009802
:10D380004008C907014300918FE7072018AA1C3203
:10D3900010A91C310B6815689D4200D255E5AB42BF
:10D3A00000D34CE5189A002310980021121A8B41E3
:10D3B00018921998119E0027801BB9411A0000236A
:10D3C00001261640801BB94119901A9A129E921B91
:10D3D000BB410800002101260640921BBB411A9266
:10D3E0001B98139E801BB9411A000023012616408A
:10D3F000801BB9411B901C9A149E921BBB410800D4
:10D40000002101260640921BBB411C921D98159ECF
:10D41000801BB9411A00002301261640801BB94128
:10D420001D901E9A169E921BBB4101260E40921B18
:10D43000BB411E921F981799401A2340C01A1F9093
:10D4400008236A4608A96846FEF78DFD002800D12A
:10D4500057E508236A4600BF0EA168464FE50098CD
:10D460002099086001982099486002982099886066
:10D4700003982099C860049820990861059820991C
:10D48000486106982099886107982099C86121B061
:10D49000F0BD0000FFFFFFFFFFFFFFFFFFFFFFFFEB
:10D4A000000000000000000000000000010000007B
:10D4B000FFFFFFFFFBB51700099C002C6ED020007A
:10D4C0002830606240302060203060602030A060F2
:10D4D0002030E06020302061203060612030A06189
:10D4E0002030E06120302062A0690021002200236A
:10D4F00000252EC02EC0E0692EC02EC0206A2EC08E
:10D500002EC0FF250126200000F073FD2811C00E5B
:10D5100040194011810079584001281AC14031401A
:10D5200004D022000199009800F03AF86D1EEAD567
:10D530002168206AFFF75EFC0823626A2168A069FF
:10D54000FEF7BFFD616AA069FEF71DFE0823626A4F
:10D550002168A069FEF7B5FD616A0298FEF713FE27
:10D560000823626A2168E069FEF7ABFD616AE06941
:10D57000FEF709FE0823626A2168E069FEF7A1FD53
:10D58000616AE069FEF7FFFD0823626A2168E069CD
:10D59000FEF797FD616A0898FEF7F5FD03B0F0BD50
:10D5A000F4B584B005000C00D16900220B68002B93
:10D5B00000D101224B68002B00D1521C8B68002B3C
:10D5C00000D1521CCB68002B00D1521C0B69002BE0
:10D5D00000D1521C4B69002B00D1521C8B69002BCF
:10D5E00000D1521CC869002800D1521C0498006A5E
:10D5F000D2B2082A2DD1049A92692B6813606B6805
:10D600005360AB689360EB68D3602B6913616B69FF
:10D610005361AB699361EB69D36122680A60626808
:10D620004A60A2688A60E268CA6022690A61626927
:10D630004A61A2698A61E269CA610021002200236D
:10D6400000241EC01EC001200499096A086000F071
:10D65000CEFC082304994A6A0100FEF732FD0498C3
:10D66000416A0068FEF78FFD08230498426A29008A
:10D670000068FEF726FD0498416A4068FEF783FDC6
:10D6800008230498426A016A2000FEF71AFD0498F4
:10D69000416A8068FEF777FD08230498426A0168B2
:10D6A0008068FEF70EFD0498416A8068FEF76BFD06
:10D6B0000498006901900499496800910499896966
:10D6C0000A680023009C24680025121BAB410260FD
:10D6D0004E680027009C6468361BAF4101241C4043
:10D6E0003B00321BAB4142608E680027009CA4685F
:10D6F000361BAF4101241C403B00321BAB41826012
:10D70000CE680027009CE468361BAF4101241C4012
:10D710003B00321BAB41C2600E690027009C2469AC
:10D72000361BAF4101241C403B00321BAB41026160
:10D730004E690027009C6469361BAF4101241C40E0
:10D740003B00321BAB4142618E690027009CA469FB
:10D75000361BAF411A00002301241440361BAF4191
:10D760008661CA690099CC69121BAB413E00002753
:10D7700001243440121BAB41C26101251D403CD045
:10D78000046800250022D243002312196B41026075
:10D790001A0000234468A4185D410022D2431219E4
:10D7A0006B4142601A00002384680025A4185D4183
:10D7B0000022D24312196B4182601A000023C46810
:10D7C0000025A4185D41C4602C00002502691219CF
:10D7D0006B4102611A0000234469A4185D41446151
:10D7E0002C000025826912196B410021521C4B410B
:10D7F0008261C1695918491EC16108230498426AAF
:10D80000016A0198FEF75DFC0498416A006AFEF720
:10D81000BAFC049840690499896800910499C9691F
:10D820000A680023009C2468121BAB4102604E680A
:10D83000009C6468361BAF4101241C403B00321B36
:10D84000AB4142608E680027009CA468361BAF4144
:10D8500001241C403B00321BAB418260CE68002794
:10D86000009CE468361BAF4101241C403B00321B86
:10D87000AB41C2600E690027009C2469361BAF4192
:10D8800001241C403B00321BAB4102614E69002762
:10D89000009C6469361BAF4101241C403B00321BD5
:10D8A000AB4142618E690027009CA469361BAF41E1
:10D8B0001A00002301241440361BAF418661CA6957
:10D8C0000099CC69121BAB413E0000270124344073
:10D8D000121BAB41C26101251D403CD004680025EC
:10D8E0000022D243002312196B4102601A00002368
:10D8F0004468A4185D410022D24312196B41426072
:10D900001A00002384680025A4185D410022D24338
:10D9100012196B4182601A000023C4680025A41804
:10D920005D41C4602C000025026912196B4102613F
:10D930001A0000234469A4185D4144612C000025AD
:10D94000826912196B410021521C4B418261C169ED
:10D950005918491EC16104980069082304994A6A4C
:10D960000100FEF7AEFB0498416A0068FEF70BFC6D
:10D97000049841690823426A0800FEF7A2FB049854
:10D98000416AC068FEF7FFFB08230498426A0168F9
:10D990004068FEF796FB0498416A4068FEF7F3FB87
:10D9A00008230498426A01690068FEF78AFB04981C
:10D9B000416A0069FEF7E7FB0498C068019004998A
:10D9C0000969009101990A680023009C2468121BD0
:10D9D000AB4102604E68009C6468361BAF41012475
:10D9E0001C403B00321BAB4142608E680027009C0C
:10D9F000A468361BAF4101241C403B00321BAB41E5
:10DA00008260CE680027009CE468361BAF41012489
:10DA10001C403B00321BAB41C2600E690027009CDA
:10DA20002469361BAF4101241C403B00321BAB4133
:10DA300002614E690027009C6469361BAF410124D6
:10DA40001C403B00321BAB4142618E690027009CA9
:10DA5000A469361BAF411A00002301241440361B71
:10DA6000AF418661CA690099CC69121BAB413E0087
:10DA7000002701243440121BAB41C26101251D4027
:10DA80003CD0046800250022D243002312196B41C8
:10DA900002601A0000234468A4185D410022D243AA
:10DAA00012196B4142601A00002384680025A418F3
:10DAB0005D410022D24312196B4182601A0000239B
:10DAC000C4680025A4185D41C4602C0000250269CB
:10DAD00012196B4102611A0000234469A4185D41C8
:10DAE00044612C000025826912196B410021521CEF
:10DAF0004B418261C1695918491EC1610498066889
:10DB00004068029003461C6824196D4134602C0063
:10DB100000255868002100184941001969417060CA
:10DB2000080000219C6824196D4124184D41B460FF
:10DB30002C000025D8680018494100196941F0609F
:10DB4000080000211C6924196D4124184D413461DD
:10DB50002C0000255869001849410019694170617D
:10DB6000080000219C6924196D4124184D41B461BD
:10DB70002C000025D8690018494100196941F0615D
:10DB80003FD0306800210023401C5941306008001C
:10DB90000021746824184D4174602C000025B06881
:10DBA00000196941B06008000021F46824184D4153
:10DBB0000020C04300196941F06008000021346969
:10DBC000002524184D410020C043001969413061EF
:10DBD000080000217469002524184D410020C0432D
:10DBE00000196941706108000021B46900252418FA
:10DBF0004D410120C04300196941B061F4696418C6
:10DC0000F461049880690390009601990A680023E2
:10DC100034680025121BAB4102604E68009C6468AA
:10DC2000361BAF4101241C403B00321BAB4142601C
:10DC30008E680027009CA468361BAF4101241C405D
:10DC40003B00321BAB418260CE680027009CE46839
:10DC5000361BAF4101241C403B00321BAB41C2606C
:10DC60000E690027009C2469361BAF4101241C402B
:10DC70003B00321BAB4102614E690027009C646986
:10DC8000361BAF4101241C403B00321BAB414261BB
:10DC90008E690027009CA469361BAF411A0000233F
:10DCA00001241440361BAF418661CA690099CC69D2
:10DCB000121BAB413E00002701243440121BAB4134
:10DCC000C26101251D403CD0046800250022D243DA
:10DCD000002312196B4102601A0000234468A41843
:10DCE0005D410022D24312196B4142601A000023A9
:10DCF00084680025A4185D410022D24312196B41AB
:10DD000082601A000023C4680025A4185D41C46025
:10DD10002C000025026912196B4102611A000023D0
:10DD20004469A4185D4144612C00002582691219E0
:10DD30006B410021521C4B418261C1695918491E37
:10DD4000C16102980399009102990A680023009C1E
:10DD50002468121BAB4102604E68009C6468361B4D
:10DD6000AF4101241C403B00321BAB4142608E6836
:10DD70000027009CA468361BAF4101241C403B00D7
:10DD8000321BAB418260CE680027009CE468361BE2
:10DD9000AF4101241C403B00321BAB41C2600E6905
:10DDA0000027009C2469361BAF4101241C403B0026
:10DDB000321BAB4102614E690027009C6469361B2F
:10DDC000AF4101241C403B00321BAB4142618E69D4
:10DDD0000027009CA469361BAF411A0000230124D0
:10DDE0001440361BAF418661CA690099CC69121B89
:10DDF000AB413E00002701243440121BAB41C261FD
:10DE000001251D403CD0046800250022D243002398
:10DE100012196B4102601A0000234468A4185D4186
:10DE20000022D24312196B4142601A000023846819
:10DE30000025A4185D410022D24312196B41826073
:10DE40001A000023C4680025A4185D41C4602C009A
:10DE50000025026912196B4102611A00002344690E
:10DE6000A4185D4144612C000025826912196B41A0
:10DE70000021521C4B418261C1695918491EC16180
:10DE800008230498426A02994069FEF71AF9049837
:10DE9000416A4069FEF777F908230498426A0169EC
:10DEA0008068FEF70EF90498416A0068FEF76BF986
:10DEB0000498C06904990968049A5269009212682A
:10DEC00000230C68121BAB410260009C66684C6822
:10DED000361BAF4101241C403B00321BAB4142606A
:10DEE000009CA66800278C68361BAF4101241C40AB
:10DEF0003B00321BAB418260009CE6680027CC6887
:10DF0000361BAF4101241C403B00321BAB41C260B9
:10DF1000009C266900270C69361BAF4101241C4078
:10DF20003B00321BAB410261009C666900274C69D3
:10DF3000361BAF4101241C403B00321BAB41426108
:10DF4000009CA66900278C69361BAF411A0000238C
:10DF500001241440361BAF418661009AD269CC6916
:10DF6000121BAB4101243C40121BAB41C261012595
:10DF70001D403CD0046800250022D2430023121922
:10DF80006B4102601A0000234468A4185D4100221E
:10DF9000D24312196B4142601A00002384680025A5
:10DFA000A4185D410022D24312196B4182601A000D
:10DFB0000023C4680025A4185D41C4602C0000251E
:10DFC000026912196B4102611A0000234469A41806
:10DFD0005D4144612C000025826912196B410021CA
:10DFE000521C4B418261C1695918491EC16105B07B
:10DFF000F0BDF1B584B0C06900220368002B00D1E8
:10E0000001224368002B00D1521C8368002B00D1F1
:10E01000521CC368002B00D1521C0369002B00D195
:10E02000521C4369002B00D1521C8369002B00D184
:10E03000521CC169002900D1521CD2B2082A11D148
:10E040000498806900210022002300241EC01EC005
:10E050000498C0691EC01EC00498006A1EC01EC07D
:10E0600000F0B3FF082304994A6A0100FEF729F87B
:10E070000498416A4068FEF786F804984668346858
:10E08000002524196D4134602C00002570680021A2
:10E090000018494100196941706008000021B46806
:10E0A00024196D4124184D41B4602C000025F068FE
:10E0B0000018494100196941F060080000213469E5
:10E0C00024196D4124184D4134612C0000257069DC
:10E0D0000018494100196941706108000021B469C4
:10E0E00024196D4124184D41B4612C000025F069BC
:10E0F0000018494100196941F0613FD030680021A2
:10E100000023401C59413060080000217468241825
:10E110004D4174602C000025B06800196941B06061
:10E1200008000021F46824184D410020C043001964
:10E130006941F060080000213469002524184D4130
:10E140000020C04300196941306108000021746952
:10E15000002524184D410020C04300196941706119
:10E1600008000021B469002524184D410120C04356
:10E1700000196941B061F4696418F46108230498D6
:10E18000426A31008069FDF79CFF0498416A80680B
:10E19000FDF7F9FF049882681468002524196D4181
:10E1A00014602C0000255068002100184941001916
:10E1B0006941506008000021946824196D412418B9
:10E1C0004D4194602C000025D06800184941001989
:10E1D0006941D06008000021146924196D41241898
:10E1E0004D4114612C000025506900184941001967
:10E1F0006941506108000021946924196D41241877
:10E200004D4194612C000025D06900184941001946
:10E210006941D0613FD014680020641C45411460FE
:10E220002C00002550680021001969415060080049
:10E230000021946824184D4194602C000025D0687A
:10E24000001969410024E44324184D41D4602C0096
:10E25000002510690021001969410024E4432418B5
:10E260004D4114612C0000255069002100196941BD
:10E270000024E44324184D4154612C00002590698A
:10E280000021001969410124E44324184D4194619F
:10E29000D0694019D06104984068082304994A6AFB
:10E2A0000100FDF70EFF0498416A4068FDF76BFF1F
:10E2B000049842681468002524196D4114602C00EC
:10E2C000002550680021001849410019694150603B
:10E2D00008000021946824196D4124184D41946070
:10E2E0002C000025D0680018494100196941D06010
:10E2F00008000021146924196D4124184D4114614E
:10E300002C000025506900184941001969415061ED
:10E3100008000021946924196D4124184D4194612D
:10E320002C000025D0690018494100196941D061CD
:10E330003FD014680020641C454114602C00002567
:10E34000506800210019694150600800002194685C
:10E3500024184D4194602C000025D06800196941B3
:10E360000024E44324184D41D4602C00002510699A
:10E370000021001969410024E44324184D4114612F
:10E380002C00002550690021001969410024E44354
:10E3900024184D4154612C0000259069002100197A
:10E3A00069410124E44324184D419461D069401926
:10E3B000D06108230498426A016AC069FDF781FEB2
:10E3C0000498416A0069FDF7DEFE0498006A08239C
:10E3D00004994A6A0100FDF774FE0498416A406995
:10E3E000FDF7D1FE0498026A03691C680025241910
:10E3F0006D4114602C000025586800210018494127
:10E40000001969415060080000219C6824196D4181
:10E4100024184D4194602C000025D868001849410B
:10E4200000196941D060080000211C6924196D4160
:10E4300024184D4114612C000025586900184941E9
:10E44000001969415061080000219C6924196D413F
:10E4500024184D4194612C000025D86900184941C9
:10E4600000196941D0613FD014680020641C454107
:10E4700014602C000025506800210019694150608B
:10E4800008000021946824184D4194602C00002558
:10E49000D068001969410024E44324184D41D46038
:10E4A0002C00002510690021001969410024E44373
:10E4B00024184D4114612C000025506900210019D9
:10E4C00069410024E44324184D4154612C00002587
:10E4D00090690021001969410124E44324184D4149
:10E4E0009461D0694019D0610498C06802900246D6
:10E4F00004984069019003460498866934680025B1
:10E500001868002100196941106008000021746832
:10E5100024184D41586800196941506008000021D5
:10E52000B468002524184D4198680019694190602D
:10E5300008000021F468002524184D41D86800190E
:10E540006941D060080000213469002524184D413C
:10E5500018690019694110610800002174690025DB
:10E5600024184D4158690019694150610800002183
:10E57000B469002524184D419869001969419061DA
:10E5800008000021F469002524184D41D8690019BC
:10E590006941D06140D0146800250020641C4541C9
:10E5A00014602C000025506800210019694150605A
:10E5B00008000021946824184D4194602C00002527
:10E5C000D068001969410024E44324184D41D46007
:10E5D0002C00002510690021001969410024E44342
:10E5E00024184D4114612C000025506900210019A8
:10E5F00069410024E44324184D4154612C00002556
:10E6000090690021001969410124E44324184D4117
:10E610009461D0694019D061019A146800252419C9
:10E620006D4114602C0000255068002100184941FC
:10E6300000196941506008000021946824196D4157
:10E6400024184D4194602C000025D06800184941E1
:10E6500000196941D06008000021146924196D4136
:10E6600024184D4114612C000025506900184941BF
:10E6700000196941506108000021946924196D4115
:10E6800024184D4194612C000025D069001849419F
:10E6900000196941D0613FD014680020641C4541D5
:10E6A00014602C0000255068002100196941506059
:10E6B00008000021946824184D4194602C00002526
:10E6C000D068001969410024E44324184D41D46006
:10E6D0002C00002510690021001969410024E44341
:10E6E00024184D4114612C000025506900210019A7
:10E6F00069410024E44324184D4154612C00002555
:10E7000090690021001969410124E44324184D4116
:10E710009461D0694019D0610198009002990A680B
:10E72000002304680025121BAB4102604E680027DD
:10E73000009C6468361BAF4101241C403B00321B27
:10E74000AB4142608E680027009CA468361BAF4135
:10E7500001241C403B00321BAB418260CE68002785
:10E76000009CE468361BAF4101241C403B00321B77
:10E77000AB41C2600E690027009C2469361BAF4183
:10E7800001241C403B00321BAB4102614E69002753
:10E79000009C6469361BAF4101241C403B00321BC6
:10E7A000AB4142618E690027009CA469361BAF41D2
:10E7B0001A00002301241440361BAF418661CA6948
:10E7C0000099CC69121BAB413E0000270124344064
:10E7D000121BAB41C26101251D403CD004680025DD
:10E7E0000022D243002312196B4102601A00002359
:10E7F0004468A4185D410022D24312196B41426063
:10E800001A00002384680025A4185D410022D24329
:10E8100012196B4182601A000023C4680025A418F5
:10E820005D41C4602C000025026912196B41026130
:10E830001A0000234469A4185D4144612C0000259E
:10E84000826912196B410021521C4B418261C169DE
:10E850005918491EC16108230498426A0199029817
:10E86000FDF72FFC0498416AC068FDF78CFC049802
:10E870004669C068009003461C6824196D413460E5
:10E880002C000025586800210018494100196941F1
:10E890007060080000219C6824196D4124184D41C6
:10E8A000B4602C000025D86800184941001969415E
:10E8B000F060080000211C6924196D4124184D41A5
:10E8C00034612C000025586900184941001969413C
:10E8D0007061080000219C6924196D4124184D4184
:10E8E000B4612C000025D86900184941001969411C
:10E8F000F0613FD0306800210023401C5941306056
:10E9000008000021746824184D4174602C00002513
:10E91000B06800196941B06008000021F46824184B
:10E920004D410020C04300196941F06008000021FA
:10E930003469002524184D410020C0430019694165
:10E940003061080000217469002524184D41002021
:10E95000C04300196941706108000021B4690025B5
:10E9600024184D410120C04300196941B061F46988
:10E970006418F461009A14680025306800210019B9
:10E980006941106008000021546824184D417068E6
:10E99000001969415060080000219468002524187E
:10E9A0004D41B06800196941906008000021D468A9
:10E9B000002524184D41F06800196941D060080015
:10E9C00000211469002524184D413069001969415E
:10E9D0001061080000215469002524184D41706918
:10E9E000001969415061080000219469002524182C
:10E9F0004D41B06900196941906108000021D46956
:10EA0000002524184D41F06900196941D06140D0BA
:10EA1000146800250020641C454114602C0000256A
:10EA20005068002100196941506008000021946875
:10EA300024184D4194602C000025D06800196941CC
:10EA40000024E44324184D41D4602C0000251069B3
:10EA50000021001969410024E44324184D41146148
:10EA60002C00002550690021001969410024E4436D
:10EA700024184D4154612C00002590690021001993
:10EA800069410124E44324184D419461D06940193F
:10EA9000D06108230498426A00990846FDF711FBEB
:10EAA0000498416A4069FDF76EFB04984069019043
:10EAB000049989680391009101990A680023009CD8
:10EAC00024680025121BAB4102604E68009C6468FC
:10EAD000361BAF4101241C403B00321BAB4142605E
:10EAE0008E680027009CA468361BAF4101241C409F
:10EAF0003B00321BAB418260CE680027009CE4687B
:10EB0000361BAF4101241C403B00321BAB41C260AD
:10EB10000E690027009C2469361BAF4101241C406C
:10EB20003B00321BAB4102614E690027009C6469C7
:10EB3000361BAF4101241C403B00321BAB414261FC
:10EB40008E690027009CA469361BAF411A00002380
:10EB500001241440361BAF418661CA690099CC6913
:10EB6000121BAB413E00002701243440121BAB4175
:10EB7000C26101251D403CD0046800250022D2431B
:10EB8000002312196B4102601A0000234468A41884
:10EB90005D410022D24312196B4142601A000023EA
:10EBA00084680025A4185D410022D24312196B41EC
:10EBB00082601A000023C4680025A4185D41C46067
:10EBC0002C000025026912196B4102611A00002312
:10EBD0004469A4185D4144612C0000258269121922
:10EBE0006B410021521C4B418261C1695918491E79
:10EBF000C1610498806902900399009101990A68A3
:10EC00000023009C2468121BAB4102604E68009CEC
:10EC10006468361BAF4101241C403B00321BAB41F2
:10EC200042608E680027009CA468361BAF41012417
:10EC30001C403B00321BAB418260CE680027009C29
:10EC4000E468361BAF4101241C403B00321BAB4142
:10EC5000C2600E690027009C2469361BAF41012465
:10EC60001C403B00321BAB4102614E690027009CF7
:10EC70006469361BAF4101241C403B00321BAB4191
:10EC800042618E690027009CA469361BAF411A00BF
:10EC9000002301241440361BAF418661CA690099E4
:10ECA000CC69121BAB413E00002701243440121BEB
:10ECB000AB41C26101251D403CD004680025002203
:10ECC000D243002312196B4102601A0000234468EA
:10ECD000A4185D410022D24312196B4142601A0010
:10ECE000002384680025A4185D410022D243121934
:10ECF0006B4182601A000023C4680025A4185D419E
:10ED0000C4602C000025026912196B4102611A00CF
:10ED100000234469A4185D4144612C0000258269E8
:10ED200012196B410021521C4B418261C169591873
:10ED3000491EC16103980299009103990A68002352
:10ED4000009C2468121BAB4102604E68009C646802
:10ED5000361BAF4101241C403B00321BAB414260DB
:10ED60008E680027009CA468361BAF4101241C401C
:10ED70003B00321BAB418260CE680027009CE468F8
:10ED8000361BAF4101241C403B00321BAB41C2602B
:10ED90000E690027009C2469361BAF4101241C40EA
:10EDA0003B00321BAB4102614E690027009C646945
:10EDB000361BAF4101241C403B00321BAB4142617A
:10EDC0008E690027009CA469361BAF411A000023FE
:10EDD00001241440361BAF418661CA690099CC6991
:10EDE000121BAB413E00002701243440121BAB41F3
:10EDF000C26101251D403CD0046800250022D24399
:10EE0000002312196B4102601A0000234468A41801
:10EE10005D410022D24312196B4142601A00002367
:10EE200084680025A4185D410022D24312196B4169
:10EE300082601A000023C4680025A4185D41C460E4
:10EE40002C000025026912196B4102611A0000238F
:10EE50004469A4185D4144612C000025826912199F
:10EE60006B410021521C4B418261C1695918491EF6
:10EE7000C16108230498426A0399C068FDF721F92B
:10EE80000498416AC068FDF77EF90498C069049946
:10EE9000496800910499C9680A680023009C2468A5
:10EEA000121BAB4102604E68009C6468361BAF4188
:10EEB00001241C403B00321BAB4142608E6800279E
:10EEC000009CA468361BAF4101241C403B00321B50
:10EED000AB418260CE680027009CE468361BAF41DE
:10EEE00001241C403B00321BAB41C2600E6900276D
:10EEF000009C2469361BAF4101241C403B00321B9F
:10EF0000AB4102614E690027009C6469361BAF412A
:10EF100001241C403B00321BAB4142618E6900273B
:10EF2000009CA469361BAF411A0000230124144041
:10EF3000361BAF418661CA690099CC69121BAB418F
:10EF400001243C40121BAB41C26101251D403CD055
:10EF5000046800250022D243002312196B4102608D
:10EF60001A0000234468A4185D410022D2431219FC
:10EF70006B4142601A00002384680025A4185D419B
:10EF80000022D24312196B4182601A000023C46828
:10EF90000025A4185D41C4602C00002502691219E7
:10EFA0006B4102611A0000234469A4185D41446169
:10EFB0002C000025826912196B410021521C4B4123
:10EFC0008261C1695918491EC16105B0F0BDFEE7F3
:10EFD000EFF3108072B6704780F31088704700001E
:10EFE00070B506000D00140023002A0031001648F9
:10EFF000FCF7CAFE00BEFDE7F8B505000C00FFF700
:10F00000E7FF0700114800681149884212D000202C
:10F01000060010488008864209D20F480421714337
:10F0200040580B49042272438850761CF1E7084887
:10F030000649086006486DB204216943401804641B
:10F040003800FFF7C9FFF1BD58C6020008ED00E027
:10F050000080FF1FC000000000000000010C474AB4
:10F0600089180A680123834013430B60704770B509
:10F0700043480078002800D07EE04248007800072E
:10F0800011D540480078082101433E4801703E48B0
:10F090000078F82101403C4801703C4800789821F4
:10F0A00001403A4801703A48FFF7D8FF3948FFF766
:10F0B000D5FF3948FFF7D2FF3848006802210143E5
:10F0C00036480160364800688021490001433448D1
:10F0D000016034480068000B0007000F0500EDB226
:10F0E000002D09D13048006806002F480068E02153
:10F0F000C90001432C4801602C480068040020002E
:10F100002B4C0440802040002043284908602948B7
:10F110000068802189050143264801602348006872
:10F12000C001FBD5EDB2002D0ED12348006880212F
:10F130004905014320480160204800680C21014333
:10F140001E48016018480660FCF707FDFCF720FD2B
:10F15000FCF764FD1A4803F0CFFF1A48FBF7C0FF25
:10F160000021C943884204D1164917480078FBF7AB
:10F17000ADFF01200249087070BD0000007004401E
:10F180001D9C002002D0074002E0074001E007403C
:10F19000090038100A0038100B0038103C80044079
:10F1A00040800440248004402C910540009005409C
:10F1B000FFF0FFFF2491054038800440C8C205409D
:10F1C000349600206C960020CB7201007047060038
:10F1D00010B586B004008F48007800285CD16846DE
:10F1E0001421FAF761FD01208A490870FFF73FFFFB
:10F1F000F9F766FFF6F72FFE03F0B0FFF5F762FCB4
:10F20000F5F760FF6846F5F7ADFF6846001DF5F7B6
:10F21000A9FF68460830F5F7A5FF68460C30F5F7FA
:10F22000A1FF68461030F5F79DFF6846F5F7A8FF87
:10F230008B4802F043FA03F0CCFE8A488F490860FD
:10F2400000F094F8F9F7A2FDF9F7C3FD04F0EEF829
:10F250000120FAF7E5FB8F4908608E480068002816
:10F2600006D1002300220021002001F078FD16E0E5
:10F2700000218948FCF7ACFD00218848FCF7A8FD77
:10F28000874805F005F9002806D000230022002158
:10F29000002001F064FD02E0200000F002F806B05A
:10F2A00010BD30B583B0040001A800900023DB43FB
:10F2B00000227C4977480068FAF7EBFB0198C00709
:10F2C00013D500257448006800280ED07248FBF75B
:10F2D00067F90500002DF5D0280000F0EEF82800B1
:10F2E000F9F756FF00200500ECE70198800716D5D6
:10F2F00000256A480068002811D06848FBF750F9DB
:10F300000500002DF5D02868002802D0686829681B
:10F3100088472800F9F73CFF00200500E9E7AA48E4
:10F3200000780028C0D137BD80B5F9F767FD002807
:10F3300010D0F9F7AFFD009068460078C0B28008A1
:10F340000100C907C90F002906D002F013FAF9F726
:10F3500040FD01E0F9F7D8FD01BD10B50400FFF74D
:10F36000E3FF994800780028F9D110BD80B5A7487F
:10F370000068002801D0012012E000214A48FAF775
:10F38000EAFAA2490860A1480068002807D10023D2
:10F3900000220021002001F0E2FC012000E000201A
:10F3A00002BD38B504000D0088480560984920006A
:10F3B00005F0CCFB32BD38B504000D008448046074
:10F3C000824805609249934805F087F932BD38B507
:10F3D00004000D00904805609049200005F078FB7E
:10F3E00032BD10B504008E4804608E4805F0A1FDC2
:10F3F00010BD10B504008C4804608C4805F09CFCDE
:10F4000010BD10B504008A4804608A4805F099FCD4
:10F4100010BD0000139C002070B506000D000024F4
:10F42000724600210820F9F77EFE0400002C01D16D
:10F4300005200BE02660656021001848FBF79EF868
:10F44000022114480068FAF709FB002070BD38B5A6
:10F450007C4C7D4D291B491C200003F03DFE31BD35
:10F46000ADF4000015F9000070B505000E00754CF4
:10F470002A003100200003F0B8FD70BDC49B0020BD
:10F4800038B504000D002A006E492000F5F7E8FAAF
:10F4900031BD00000C9B00200C9A0020189A00201F
:10F4A000D5F50000FFFFFF008406002010B5040022
:10F4B0002000C0B204F082F810BD38B504002078F6
:10F4C00000280ED0022819D02AD3042833D01ED306
:10F4D000062848D03AD308285DD050D3092867D0F1
:10F4E00071E0AE480068002804D0201DAB490968CF
:10F4F000884702E0201D04F075F864E03448006895
:10F50000002803D0201D3249096888475BE0424843
:10F510000068002803D0201D3F490968884752E051
:10F520002A480068002805D0210008312079274AA0
:10F530001268904747E03A480068002805D021004B
:10F5400008312079364A126890473CE03648006816
:10F55000002807D00820235EA27961792079324DF6
:10F560002D68A8472FE032480068002806D063893C
:10F5700062682189207B2E4D2D68A84723E02E4804
:10F580000068002806D0638962682189207B2A4DA3
:10F590002D68A84717E029480068002807D023896C
:10F5A00022000A32E1882079244D2D68A8470AE01C
:10F5B00023480068002805D0210008312079204A1E
:10F5C00012689047FFE731BD1F7101001C9B0020AE
:10F5D000149B002038B50500002472460021262027
:10F5E000F9F7A1FD0400002C0FD00020207022228A
:10F5F0002900201DF5F734FA2100C448FAF7BEFFB0
:10F600000121C3480068FAF729FA31BD089B0020A0
:10F610004DF6000065F70000189B0020A1F70000E0
:10F62000209B00200DF80000249B00207BF80000A8
:10F63000289B0020B9F800002C9B0020309B002064
:10F64000349B002000D80700FFF70700F3B581B016
:10F650000026282502980078092815D102984068CC
:10F6600030210D004168002904D00178027C8918FE
:10F67000891C6D188168002901D01635FFE7C06824
:10F68000002801D01035FFE772460021EDB22800B6
:10F69000F9F749FD0600002E63D00120307068465E
:10F6A000007930710298007809284BD10298476898
:10F6B00034000C3409203072241DF460202202989A
:10F6C00041682000F5F7CCF920347868002818D07C
:10F6D0003878F1680870F06844603A7879682000FA
:10F6E000F5F7BEF938782418387CF1680874F068AA
:10F6F00044613A7C79692000F5F7B2F9387C241826
:10F7000015E0B868002812D0F06884601022B9684B
:10F710002000F5F7A5F91034B87EF1688876F06816
:10F72000C4610622F9692000F5F79AF9A41DF8686A
:10F7300000280DD0F068C4601022F9682000F5F7A9
:10F740008FF905E02422029930000830F5F788F996
:10F7500031006E48FAF712FF01216D480068FAF790
:10F760007DF9F7BD38B50500002472460021082058
:10F77000F9F7D9FC0400002C0ED002202070287864
:10F7800020716888E08021006048FAF7F7FE0121C7
:10F790005F480068FAF762F931BD0000109B002055
:10F7A00070B50600002524243078022801D1307B72
:10F7B000241872460021E4B22000F9F7B4FC0500D9
:10F7C000002D22D00320287030782871307801284D
:10F7D00001D1B0882881307802280DD12022311D36
:10F7E00028000830F5F73CF9280024306861327BA6
:10F7F00031696869F5F734F929004448FAF7BEFE23
:10F80000012143480068FAF729F970BDF8B50700EF
:10F810000E00002414253078022802D03078042805
:10F8200001D1F0882D1872460021ADB22800F9F7F9
:10F830007AFC0400002C1FD00420207027710C22B9
:10F84000310020000830F5F70BF9207A022802D0A9
:10F85000207A042807D1200014302061F288B16892
:10F860002069F5F7FDF821002848FAF787FE012105
:10F8700027480068FAF7F2F8F1BDF8B507000E0066
:10F8800015000024724600210A20F9F74CFC040000
:10F89000002C10D00520207027716671009800B2EE
:10F8A0002081A57121001948FAF768FE0121184846
:10F8B0000068FAF7D3F8F1BDF8B507000E0015009F
:10F8C000002472460021684600881030F9F72BFCAE
:10F8D0000400002C18D0062020702773268168466B
:10F8E000008860812000103060606846028829002E
:10F8F0006068F5F7B5F821000448FAF73FFE0121EA
:10F9000003480068FAF7AAF8F1BD00000C9A00203D
:10F910000C9B002080B5F9F75CFA01BD0020704710
:10F9200070B586B006000D00140068461821FAF77D
:10F93000BBF93000FAF7C9FA022807DAC949A6224A
:10F9400052004243895AC84A914201D1012029E01C
:10F95000694605224A8001220A71C44A43001818E8
:10F9600010182322805C48710220C880200A012DD3
:10F9700002D0022D05D00CE00422CA800C7248721D
:10F9800007E00622CA800C724872200C8872200E92
:10F99000C872C888001D08800A88121D92B2300003
:10F9A000F7F722FB06B070BD70B586B006000D00FB
:10F9B000140068461821FAF777F9AC4871008919E4
:10F9C00040182421415CFF2901D1012100E0491C9C
:10F9D00024228154694605224A8006220A71242283
:10F9E000805C48710420C8800D72280A48728C72AD
:10F9F000200AC872082008800C2220E070B586B06A
:10FA000006000D00140068461821FAF74DF9684603
:10FA100005214180072101719449720092198918CA
:10FA20002322895C41710421C1800572290A417237
:10FA30008472210AC172082101800C22694689481A
:10FA4000A6235B005E43805BF7F7CEFA06B070BD7D
:10FA5000F1B58CB00D0016001F0005A81821FAF7AB
:10FA600023F90CA80078814A410009185118223165
:10FA700000917C49A6235B00584308180224129980
:10FA80009269224002D00269224002D10257002A24
:10FA900015D101AA0088108055809680D7801181E9
:10FAA000139850811498908101A8F7F7ABF90500DD
:10FAB0000098007804210143009801702BE0009A1F
:10FAC0009278FF2A01D1012200E0521C009B9A701B
:10FAD00005AA0523538012231371009B9B78537151
:10FAE0000823D38015722B0A53729672330AD3728D
:10FAF00017733B0A53739173090AD1730C21118058
:10FB0000102205A90088F7F76FFA05000098007821
:10FB10000443009804700CA80078FBF746F928000D
:10FB20000DB0F0BDF1B58CB00F0005A81821FAF7A3
:10FB3000BBF801A81021FAF7B7F8002400260CA89A
:10FB400000784A4942001218891822310091002297
:10FB500089560125012F04D10D4300990D70002510
:10FB600002E0A943009A11700099097809073FD56E
:10FB70003C49A622520050430F1802203856002854
:10FB800036D105A8052141801321017100994978DA
:10FB900041710221C18005724472062101800A224E
:10FBA00005A93888F7F720FA0600002D16D101A81C
:10FBB00039880180F9884180398981807989C180BB
:10FBC000B989018144818481F7F71CF90600009806
:10FBD0000078042101430098017009E00CA8007826
:10FBE000FBF7D0F8009800780E2188430099087040
:10FBF00030000DB0F0BDF0B587B004000D00160068
:10FC00001F0068461821FAF74FF85048610009199B
:10FC100040182421415CFF2901D1012100E0491C49
:10FC200024228154694605224A8014220A71242222
:10FC3000805C48710A20C8800D72280A48728E7252
:10FC4000300AC8720F73380A48730C988873000A18
:10FC5000C8730D980874000A48740E200880122298
:10FC600033E000002C7E0020FFFF00002C8B0020E2
:10FC7000F0B587B004000D0016001F00684618217B
:10FC8000FAF712F8684605214180152101712F49C4
:10FC90006200121989182322895C41710A21C180EE
:10FCA0000572290A41728672310AC1720773390AD4
:10FCB00041730C998173090AC1730D990174090A82
:10FCC00041740E21018012226946C448A6235B00BC
:10FCD0005C43005BF7F788F907B0F0BD70B586B0FC
:10FCE00006000C00150068461821F9F7DDFF310009
:10FCF0002000FAF763FF002802D1FE20800022E0F6
:10FD0000418A49194182694605224A8016220A71B0
:10FD10000E4A63001B19D2182323D25C4A710422B5
:10FD2000CA8002880A720088000A48728D72280A06
:10FD3000C872082008800C22A848A6235B005C43F8
:10FD4000005BF7F751F906B070BD00002C8B002066
:10FD5000FEB504002088FAF7B8F802283CDA9F497B
:10FD6000A62252004243895A9D4A914234D0C84942
:10FD7000420012188B18233326001036A17901296E
:10FD80000FD0062929D0072934D0122941D01329B0
:10FD900056D014295FD015297DD0162900D19EE0B8
:10FDA000A7E05978E279914216D1E37AA57A19024F
:10FDB00029430022012902D0022903D00AE01A02B5
:10FDC0002A4307E01A022A43237B1B041343627B66
:10FDD00012061A4300F090F8F7BDA27AE17A090200
:10FDE0001143257B627B12022A43E4791C7000F0E8
:10FDF000A7F8F7BD5978E279914250D1217B627B17
:10FE000012020A43A37AE17A0902194300F0BEF80C
:10FE1000F7BDA27AE17A09021143257B627B1202C7
:10FE20002A43A77BE57B2D023D433778767836025F
:10FE30003E43E4791C7000962B0000F0D3F8F7BD28
:10FE40005978E27991422AD1A27AE17A09021143E2
:10FE500000F020F9F7BDA27AE17A09021143257B6F
:10FE6000627B12022A43A57BE77B3F022F436D464C
:10FE70002F81377875782D023D43B61C3778767818
:10FE800036023E43E4791C70019600956B461B894F
:10FE900000F02DF9F7BD5978E279914205D00022A2
:10FEA00000212088FFF73CFDF7BD32787178090208
:10FEB0001143B61C327873781B02134301930091EF
:10FEC000A17BE27B13020B43217B627B12020A437C
:10FED000A57AE17A0902294300F065F9F7BDA27A13
:10FEE000E17A09021143227BE4791C7000F0B0F939
:10FEF000F7BDE0791870D2E73EB5040068460C21E2
:10FF0000F9F7D2FE36492000FAF76EFE05002420EC
:10FF10002856012813D168460470002141600181F0
:10FF20008021490041812988418059484269100057
:10FF300002D06946012090472800FAF7F5FD37BD49
:10FF4000F8B505000C001600FAF722FE070012D0E3
:10FF5000220031002800FFF751FD684605704480FB
:10FF60004B484269100002D0694602209047380091
:10FF7000FAF7DAFDF1BD2202324302211748A62327
:10FF80005B005D43405BFFF7CBFCF1BD70B582B019
:10FF900004000E001500FAF7FBFD002813D0242101
:10FFA000415602290CD1FAF7BFFD6846047045801E
:10FFB00037484269100010D069460220904773BD4F
:10FFC0000022002102E032022A4302210348A62334
:10FFD0005B005C43005BFFF7A3FC73BD2C7E00203D
:10FFE000FFFF0000F3B589B014001D0009A80178D7
:10FFF000BB48A62252004A43801802228256012A98
:020000040001F9
:1000000005D1002200210088FFF78AFC3DE0204A4C
:100010004B005918511808226E46368DB44212D33F
:10002000B04B6E46368DB61F9E420CD2A61F9E4226
:1000300009D2FA235B009D4205DA109E33000A3B89
:10004000C44FBB4207D322200A54002109A80078DC
:10005000FFF768FD19E06B461B8DC3800481458165
:10006000868122200A5409A80078FAF79EFE684685
:10007000112101706946098D8180C4800581468106
:10008000694609A8007805F0E9FF0BB0F0BD000053
:100090002C8B002070B58AB06C4A43001B18D31813
:1000A0000224E443002907D12220185C04400420E4
:1000B00020432221585418E0002128254D4355198A
:1000C00032352E78864201D10326AE77491C0229AB
:1000D000F3DB2221595C0C4022215C546946122238
:1000E0000A709D4A8A8005F0B9FF0AB070BDF8B564
:1000F00086B004000E00170002A80C21F9F7D4FD09
:100100003000FAF738FD0500012D07D102200190DB
:100110000020009000230022310019E03900200067
:10012000FAF762FD002801D00A200BE0200005F05C
:100130001FFE002801D080B204E0FAF7F1FD00288C
:100140000AD1042001900020009000230022002109
:100150002000FFF78DFD24E0811C0F800C71B04A58
:10016000AB00D3185B8DCB80138C0B816B461B8B44
:100170004B810C9B8B810D9DCD8100270F824E8082
:100180002426875502A804706C46248B8480C38083
:100190000581498841805269100002D002A90020DF
:1001A000904707B0F0BDF4B584B004000E001F0006
:1001B00068460C21F9F778FD9A492000FAF714FDFA
:1001C000050003D024202856012809D00022002150
:1001D0004348A6235B005C43005BFFF7A1FB32E0D2
:1001E000280024304078F5F793FE002804D028003A
:1001F00024304078F5F728FF684604706946098A7C
:100200008180C7800A9901810B9A42812B884380A3
:1002100083484369002A08D0180002D069460120AB
:1002200098472800FAF780FC0DE06E806846008A47
:10023000A881EF812982032024216854180002D06C
:1002400069460120984705B0F0BD00002C8B0020C6
:10025000F2B582B0040000BF76A003C86B4603C3AA
:1002600016006F4F6000001938182421415CFF29E7
:1002700001D1012100E0491C2422815468460189F2
:100280002000FAF7B1FC05000CD168460289100283
:10029000024302216448A6235B005C43005BFFF736
:1002A0003FFBF7BD288A361880204002864204D3DF
:1002B0002988A879FAF7FCFAF7BD2E8268460470FF
:1002C0008680298841807A69100002D0694604201E
:1002D00090476869002802D02800FAF7B9FCF7BDFA
:1002E0002C7E00207B0C0000F1B58AB008001700BE
:1002F0001C00F9F7EAFD0500022D29DA4A48A6217B
:1003000049006943461830884649884220D0280071
:10031000FAF738FD42486900491940182221415C2A
:100320000E229143222281540A9800B200280FD154
:10033000F780378174811098B081694612220A7063
:1003400000228A80CF800C814881280005F086FE3B
:100350000BB0F0BD770C0000FB030000FCB587B0CC
:1003600004000E00F9F7B1FD0500022D55DA2E4804
:10037000A62149006943405A2A4988424DD028485D
:1003800069004919401800902221405CC0073CD503
:100390006846808BB04214D32448B11F814210D2EA
:1003A0006946898B891F81420BD26846008CFA21ED
:1003B0004900884205DA0E9F38000A381C498842F5
:1003C00007D300BF1DA0006801906846848001A883
:1003D00021E002A81021F9F767FC02A804804680FA
:1003E0006946898B81806946098CC1800781F6F74F
:1003F0000EFD2800FAF7D9FC00982221405C042168
:10040000014300982222815407E000BF0CA000683D
:10041000009068460480F6F72EFD09B0F0BD00009C
:100420002C8B0020FFFF00002C7E00207B0C0000A6
:10043000770C0000000000000000000000003B01FD
:1004400000003B0180B52A48FF210170817106F050
:10045000AEFC02BD20B5010002200022244B1D7815
:10046000FF2D0AD1062042439D182970172068806D
:10047000F5F713FD2871002020BD01229D79FF2D85
:10048000F0D020BD10B5012400F04BFB02280BD0AA
:100490001749062250430818FF2101700079FF28F0
:1004A00001D0F5F71BFD0024200010BD38B50C006D
:1004B00001251839E02909D200F033FB022805D0C4
:1004C0000B4906225043081844800025280032BDFD
:1004D00038B50C00012500F024FB022806D00449A1
:1004E000062250430818408820800025280032BD8D
:1004F000789A002080B50A00022100F0A3F802BD1E
:1005000080B50A00042100F09DF802BD80B50A0004
:10051000062100F097F802BD80B50A00082100F01E
:1005200091F802BD80B50A000A2100F08BF802BDE7
:1005300080B50A000C2100F085F802BD80B50A00E4
:100540000E2100F07FF802BD80B50A00102100F0F6
:1005500079F802BD80B50A00122100F073F802BDDF
:1005600080B50A00522100F06DF802BD80B50A0086
:10057000D22100F067F802BD80B50A00162100F014
:1005800061F802BD80B50A00182100F05BF802BDD9
:1005900080B500221E2100F055F802BD80B50A008A
:1005A000012100F04FF802BD80B50A00032100F0E0
:1005B00049F802BD80B50A00052100F043F802BDEC
:1005C00080B50A00072100F03DF802BD80B50A00A1
:1005D000092100F037F802BD80B50A000B2100F0B8
:1005E00031F802BD80B50A000D2100F02BF802BDE4
:1005F00080B50A000F2100F025F802BD80B50A0081
:10060000112100F01FF802BD80B50022132100F077
:1006100019F802BD80B50A00172100F013F802BDD9
:1006200080B50022192100F00DF802BD80B50A0046
:100630001B2100F007F802BD80B50A001D2100F063
:1006400001F802BDF3B581B014006846007900F0EE
:1006500068FA022862D06946097A0091002C05D117
:10066000132903D0192901D01E2957D14E496A46B2
:10067000127A0A7001224D4B0625684318184588E6
:100680002300F63300206E46367A761E00D159E1FB
:10069000761E012E00D85EE1B61E40D0761E00D137
:1006A00060E1761E00D187E0761E00D1A0E1761EC3
:1006B00000D1A1E0761E00D1BBE1761EEAD0761E05
:1006C00002D0761E2BD0761E00D1C5E1761E00D159
:1006D000AAE0761E00D1CEE1761E00D1BAE0761EE9
:1006E00000D1D7E1761E14D0761E23D0F61E00D19D
:1006F00008E1761E00D1E0E1761E00D11EE1761EF3
:1007000018D0B61E00D0B61E00D1F1E1761E11D071
:10071000343E00D1BDE0803E00D1D0E0FFE1208832
:1007200048702088000A88706088C8706088000A55
:100730000871052292B268460079F9F752FF040069
:100740000098022815D0042813D0062811D00828B4
:100750000FD00A280DD00C280BD00E2809D0102855
:1007600007D0122805D0162803D0182801D01D283C
:1007700017D16846007900F0D4F9022811D00B494E
:100780000622504308180179FF290AD06946097AE0
:10079000491C41710090064B064A01210079F5F78A
:1007A000C7FB2000FEBD00BFD88D0020789A002036
:1007B000B96D0100307500001A88D21D9542ADDB7D
:1007C00022884A702288120A8A706288CA706288F7
:1007D000120A0A71A2884A71A288120A8A71072233
:1007E000C5B21E88B542A5D2C0B22518AD7992B265
:1007F0008D54521C401CF3E722884A702288120A4A
:100800008A706288CA706288120A0A7105220423FB
:10081000E356012B2DD023189B7992B28B54521C96
:10082000401C102886DAF6E71E887600761CB54252
:100830006BDB1D88A842F5DA450065192E8892B257
:100840008E54521C2D882D0A92B28D54521C401C7D
:1008500080B2EEE722884A702288120A8A70628883
:10086000CA706288120A0A7105220423E356012B1A
:1008700006D1E0884871E088000A8871072259E7AC
:1008800023189B7992B28B54521C401C1028F6DA24
:10089000F6E71A88D21C954237DB22884A702288F4
:1008A000120A8A7003221E8885B2B542E7D280B24E
:1008B0002518AD7892B28D54521C401CF3E72300EA
:1008C000EA331A880F3295421FDB22884A70228849
:1008D000120A8A700322002506E0ADB26619B678C6
:1008E00092B28E54521C6D1C1F88AEB2BE42F4D31D
:1008F0002318EC255B5D92B28B54521C401C0C28D3
:100900001FDAF5E71A88521D954200DA07E12288BE
:100910004A702288120A8A706288CA706288120A33
:100920000A7105221E8885B2B5420AD280B2251806
:100930002D7992B28D54521C401CF3E720784870F8
:100940000222F7E620784870608888706088000A84
:10095000C8702079ECE6208848702088000A8870EA
:100960000322E7E622784A7002226378A657012E16
:100970001DD19B009B1C9D425EDB63789842F0DAA0
:100980008300E3185D8892B28D54521C5D882D0A55
:1009900092B28D54521C9D8892B28D54521C9B88E9
:1009A0001B0A92B28B54521C401CC0B2E5E71226BF
:1009B00073439B1C9D423FDB00236578AB42D0DA3A
:1009C00012255D4365196E8892B28E54521C6E8852
:1009D000360A92B28E54521C0026AF193F7992B259
:1009E0008F54521C761C102EF7DB5B1CDBB2E4E745
:1009F0002300F4331E88B600761CB5421CDB1D882C
:100A0000A842AEDA850065192E8892B28E54521C27
:100A10002E88360A92B28E54521C6E8892B28E5430
:100A2000521C6D882D0A92B28D54521C401CC0B2CB
:100A3000E5E71A88921C954271DB22784A700222FF
:100A40001E8885B2B5428CD280B225186D7892B2DC
:100A50008D54521C401CF3E71E88761CB5425EDBA9
:100A60001E8885B2B54250D280B2255C92B28D54B8
:100A7000521C401CF4E71E88761CB5424FDB1E88D2
:100A800085B2B54241D280B2255C92B28D54521CDF
:100A9000401CF4E71A88921C954240DB22784A7089
:100AA00002221E8885B2B5422FD280B225186D78F9
:100AB00092B28D54521C401CF3E71A88521D954285
:100AC0002DDB22884A702288120A8A706288CA70D6
:100AD0006288120A0A7105221E8885B2B54214D2B4
:100AE00080B225182D7992B28D54521C401CF3E728
:100AF0001A88D21C954212DB22884A702288120A78
:100B00008A7003221E8885B2B54200D312E680B2F5
:100B10002518AD7892B28D54521C401CF2E7012486
:100B20003FE601000020124A13788B4204D00120D6
:100B300092798A4200D00220704738B50C00FFF746
:100B4000F0FF022812D00A49062250430D182879D6
:100B5000FF280BD0F5F7DCF9002807D069798C4223
:100B600001D0012C02D12879F5F76EFA31BD0000D1
:100B7000789A0020D2B2203A03D30800D040002156
:100B800070472032D141D04048409140D140484048
:100B900070470807010C2F4A89180A68012383400F
:100BA00013430B60704770B5060003250020040056
:100BB000AC4207D22848042161434058B04201D0DA
:100BC000641CF5E7AC4206D34C2224492448FEF7C6
:100BD00007FA00BF00BF200070BD38B505000C004B
:100BE000002C06D153221D491E48FEF7F9F900BF1B
:100BF00000BF2800FFF7D7FF1B49042250430858C5
:100C0000FFF7C8FF20784007400F28602079400197
:100C1000617989010143607840020843A179890420
:100C20000143207A00040843E17949040143607AD2
:100C3000C0040843E178C905802212041140014331
:100C4000A0780006F022120502400A4384202A50B0
:100C500031BD00000070044088CA0200B8C1020023
:100C600034C8020030CB020094CA0200F8B5040078
:100C70000D0016001F002A48844201D104200BE019
:100C80002648844201D1022006E02148844201D155
:100C9000022001E00020C043EDB2854207DBFF22C5
:100CA000B4321C491C48FEF79BF900BF00BFEDB2EF
:100CB000082068432018C0683C218843EDB2082111
:100CC00069436118C860EDB2082068432018C06805
:100CD0003C2101400029F6D1EDB2082068432018DC
:100CE000C068F6B23043EDB2082169436118C860AC
:100CF000EDB20820684320180761EDB20820684370
:100D00002018C0683C2101400029F6D0F1BD000048
:100D100000A00340B8C1020024C6020000900340B6
:100D20000080034030B5CAB20023CC0503D5046867
:100D3000402525430560002A10D0D4070BD5DBB22F
:100D400008245C430419E46840252543DBB20824E9
:100D50005C430419E5605B1C5208ECE730BD70474A
:100D600080B5A8480078002809D10120A54908705D
:100D7000A54A0021A548F3F79DFEFAF74FF901BDFA
:100D800070B5040000200500ADB2002D58D1F8F771
:100D9000C1FE9E48ADB29C4969434018BC21C900C0
:100DA000405C060000209949ADB2974A6A43891811
:100DB000BC22D2008854F8F7A9FEF00714D5934856
:100DC000ADB2914969434018806800280CD08F4823
:100DD000ADB28D4969434018C0688C49ADB28A4AAA
:100DE0006A43891889688847B00706D58748ADB235
:100DF00085496943401800F0CFFA8448ADB2824972
:100E0000694340188249405C002817D17F48ADB241
:100E10007D49694340187D49ADB27B4A6A438918D0
:100E2000A94A895C1022514340188121C900405AC7
:100E3000002803D02800C0B200F0D8F96D1CA3E749
:100E400070BDF3B581B016000024FF200199087031
:100E500000200500002D60D16C486B4969434018A3
:100E6000070038786946097A884207D178783100D6
:100E7000C9B2884202D1052004004EE0387800282B
:100E800049D1F8F747FE7E706846007A01280FD0F6
:100E900033D303282BD029D305282AD028D30728D9
:100EA00029D027D3092820D003D30A2824D024E02E
:100EB00025E08648202169434118F6B2300005F04C
:100EC000DAFF38001030814920226A4389184861CE
:100ED0002A00A049F6B2300006F072F82A00AA49AA
:100EE000F6B2300006F07FF809E008E007E006E01F
:100EF00005E004E003E002E001E002200400E4B2C7
:100F0000002C05D16846007A3870280001990870D5
:100F1000F8F7FCFD01E06D1C9CE7012D01D10320D9
:100F200004002000C0B2FEBDFFB581B00A9F0024BE
:100F30000025364869460979334A514346180298D4
:100F400000280AD068468089002806D068460079C3
:100F5000002802D13078002802D1012004004CE0A2
:100F6000F8F7D8FD9C48305C1021484330188121A7
:100F7000C900405A00282ED19748305C10214843C0
:100F80003018FF2189004058002824D19348305C54
:100F90001E2820DA9048305C102148433018FF2189
:100FA00089004018050068468089A8810298A860D9
:100FB000049828606F608848305C401C86497054F3
:100FC000C0B21E2802DB0020834970548348305C85
:100FD000401C82497054F8F799FD002D05D06846F1
:100FE000007900F003F9040007E008200400300055
:100FF00000F0D2F9E4B2002CB2D12000C0B205B0AA
:10100000F0BD0000259C0020E40500006075002074
:10101000E1050000FDB582B00C000027704869466C
:10102000097A704A514346186846007A002805D16B
:10103000002C03D068468089002802D101200700D7
:101040003DE069466846007A00F042F8684600884C
:1010500000282DD06846808969460988884203D2D5
:101060006846808969460880002005002800694696
:10107000098880B2884214D2F8F74CFDB08801008C
:10108000491CB18080B23018007C2070641CB0888C
:101090005549884201DB0020B080F8F737FD6D1C10
:1010A000E4E76846694689896A461288891A818117
:1010B0000498002803D06846008804990880380006
:1010C000C0B205B0F0BD0000DE050000A898002009
:1010D00070B505000C000026EDB2002D01D1002CEA
:1010E00002D10120060031E0F8F714FD3C48EDB2D2
:1010F0003C496943401840883949EDB2394A6A434E
:101100008918898880B288420ED33548EDB23549B6
:101110006943401840883249EDB2324A6A4389181F
:101120008988401A20800FE02D48EDB22D4969438F
:10113000401880882C49081A2949EDB2294A6A4387
:101140008918498840182080F8F7E0FC3000C0B2C8
:1011500070BD00005114010030B503000020DBB267
:10116000002B02D0012420000BE01D4CDBB21D4DF2
:101170005D436419A1601A4CDBB21A4D5D436419DA
:10118000E260C0B230BD0000A514010070B50400DB
:101190000E000025E4B2002C01D1002E02D1012066
:1011A000050016E00E48E4B20E496143405C082891
:1011B00002D00A280AD00AE031000948E4B2094AFC
:1011C00062438018407805F0A0FE02E001E00220B2
:1011D00005002800C0B270BDDC050000DF0500007E
:1011E00060750020E4050000E9030000F8B5060082
:1011F00000246748F6B2674971434518F8F78AFC3E
:101200009E48285C002811D101209C496854F8F7B9
:101210007DFC9B48285C0700BFB21020784328184B
:101220008121C900405A002809D103E0F8F76EFC7B
:1012300000202FE000209149685400202AE0544803
:10124000F6B254497143405C082814D1BFB2102053
:10125000784328188121C900425ABFB21020784330
:10126000281888494158687805F065FE002801D0A3
:101270000620040001E006200400E4B2002C07D0A0
:1012800000207E49685404217F480068F8F7E6FB97
:101290002000C0B2F2BD38B504003D483D4961436D
:1012A00045186888401C688080B27849884201DB14
:1012B000002068806888A98880B2884208D1A88800
:1012C000401CA88080B27149884201DB0020A880C0
:1012D000BC20C000285C00280DD1BC20C000285CC8
:1012E00001210143BC20C000295401216648006847
:1012F000F8F7B4FB07E0BC20C000285C01210143E3
:10130000BC20C000295431BD38B504002048214913
:1013100061434518F8F7FEFB5948285C1021484303
:1013200028188121C900002242525548285C401CDF
:1013300053496854C0B21E2802DB0020504968544B
:1013400000204E496854F8F7E1FB4D48285C102115
:10135000484328188121C900405A00280AD028781B
:10136000042807D02878052804D02000C0B2FFF751
:101370003DFFFFE7BC20C000285C02210143BC20E8
:10138000C0002954022140480068F8F767FB31BDCE
:1013900060750020E405000038B50400F8F7BAFBDA
:1013A0003B480078002850D1012039490870F8F7EF
:1013B000ADFB3848205C1021484320188121C9002A
:1013C000405A00283DD13348205C05003248205C5B
:1013D000002836D0F8F79EFB2F48205C401E2E498F
:1013E0006054F8F793FB2B48205C401C294960545B
:1013F000C0B21E2802DB002026496054102068433A
:101400002018FF2189004058002813D0102068437D
:1014100020188021C9004058102169436118FF221B
:101420009200895888470020102169436118FF22E3
:10143000920088501748205C1849615CC0B288420D
:10144000B7D100201249087001E0F8F75FFB31BD09
:1014500038B50400E5682800FFF71DFF104806496D
:10146000694340180E49044A6A438918498840185C
:101470001030606131BD0000E4050000E1050000AE
:10148000DE05000004040000909B0020E90300003A
:10149000269C0020DD050000DF050000DC050000C3
:1014A0006075002010B50400A068FFF72DFF10BD87
:1014B00010B5002400200400E4B2022C11DAAB487D
:1014C000E4B208216143405C012808D10121A7480A
:1014D000E4B2082262438018406801F005FB641CF6
:1014E000EAE710BD38B5FF20A849087000200400C5
:1014F00000200500022D1DD29C4808216943405C54
:1015000001280CD19948082169434018406801F02E
:10151000D7FA002803D120000124AC400443002C5A
:1015200006D09A480078FF2802D128009749087011
:101530006D1CDFE7200032BDF8B5040000206946CD
:101540000870FF270020050000200600022E1BD295
:10155000864808217143405C01280CD1834808214A
:1015600071434018406801F0ABFA002803D128000D
:101570000125B5400543002D04D0FFB2FF2F01D156
:1015800030000700761CE1E7804800783900C9B2D6
:10159000884202D101206946087068460078F2BD91
:1015A000F8B504007A480078002803D0022843D018
:1015B00014D36AE0FFF796FF764908607548006823
:1015C000002806D001207249087000207249086086
:1015D00003E02000C0B2F4F737FD56E0002007001A
:1015E0006C480068FFF7A8FF002805D06A4800682B
:1015F000401C694908600DE001200700664800684A
:10160000142801D30520070063480068A02801D3EF
:1016100009200700FFB2002F0DD05C480078FF289A
:1016200006D05A4800783818C0B25C490968884723
:1016300002205749087028E000200500002006001D
:10164000022E14D2494808217143405C01280CD174
:101650004648082171434018406801F031FA0028DB
:1016600003D128000125B5400543761CE8E7494829
:101670000068002801D0002D06D1002044490870E0
:101680002000C0B2F4F7E0FCFFE7F1BD38B504007C
:1016900000253D48082161434018406801F0D2F917
:1016A000002808D03848082161434018406801F0FC
:1016B000B8F9012005002800C0B232BDF1B5002400
:1016C0000026022500270098002836D000983349CC
:1016D0000860F4F7E2FB19490870EDB2002D02D161
:1016E000FFB2002F11D00120204908226243885404
:1016F0002B480421714340181C4908226243891871
:101700004860761C6D1E641CE7E7FFF7D1FE0020E1
:101710000400022C11D2154808216143405C0128C5
:1017200009D11248082161434018436880220F21E3
:101730001C4801F095FA641CEBE7F1BDD7080020C6
:1017400038B5002500200400022C0CD214480421D6
:101750006143401801F076F9002802D0012005000D
:1017600001E0641CF0E72800C0B232BDB09900204F
:101770007047704780B50C4803780C4A32210A48FC
:101780000078F4F745FC01BDB09900201F9C0020B3
:101790001E9C00209C9B0020A09B0020A49B00205E
:1017A0008808002039BF0200D7080020A1150100D9
:1017B00080B5010015D03349086005F0AFFC05F095
:1017C000AFFC05F083FD00280BD12F4800780028DE
:1017D00003D105F023FE002803D106F027FA0028E4
:1017E00001D0012002BD00F01EF8002002BD80B52E
:1017F00006F06CFA02BD10B582B0049C009406F0AD
:10180000DCFA16BD80B506F003FC02BD80B52028C9
:1018100001DB012002BD002900D0012105F0DBFC25
:10182000002002BD000010B5F8F774F9174C19221A
:1018300000212000F3F73EF900206076F8F766F902
:1018400010BDF2B5170000240025104E317F01298C
:1018500015D1032F14DB022812D101E0641CE4B27D
:10186000707E84420CDAA00000193018027897428A
:10187000F4D30099401CF3F70BF90028EED00125B2
:101880002800F2BDC89B0020309C0020E898002072
:10189000010C9E4A89180A680123834013430B6098
:1018A000704700B5C9B2002904D0026A402313432F
:1018B000036203E0026A40239A43026200BD38B526
:1018C00005000C00022C07D3FC2252009049B148BD
:1018D000FDF786FB00BF00BF0420444328190069C0
:1018E00032BD10B5040022000021AB4806F063FEB3
:1018F0000021A94806F090FE0006F9D50021A6486F
:10190000FFF7DDFF80B210BD38B50325A34800689E
:10191000A3490140EDB2A802C022120102400A43CD
:101920009E480260B248FFF7DCFF0400A4B28020AA
:101930000001844204DA2800451EC0B20128E5D126
:1019400031BDF8B507000D00A948FFF7CAFF694689
:101950004880A848FFF7C5FF69460880A6480600EA
:10196000A64846436846008880B2400880B23618D0
:10197000300069460988F8F7B2F90600300038806F
:1019800086480068800A8007800F0400E4B2002CBB
:1019900000D0641E68464088A04006009748464331
:1019A0006846008880B2400880B236183000694628
:1019B0000988F8F794F9060030002880F1BD10B5C9
:1019C0000400A4B28E48844201DA002044E0A4B2AC
:1019D0008C48844219DA8A48241AA4B220001921BA
:1019E000F8F77AF9002907D0A4B220001921F8F7F6
:1019F00073F90400641C05E0A4B220001921F8F773
:101A00006BF904002000C0B226E0A4B2AF200001B0
:101A1000844201DA20201FE0AF200001241AA4B282
:101A200020001921F8F758F9002907D0A4B22000A6
:101A30001921F8F751F90400641C05E0A4B2200054
:101A40001921F8F749F904002034A4B2402C01DB35
:101A50003F2004002000C0B210BD00B5010089B2D3
:101A60006748814201DA002026E089B26548814258
:101A70000ADA6348091A89B208001921F8F72CF923
:101A800001000800C0B217E089B2AF200001814216
:101A900001DA102010E0AF200001091A89B2080015
:101AA0001921F8F719F90100203189B2402901DB29
:101AB0003F2001000800C0B200BD000010B50400C6
:101AC000A4B2A948844201DA00201DE0A748241AE4
:101AD000A4B220001921F8F7FFF8002907D0A4B21A
:101AE00020001921F8F7F8F80400641C05E0A4B2FE
:101AF00020001921F8F7F0F80400A4B2162C01DB3D
:101B0000152004002000C0B210BD00000070044089
:101B10008CB20200F2B582B00500F7F7FBFF9448E3
:101B2000007869464870924840780600904840889E
:101B30000400F7F7EBFF2000323080B2FFF7BEFF62
:101B40006946C8702000323080B2FFF738FF69461E
:101B50000870684640786946C978884204D3684668
:101B600040786946887003E06846C07869468870A6
:101B7000300069460978C0B2884201D3370002E0DC
:101B800068460078070068468078287002980770D9
:101B9000F7BD000018C8020000B0034000A00540D7
:101BA000FFF3FFFFF2B582B00400F7F7B3FFCA48B6
:101BB000007869468870C848407806006846C6497B
:101BC00049880180F7F7A2FF68460088FFF745FFC4
:101BD000070038003100C0B2C9B2884201D33500D5
:101BE00000E03D0068468078207002980570F7BDDF
:101BF00010CB020018CB0200FF0F0000E70300002B
:101C000072060000030800001CB504000020B34960
:101C1000087000A9891C01A8FFF793FEF7F77AFF67
:101C20006846408852494880012051490871F7F7B9
:101C30006DFFAB480068AB490140A9480160A84866
:101C40000068A94901406846408880B2C008000485
:101C5000A64A02400A43A2480260A14800688021C7
:101C6000090201439E480160684640889B49C8803C
:101C70006846808899498880694600A8401CFFF71B
:101C800049FFF7F747FF3A48007901281AD19848E9
:101C900000689849014068464078C002F822120264
:101CA00002400A4392480260914800683F218843FD
:101CB000694609788906890E01438D480160002034
:101CC0002B490871F7F722FF002C4BD18A48006896
:101CD000C068002846D02648408887490968098896
:101CE000884206D384480068408821494988884250
:101CF00005D27A4800780121014378480170F7F74E
:101D000009FF764840787A490968C90AC906C90EA8
:101D100088420CD076480068C00AC006C00E6F49E1
:101D200048706E480078022101436C4801706B488E
:101D300080786F4909688906890E88420BD06C4803
:101D400000688006800E6549887064480078042128
:101D5000014362480170F7F7D9FE60486649096897
:101D6000C968884713BD0000FC040000FB040000A4
:101D7000C89A00201CB50400002058490870FFF7DD
:101D8000C3FD00A9891C01A8FFF7DBFDF7F7C2FE20
:101D9000684640885049488001204F490871F7F74C
:101DA000B5FE4F4800684F4901404D4801604C481E
:101DB00000684D4901406846408880B2C008000470
:101DC0004A4A02400A43464802604548006880216A
:101DD0000902014342480160684640883F49C88083
:101DE000684680883D498880694600A8401CFFF706
:101DF000D9FEF7F78FFE3848007901281AD13C4800
:101E000000683E490140684640788001F822D200CF
:101E100002400A4336480260354800683F21884343
:101E2000694609788906890E01433148016000201E
:101E300029490871F7F76AFE002C4BD12E4800683B
:101E4000C068002846D0244840882B490968098882
:101E5000884206D32848006840881F49498888423C
:101E600005D21E480078012101431C480170F7F794
:101E700051FE1A4840781E4909688909C906C90EE9
:101E800088420CD01A4800688009C006C00E134969
:101E900048701248007802210143104801700F4831
:101EA0008078134909688906890E88420BD010484A
:101EB00000688006800E094988700848007804216F
:101EC000014306480170F7F721FE04480A490968F2
:101ED000C968884713BD0000C89A0020C09A002036
:101EE00008A00540FF7FFFFFFFFF00FC0000FF038D
:101EF0000CA00540FF07FFFF509B00203FF8FFFFAD
:101F000010B582B00400002C01D10020C7E0654864
:101F1000FFF7BEFC2079002803D16348046001204C
:101F2000BDE060882188884201D20020B7E0207996
:101F300001280FD12088E121C900884203DB608895
:101F40005A49884201DB0020A9E0207C102816DBDA
